{
  "_format": "hh-sol-artifact-1",
  "contractName": "Factory",
  "sourceName": "contracts/Factory.sol",
  "abi": [
    {
      "inputs": [
        {
          "internalType": "address",
          "name": "_vaultImplementation",
          "type": "address"
        }
      ],
      "stateMutability": "nonpayable",
      "type": "constructor"
    },
    {
      "inputs": [],
      "name": "IncorrectReceiver",
      "type": "error"
    },
    {
      "inputs": [],
      "name": "VaultAlreadyExist",
      "type": "error"
    },
    {
      "anonymous": false,
      "inputs": [
        {
          "indexed": false,
          "internalType": "address",
          "name": "vault",
          "type": "address"
        },
        {
          "indexed": false,
          "internalType": "address",
          "name": "collection",
          "type": "address"
        }
      ],
      "name": "VaultCreated",
      "type": "event"
    },
    {
      "inputs": [
        {
          "internalType": "uint256",
          "name": "",
          "type": "uint256"
        }
      ],
      "name": "allVaults",
      "outputs": [
        {
          "internalType": "address",
          "name": "",
          "type": "address"
        }
      ],
      "stateMutability": "view",
      "type": "function"
    },
    {
      "inputs": [],
      "name": "allVaultsLength",
      "outputs": [
        {
          "internalType": "uint256",
          "name": "",
          "type": "uint256"
        }
      ],
      "stateMutability": "view",
      "type": "function"
    },
    {
      "inputs": [
        {
          "internalType": "address",
          "name": "_collection",
          "type": "address"
        }
      ],
      "name": "createVault",
      "outputs": [],
      "stateMutability": "nonpayable",
      "type": "function"
    },
    {
      "inputs": [
        {
          "internalType": "address",
          "name": "_collection",
          "type": "address"
        },
        {
          "internalType": "address",
          "name": "_to",
          "type": "address"
        }
      ],
      "name": "createVaultTo",
      "outputs": [],
      "stateMutability": "nonpayable",
      "type": "function"
    },
    {
      "inputs": [
        {
          "internalType": "address",
          "name": "_collection",
          "type": "address"
        }
      ],
      "name": "getERC20Address",
      "outputs": [
        {
          "internalType": "address",
          "name": "",
          "type": "address"
        }
      ],
      "stateMutability": "view",
      "type": "function"
    },
    {
      "inputs": [
        {
          "internalType": "address",
          "name": "_collection",
          "type": "address"
        },
        {
          "internalType": "uint256",
          "name": "_tokenId",
          "type": "uint256"
        }
      ],
      "name": "getERC20Address1155",
      "outputs": [
        {
          "internalType": "address",
          "name": "",
          "type": "address"
        }
      ],
      "stateMutability": "view",
      "type": "function"
    },
    {
      "inputs": [
        {
          "internalType": "address",
          "name": "_collection",
          "type": "address"
        }
      ],
      "name": "getVaultDeterministicAddress",
      "outputs": [
        {
          "internalType": "address",
          "name": "vaultAddress",
          "type": "address"
        }
      ],
      "stateMutability": "view",
      "type": "function"
    },
    {
      "inputs": [
        {
          "internalType": "uint256",
          "name": "startIndex",
          "type": "uint256"
        },
        {
          "internalType": "uint256",
          "name": "numOfVaults",
          "type": "uint256"
        }
      ],
      "name": "getVaults",
      "outputs": [
        {
          "internalType": "address[]",
          "name": "pairs",
          "type": "address[]"
        },
        {
          "internalType": "uint256",
          "name": "newIndex",
          "type": "uint256"
        }
      ],
      "stateMutability": "view",
      "type": "function"
    },
    {
      "inputs": [],
      "name": "safe",
      "outputs": [
        {
          "internalType": "address",
          "name": "",
          "type": "address"
        }
      ],
      "stateMutability": "view",
      "type": "function"
    },
    {
      "inputs": [
        {
          "internalType": "address",
          "name": "",
          "type": "address"
        }
      ],
      "name": "vaultAddresses",
      "outputs": [
        {
          "internalType": "address",
          "name": "",
          "type": "address"
        }
      ],
      "stateMutability": "view",
      "type": "function"
    },
    {
      "inputs": [],
      "name": "vaultImplementation",
      "outputs": [
        {
          "internalType": "address",
          "name": "",
          "type": "address"
        }
      ],
      "stateMutability": "view",
      "type": "function"
    }
  ],
  "bytecode": "0x60c0346100da576001600160401b0390601f61388238819003918201601f1916830191848311848410176100c4578084926020946040528339810103126100da57516001600160a01b03919082811681036100da5760a05260405190612eab90818301908111838210176100c45782916109d7833903906000f080156100b857166080526040516108f790816100e0823960805181818161052e015261070a015260a05181818160b10152818161039b01526106820152f35b6040513d6000823e3d90fd5b634e487b7160e01b600052604160045260246000fd5b600080fdfe608060408181526004918236101561001657600080fd5b600092833560e01c918263186f03541461051a575081634980d7a9146104e05781634cd18577146104c1578163721688071461043257816374765f7a146103fd5781637a38ac9e1461032e5781639094a91e146102ed5781639a76889b14610253578163b4bd6f4614610229578163b98cca37146100e4575063bba48a901461009e57600080fd5b346100e057816003193601126100e057517f00000000000000000000000000000000000000000000000000000000000000006001600160a01b03168152602090f35b5080fd5b839150346100e057826003193601126100e057803591602480359460019585875461010f82826108a2565b8311610218575b5050610124819492946108c5565b95610131855197886105f7565b81875261013d826108c5565b9560209485890197601f1901368937845b8481106101a75750505090610162916108dd565b92805195818701918752518091526060860194915b81811061018b575050508380955001520390f35b82516001600160a01b0316865294830194918301918701610177565b6101bc6101b782869a989a6108dd565b610578565b90548b518310156102065760039190911b1c6001600160a01b0316600582901b8b0188015260001981146101f4578a0196949661014e565b50634e487b7160e01b87526011825286fd5b634e487b7160e01b8a5260328552838afd5b61022292506108a2565b8588610116565b83346102505760203660031901126102505761024d61024661055d565b3390610619565b80f35b80fd5b839150346100e057602092836003193601126102e9576001600160a01b03918261027b61055d565b16845283855284838386205416835192838092635cfc486f60e11b82525afa9384156102de57936102af575b505191168152f35b6102d0919350843d86116102d7575b6102c881836105f7565b810190610883565b91846102a7565b503d6102be565b8251903d90823e3d90fd5b8280fd5b9050346102e95760203660031901126102e95735916001548310156102505750610318602092610578565b905491519160018060a01b039160031b1c168152f35b5050346100e05760203660031901126100e0576020906055604361035061055d565b8351858101916bffffffffffffffffffffffff199060601b16825260148152610378816105c5565b51902083513060388201526f5af43d82803e903d91602b57fd5bf3ff60248201527f00000000000000000000000000000000000000000000000000000000000000006014820152733d602d80600a3d3981f3363d3d373d3d3d363d73815260588101919091526037600c8201206078820152012090516001600160a01b039091168152f35b5050346100e0573660031901126102505761041661055d565b6024356001600160a01b03811681036102e95761024d91610619565b919050346102e957806003193601126102e9576001600160a01b03908161045761055d565b168452836020526020828286205416936024835180968193636afedaeb60e01b83528335908301525afa9283156104b7576020949361049857505191168152f35b6104b0919350843d81116102d7576102c881836105f7565b91386102a7565b81513d86823e3d90fd5b5050346100e057816003193601126100e0576020906001549051908152f35b5050346100e05760203660031901126100e0576020916001600160a01b039082908261050a61055d565b1681528085522054169051908152f35b8490346100e057816003193601126100e0577f00000000000000000000000000000000000000000000000000000000000000006001600160a01b03168152602090f35b600435906001600160a01b038216820361057357565b600080fd5b6001548110156105af5760016000527fb10e2d527612073b26eecdfd717e6a320cf44b4afac2b0732d9fcbe2b7fa0cf60190600090565b634e487b7160e01b600052603260045260246000fd5b6040810190811067ffffffffffffffff8211176105e157604052565b634e487b7160e01b600052604160045260246000fd5b90601f8019910116810190811067ffffffffffffffff8211176105e157604052565b6001600160a01b038082166000818152602081815260408083205492979690959094919282166108725781908651848101916bffffffffffffffffffffffff199060601b1682526014815261066d816105c5565b5190206e5af43d82803e903d91602b57fd5bf37f0000000000000000000000000000000000000000000000000000000000000000763d602d80600a3d3981f3363d3d373d3d3d363d7300000062ffffff8260881c16178b5260781b178452603760098af51693841561082e57811680158015610825575b61081457843b156108105785519063c0c53b8b60e01b82528460048301526024820152817f0000000000000000000000000000000000000000000000000000000000000000166044820152878160648183895af18015610806576107d7575b5082875286825284872080546001600160a01b0319168517905560015496680100000000000000008810156107c357506107a58760017f5d9c31ffa0fecffd7cf379989a3c7af252f0335e0d2a1320b55245912c781f53989901600155610578565b819291549060031b9186831b921b19161790558351928352820152a1565b634e487b7160e01b81526041600452602490fd5b67ffffffffffffffff81989298116107f25785529538610743565b634e487b7160e01b82526041600452602482fd5b86513d8a823e3d90fd5b8780fd5b855163c33b691760e01b8152600490fd5b508481146106e4565b855162461bcd60e51b815260048101849052601760248201527f455243313136373a2063726561746532206661696c65640000000000000000006044820152606490fd5b855163dd5f5b4360e01b8152600490fd5b9081602091031261057357516001600160a01b03811681036105735790565b919082039182116108af57565b634e487b7160e01b600052601160045260246000fd5b67ffffffffffffffff81116105e15760051b60200190565b919082018092116108af5756fea164736f6c6343000812000a60a0346200034b576001600160401b03906040908082018381118282101762000335578252600c81526020926b5072656d69756d205361666560a01b848301528251838101818110838211176200033557845260058152645f5341464560d81b85820152825190828211620003355760008054926001958685811c951680156200032a575b8986101462000316578190601f95868111620002c3575b5089908683116001146200025f57849262000253575b5050600019600383901b1c191690861b1781555b81519384116200023f5784548581811c9116801562000234575b888210146200022057838111620001d8575b5086928411600114620001725783949596509262000166575b5050600019600383901b1c191690821b1781555b600a553360805251612b5a908162000351823960805181818161050201528181610a3a01528181610ce801528181610fc001528181611357015281816115c9015261181d0152f35b0151905038806200010a565b9190601f1984169685845280842093905b888210620001c05750508385969710620001a6575b505050811b0181556200011e565b015160001960f88460031b161c1916905538808062000198565b80878596829496860151815501950193019062000183565b8582528782208480870160051c8201928a881062000216575b0160051c019086905b8281106200020a575050620000f1565b838155018690620001fa565b92508192620001f1565b634e487b7160e01b82526022600452602482fd5b90607f1690620000df565b634e487b7160e01b81526041600452602490fd5b015190503880620000b1565b8480528a85208994509190601f198416865b8d828210620002ac575050841162000292575b505050811b018155620000c5565b015160001960f88460031b161c1916905538808062000284565b8385015186558c9790950194938401930162000271565b9091508380528984208680850160051c8201928c86106200030c575b918a91869594930160051c01915b828110620002fd5750506200009b565b8681558594508a9101620002ed565b92508192620002df565b634e487b7160e01b83526022600452602483fd5b94607f169462000084565b634e487b7160e01b600052604160045260246000fd5b600080fdfe608060408181526004918236101561001657600080fd5b600092833560e01c91826301ffc9a714611eb65750816306fdde0314611deb578163081812fc14611dcb578163095ea7b314611c5d5781630efe6a8b14611c31578163150b7a021461178457816318160ddd1461176557816320acd9f314611736578163229cab1f1461152057816323b872dd146114fb5781632e1a7d4d146112a15781632f745c59146111f557816342842e0e146111c157816342966c6814610f2057816347e7ef2414610ef95781634f6ccce714610e655781635690562014610c37578163571ff20d146109945781636352211e1461096357816370a082311461093657816390b8e1c91461090457816395d89b41146107fd578163a22cb46514610722578163b88d4fde146106dd578163c86283c814610444578163c87b56dd1461020e578163cea0252e146101ab575063e985e9c51461015957600080fd5b346101a757806003193601126101a757602091610174611f83565b8261017d611fb4565b9260018060a01b03809316815260058652209116600052825260ff81600020541690519015158152f35b5080fd5b9190503461020a57602036600319011261020a578060a09383358152600c60205220600180851b038154169260018201549260ff6002840154926003850154940154169381519586526020860152840152606083015215156080820152f35b8280fd5b90503461020a576020908160031936011261044057819293813561024f61024a82600052600260205260018060a01b0360406000205416151590565b6121a7565b85519261025b84612010565b82845282156104235781829184937a184f03e93ff9f4daa797ed6e38ed64bf6a1f0100000000000000009081811015610416575b5050866d04ee2d6d415b85acef810000000080851015610408575b5050662386f26fc10000808410156103f9575b506305f5e100808410156103ea575b50612710808410156103dc575b505060648210156103cc575b600a809210156103c2575b60219088936001928161031d8580940161031561030c8261204e565b9951998a61202c565b80895261204e565b878b019890601f1901368a3750860101905b61038c575b505050509261036b9261037792610388958851958361035c8895518092888089019101611f3b565b84019151809386840190611f3b565b0103808452018261202c565b925b51928284938452830190611f5e565b0390f35b600019019083906f181899199a1a9b1b9c1cb0b131b232b360811b8282061a8353049182156103bd5791908261032f565b610334565b91600101916102f0565b91906064600291049101916102e5565b9301929091049038806102d9565b600891949304920192386102cc565b601091949304920192386102bd565b9401939092049186386102aa565b8a9550049250388061028f565b5050505050610388825161043681612010565b6000815292610379565b8380fd5b9190503461020a578060031936011261020a57813591610462611fb4565b6002600a54146106ce576002600a556001600160a01b0380610483866121f3565b1633036106be57848652602092600c84528487209285516104a381611ff4565b83855416815260018501549486820195865260028101548883015260ff846003830154926060850193845201541615158060808401526106ae576104e68961297b565b81518851639a76889b60e01b81529086168582015287816024817f00000000000000000000000000000000000000000000000000000000000000008a165afa9081156106a4579086918c91610677575b5016905190670de0b6b3a76400009182039182116106645790818b96959493923b1561066057895163079cc67960e41b8152338682019081526020810193909352918791839182908490829060400103925af1801561065657859291879161063d575b50505116945194803b1561062f5784928360a4928a519687958694635c46a7ef60e11b8652309086015216988960248501526044840152608060648401528160848401525af180156106335761061b575b50507f8353ffcac0876ad14e226d9783c04540bfebf13871e868157d2a391cad98e9189251908152a26001600a5580f35b61062490611fca565b61062f5784386105ea565b8480fd5b85513d84823e3d90fd5b61064991929350611fca565b61062f5783908538610599565b89513d88823e3d90fd5b8680fd5b634e487b7160e01b8b526011855260248bfd5b6106979150893d8b1161069d575b61068f818361202c565b810190612910565b38610536565b503d610685565b89513d8d823e3d90fd5b8751638f3ba46b60e01b81528490fd5b83516330cd747160e01b81528390fd5b5090516303cb96db60e21b8152fd5b833461071f5761071c6107176106f23661206a565b9261070761070283949333612330565b612257565b6107128383836123f8565b612787565b61230c565b80f35b80fd5b9190503461020a578060031936011261020a5761073d611f83565b90602435801515928382036107f9576001600160a01b0316933385146107b6575061078990338652600560205282862085600052602052826000209060ff801983541691151516179055565b519081527f17307eab39ab6107e8899845ad3d59bd9653f200f220920489ca2b5937696c3160203392a380f35b606490602084519162461bcd60e51b8352820152601960248201527f4552433732313a20617070726f766520746f2063616c6c6572000000000000006044820152fd5b8580fd5b82843461071f578060031936011261071f578151918160019283549384811c918186169586156108fa575b60209687851081146108e7578899509688969785829a5291826000146108c0575050600114610865575b505050610388929161037991038561202c565b91908693508083527fb10e2d527612073b26eecdfd717e6a320cf44b4afac2b0732d9fcbe2b7fa0cf65b8284106108a85750505082010181610379610388610852565b8054848a01860152889550879490930192810161088f565b60ff19168782015293151560051b8601909301935084925061037991506103889050610852565b634e487b7160e01b835260228a52602483fd5b92607f1692610828565b833461071f57608036600319011261071f5761071c610921611f83565b610929611f9e565b60643591602435906128a6565b5050346101a75760203660031901126101a75760209061095c610957611f83565b612130565b9051908152f35b82843461071f57602036600319011261071f5750610983602092356121f3565b90516001600160a01b039091168152f35b9190503461020a578060031936011261020a578135916109b2611fb4565b6002600a54146106ce576002600a556001600160a01b03806109d3866121f3565b1633036106be576109e38561297b565b84865285602093600c85528582209086516109fd81611ff4565b848354169081815260018401549088810191825260028501548a82015260ff846003870154966060840197885201541690608081019115158252877f000000000000000000000000000000000000000000000000000000000000000016918b5194639a76889b60e01b8652868601528a85602481865afa948515610c2d57908995949392918995610c0e575b505115610b30575b505050169151823b156104405787516340c10f1960e01b81526001600160a01b038716928101928352602083019190915291839183919082908490829060400103925af18015610b2657610b12575b50507ff6554c3a5d28e08c120b5a69c7edbaf52f935bd2596a60b8a18e282cd257cddb935191168152a26001600a5580f35b610b1b90611fca565b6107f9578538610ae0565b86513d84823e3d90fd5b909192938a9082511660248d5180958193633d1c564f60e11b83528a8301525afa918215610c04579088918893610be5575b5051169151823b15610660578a51632142170760e11b8152308682019081526001600160a01b039093166020840152604083019190915291869183919082908490829060600103925af18015610bdb578692918691610bc2575b80610a91565b610bce91929350611fca565b6104405784908438610bbc565b89513d87823e3d90fd5b610bfd9193508b3d8d1161069d5761068f818361202c565b9138610b62565b8b513d89823e3d90fd5b610c269195508c8d3d1061069d5761068f818361202c565b9338610a89565b8c513d8a823e3d90fd5b9190503461020a578060031936011261020a57813591610c55611fb4565b6002600a54146106ce576002600a55838552602091600c8352838620845191610c7d83611ff4565b60018060a01b039283835416815260018301549286820193845260ff83600283015492838b86015260038101546060860152015416906080830191151582524210610e555751610e465780518751639a76889b60e01b815290851681840152899392919087816024817f00000000000000000000000000000000000000000000000000000000000000008a165afa908115610bdb579086918691610e29575b5016803b1561062f5784809160448b518094819363079cc67960e41b83523389840152670de0b6b3a764000060248401525af18015610bdb578692918691610e10575b508a9052600c88528289862001600160ff1982541617905551169151823b15610440578751632142170760e11b8152309281019283526001600160a01b0387166020840152604083019190915291839183919082908490829060600103925af18015610b2657610dfc575b50507fada6b64841b7c51709c5fe6eff17b5f518b7f40244f7e03d0abcd52255d4dbe1935191168152a26001600a5580f35b610e0590611fca565b6107f9578538610dca565b610e1c91929350611fca565b6104405784908438610d5f565b610e409150893d8b1161069d5761068f818361202c565b38610d1c565b508551636507689f60e01b8152fd5b875163d0404f8560e01b81528390fd5b9050823461071f57602036600319011261071f5750803590600854821015610ea157602083610e93846127c9565b91905490519160031b1c8152f35b608490602084519162461bcd60e51b8352820152602c60248201527f455243373231456e756d657261626c653a20676c6f62616c20696e646578206f60448201526b7574206f6620626f756e647360a01b6064820152fd5b5050346101a75736600319011261071f5761071c610f15611f83565b339060243590612816565b9190503461020a57602080600319360112610440578235926002600a54146111b3576002600a556001600160a01b039081610f5a866121f3565b1633036111a557908591610f6d8661297b565b858352600c8452848320918551610f8381611ff4565b818454169081815260018501549087810191825260028601548982015260ff856003880154976060840198895201541690608081019115158252847f000000000000000000000000000000000000000000000000000000000000000016918a5194639a76889b60e01b8652878601528985602481865afa94851561119b57899561117c575b5051156110a5575b505050169151823b156104405785516340c10f1960e01b815233928101928352602083019190915291839183919082908490829060400103925af1801561109b57611087575b50507ff6554c3a5d28e08c120b5a69c7edbaf52f935bd2596a60b8a18e282cd257cddb9151338152a26001600a5580f35b61109090611fca565b610440578338611056565b84513d84823e3d90fd5b888582511660248c5180958193633d1c564f60e11b83528b8301525afa918215611172579085918993611153575b5051169151823b1561114f578951632142170760e11b8152308782019081526001600160a01b039093166020840152604083019190915291879183919082908490829060600103925af1801561114557908691611131575b80611010565b61113a90611fca565b61062f57843861112b565b88513d88823e3d90fd5b8780fd5b61116b9193508a3d8c1161069d5761068f818361202c565b91386110d3565b8a513d8a823e3d90fd5b6111949195508a3d8c1161069d5761068f818361202c565b9338611008565b8b513d8b823e3d90fd5b83516330cd747160e01b8152fd5b82516303cb96db60e21b8152fd5b5050346101a75761071761071c916111d8366120fb565b919251926111e584612010565b8684526107076107028433612330565b82843461071f578160031936011261071f5761120f611f83565b6024359061121c81612130565b82101561124a576001600160a01b031682526006602090815283832091835290815290829020548251908152f35b835162461bcd60e51b8152602081870152602b60248201527f455243373231456e756d657261626c653a206f776e657220696e646578206f7560448201526a74206f6620626f756e647360a81b6064820152608490fd5b8383346101a7576020908160031936011261020a578335916002600a54146114eb576002600a556001600160a01b03806112da856121f3565b1633036114db57838552600c8252828520958351916112f883611ff4565b80885416835260018801549284810193845260028901548682015260ff8360038b01549a606084019b8c5201541615158060808301526114cb5761133b8761297b565b80518651639a76889b60e01b81529083168482015285816024817f000000000000000000000000000000000000000000000000000000000000000087165afa9081156114c1579083918a916114a4575b50169851670de0b6b3a76400009081039081116114915789899a99969798993b1561066057885163079cc67960e41b8152338682019081526020810193909352918791839182908490829060400103925af180156111455790869161147d575b505051169151823b156104405760a484928388519586948593635c46a7ef60e11b855230908501523360248501526044840152608060648401528160848401525af1801561109b57611469575b50507f8353ffcac0876ad14e226d9783c04540bfebf13871e868157d2a391cad98e9189151338152a26001600a5580f35b61147290611fca565b610440578385611438565b61148690611fca565b61062f57848a6113eb565b634e487b7160e01b895260118452602489fd5b6114bb9150873d891161069d5761068f818361202c565b8b61138b565b87513d8b823e3d90fd5b8551638f3ba46b60e01b81528390fd5b82516330cd747160e01b81528690fd5b81516303cb96db60e21b81528590fd5b833461071f5761071c61150d366120fb565b9161151b6107028433612330565b6123f8565b9190503461020a57602080600319360112610440578235926002600a54146111b3576002600a55838552600c825282852090835161155d81611ff4565b60018060a01b039081845416815260018401549385820194855260ff84600283015492838a8601526003810154606086015201541690608083019115158252421061172657516117165780518651639a76889b60e01b81529083168185015288949392919086816024817f000000000000000000000000000000000000000000000000000000000000000087165afa9081156111455790839187916116f9575b5016803b156107f95785809160448a518094819363079cc67960e41b8352338a840152670de0b6b3a764000060248401525af18015611145579086916116e5575b50889052600c86528287862001600160ff1982541617905551169151823b15610440578551632142170760e11b815230928101928352336020840152604083019190915291839183919082908490829060600103925af1801561109b576116d1575b50507fada6b64841b7c51709c5fe6eff17b5f518b7f40244f7e03d0abcd52255d4dbe19151338152a26001600a5580f35b6116da90611fca565b6104405783386116a0565b6116ee90611fca565b61062f57843861163e565b6117109150883d8a1161069d5761068f818361202c565b386115fd565b8551636507689f60e01b81528390fd5b865163d0404f8560e01b81528490fd5b833461071f57606036600319011261071f5761071c611753611f83565b61175b611f9e565b9060243590612816565b5050346101a757816003193601126101a7576020906008549051908152f35b82843461071f576117943661206a565b95919092506002600a5414611c22576002600a558551908115611c1757508585918101031261020a5760208501516001600160a01b038116959086900361044057840151908515868115611c0d575b50611bff5781158015611bf5575b611be7575b8451639a76889b60e01b815233828201526020966001600160a01b039160249190898184817f000000000000000000000000000000000000000000000000000000000000000088165afa908115611bdd579084918991611bc0575b5016948515611bb057600197888201808311611b9e57670de0b6b3a7640000908082029082820403611b8c576014900497888203918211611b8c57803b1561020a578b516340c10f1960e01b81526001600160a01b038616818a019081526020810193909352918391839182908490829060400103925af18015611b8257611b73575b509088600b54019081600b556301e1338090818102918183041490151715611b6157420196874211611b4d578b878a9361197d938b8f8f9080600c8e92519861191c8a611ff4565b338a52808a019b8c52828a0195865260608a0196875260808a01978d89528d52528a20965116976001600160601b0360a01b9889885416178755519086015551600285015551600384015551151591019060ff801983541691151516179055565b600b54938a519561198d87612010565b8387528416968715611b0e576000868152600260205260409020548d9291906119c2906001600160a01b031615155b1561292f565b6009600854938860005252828d60002055600160401b831015611afb57505093868193611ab9979593828f8f908f9081611a2389611a0a6107179f60029681016008556127c9565b90919082549060031b91821b91600019901b1916179055565b611a2c8a612130565b85600052600683528460002081600052835289856000205589600052600783528460002055611a736119bc8a600052600260205260018060a01b0360406000205416151590565b84875260038252838720908154019055878652528320918254161790557fddf252ad1be2c89b69c2b068fc378daa952ba7f163c4a11628f55a4df523b3ef8180a461266b565b600b54908551928352868301527f92c4ae82457b93c1cf331ba7edc25c42b279a02ae829e0c61d148a945eabf675853393a4600a5551630a85bd0160e11b8152f35b604190634e487b7160e01b600052526000fd5b8c606492818e519362461bcd60e51b85528401528201527f4552433732313a206d696e7420746f20746865207a65726f20616464726573736044820152fd5b84601188634e487b7160e01b600052526000fd5b634e487b7160e01b8352601187528483fd5b611b7c90611fca565b8b6118d4565b8b513d84823e3d90fd5b634e487b7160e01b8352601188528583fd5b634e487b7160e01b8252601187528482fd5b8851630d4203cb60e41b81528590fd5b611bd791508b3d8d1161069d5761068f818361202c565b8b611851565b89513d8a823e3d90fd5b845163629166db60e11b8152fd5b50600382116117f1565b845163c33b691760e01b8152fd5b90503014876117e3565b9550506001906117f6565b5083516303cb96db60e21b8152fd5b833461071f57606036600319011261071f5761071c611c4e611f83565b604435903390602435906128a6565b90503461020a578160031936011261020a57611c77611f83565b6024359290916001600160a01b0391908280611c92876121f3565b16941693808514611d7e57803314908115611d5f575b5015611cf757848652602052842080546001600160a01b03191683179055611ccf836121f3565b167f8c5be1e5ebec7d5bd14f71427d1e84f3dd0314c0f7b2291e5b200ac8c7c3b9258480a480f35b6020608492519162461bcd60e51b8352820152603d60248201527f4552433732313a20617070726f76652063616c6c6572206973206e6f7420746f60448201527f6b656e206f776e6572206f7220617070726f76656420666f7220616c6c0000006064820152fd5b90508652600560205281862033875260205260ff828720541638611ca8565b506020608492519162461bcd60e51b8352820152602160248201527f4552433732313a20617070726f76616c20746f2063757272656e74206f776e656044820152603960f91b6064820152fd5b82843461071f57602036600319011261071f575061098360209235612219565b82843461071f578060031936011261071f5781519181825492600184811c91818616958615611eac575b60209687851081146108e7578899509688969785829a5291826000146108c0575050600114611e5157505050610388929161037991038561202c565b91908693508280527f290decd9548b62a8d60345a988386fc84ba6bc95484008f6362f93160ef3e5635b828410611e945750505082010181610379610388610852565b8054848a018601528895508794909301928101611e7b565b92607f1692611e15565b84913461020a57602036600319011261020a573563ffffffff60e01b811680910361020a576020925063780e9d6360e01b8114908115611ef8575b5015158152f35b6380ac58cd60e01b811491508115611f2a575b8115611f19575b5083611ef1565b6301ffc9a760e01b14905083611f12565b635b5e139f60e01b81149150611f0b565b60005b838110611f4e5750506000910152565b8181015183820152602001611f3e565b90602091611f7781518092818552858086019101611f3b565b601f01601f1916010190565b600435906001600160a01b0382168203611f9957565b600080fd5b604435906001600160a01b0382168203611f9957565b602435906001600160a01b0382168203611f9957565b67ffffffffffffffff8111611fde57604052565b634e487b7160e01b600052604160045260246000fd5b60a0810190811067ffffffffffffffff821117611fde57604052565b6020810190811067ffffffffffffffff821117611fde57604052565b90601f8019910116810190811067ffffffffffffffff821117611fde57604052565b67ffffffffffffffff8111611fde57601f01601f191660200190565b906080600319830112611f99576001600160a01b03916004358381168103611f9957926024359081168103611f9957916044359160643567ffffffffffffffff8111611f995781602382011215611f99578060040135906120ca8261204e565b926120d8604051948561202c565b82845260248383010111611f995781600092602460209301838601378301015290565b6060906003190112611f99576001600160a01b03906004358281168103611f9957916024359081168103611f99579060443590565b6001600160a01b0316801561215057600052600360205260406000205490565b60405162461bcd60e51b815260206004820152602960248201527f4552433732313a2061646472657373207a65726f206973206e6f7420612076616044820152683634b21037bbb732b960b91b6064820152608490fd5b156121ae57565b60405162461bcd60e51b815260206004820152601860248201527f4552433732313a20696e76616c696420746f6b656e20494400000000000000006044820152606490fd5b6000908152600260205260409020546001600160a01b03166122168115156121a7565b90565b60008181526002602052604090205461223c906001600160a01b031615156121a7565b6000908152600460205260409020546001600160a01b031690565b1561225e57565b60405162461bcd60e51b815260206004820152602d60248201527f4552433732313a2063616c6c6572206973206e6f7420746f6b656e206f776e6560448201526c1c881bdc88185c1c1c9bdd9959609a1b6064820152608490fd5b60809060208152603260208201527f4552433732313a207472616e7366657220746f206e6f6e20455243373231526560408201527131b2b4bb32b91034b6b83632b6b2b73a32b960711b60608201520190565b1561231357565b60405162461bcd60e51b81528061232c600482016122b9565b0390fd5b906001600160a01b038080612344846121f3565b16931691838314938415612377575b508315612361575b50505090565b61236d91929350612219565b161438808061235b565b909350600052600560205260406000208260005260205260ff604060002054169238612353565b156123a557565b60405162461bcd60e51b815260206004820152602560248201527f4552433732313a207472616e736665722066726f6d20696e636f72726563742060448201526437bbb732b960d91b6064820152608490fd5b61241c91612405846121f3565b6001600160a01b039384841693918516841461239e565b8382169384156125e957839182612530575090506008549085600052600960205281604060002055600160401b821015611fde576124829261246987611a0a8560018997016008556127c9565b8286036124fd575b5061247b866121f3565b161461239e565b7fddf252ad1be2c89b69c2b068fc378daa952ba7f163c4a11628f55a4df523b3ef60008481526004602052604081206001600160601b0360a01b9081815416905583825260036020526040822060001981540190558482526040822060018154019055858252600260205284604083209182541617905580a4565b61250690612130565b60406000878152600660205281812083825260205288828220558881526007602052205538612471565b858303612542575b5061248292612469565b61254d919250612130565b6000198101919082116125d357612482928492600090888252602090600782526040918284205482810361259c575b508a84528383812055868452600681528284209184525281205592612538565b878552600682528385208386528252838520548886526006835284862082875283528085872055855260078252838520553861257c565b634e487b7160e01b600052601160045260246000fd5b60405162461bcd60e51b8152602060048201526024808201527f4552433732313a207472616e7366657220746f20746865207a65726f206164646044820152637265737360e01b6064820152608490fd5b6001600160a01b03918216815291166020820152604081019190915260806060820181905261221692910190611f5e565b9192600092909190803b1561277d576126b9946040518092630a85bd0160e11b9485835233600484015287602484015260448301526080606483015281878160209a8b966084830190611f5e565b03926001600160a01b03165af184918161273d575b5061272c575050503d600014612724573d6126e88161204e565b906126f6604051928361202c565b81528091833d92013e5b805191826127215760405162461bcd60e51b81528061232c600482016122b9565b01fd5b506060612700565b6001600160e01b0319161492509050565b9091508581813d8311612776575b612755818361202c565b8101031261062f57516001600160e01b03198116810361062f5790386126ce565b503d61274b565b5050915050600190565b91936000939092909190813b156127be5760405180928187816126b9630a85bd0160e11b9889835260209c8d98336004860161263a565b505050915050600190565b6008548110156128005760086000527ff3f7a9fe364faab93b216da50a3214154f22a0a2b415b23a84c8169e8b636ee30190600090565b634e487b7160e01b600052603260045260246000fd5b604080516001600160a01b039485166020820152600181830152908152606081019390911667ffffffffffffffff841182851017611fde5783604052803b15611f995783600080948294635c46a7ef60e11b845261287d81605f199330336064840161263a565b0301925af1801561289a5761288f5750565b61289890611fca565b565b6040513d6000823e3d90fd5b604080516001600160a01b039485166020820152808201959095528452909116916128d260608261202c565b823b15611f99576128ff9260009283604051809681958294635c46a7ef60e11b845230336004860161263a565b03925af1801561289a5761288f5750565b90816020910312611f9957516001600160a01b0381168103611f995790565b1561293657565b60405162461bcd60e51b815260206004820152601c60248201527f4552433732313a20746f6b656e20616c7265616479206d696e746564000000006044820152606490fd5b612984816121f3565b6001600160a01b03908082169081612ac757505060085482600052600960205280604060002055600160401b811015611fde5782611a0a8260016129cb94016008556127c9565b60085460001980820192909183116125d35760009284845260096020526040906129f882862054916127c9565b90549060031b1c612a0c81611a0a846127c9565b855260096020528185205584845283818120556008548015612ab3578301612a33816127c9565b8582549160031b1b19169055600855612a4b856121f3565b918585526004602052818520926001600160601b0360a01b9384815416905516928385526003602052818520908154019055848452600260205283209081541690557fddf252ad1be2c89b69c2b068fc378daa952ba7f163c4a11628f55a4df523b3ef8280a4565b634e487b7160e01b85526031600452602485fd5b612ad090612130565b6000198101919082116125d35760009184835260206007815260409283852054838103612b16575b508685528484812055845260068152828420918452528120556129cb565b8186526006835284862084875283528486205482875260068452858720828852845280868820558652600783528486205538612af856fea164736f6c6343000812000a",
  "linkReferences": {},
  "deployedLinkReferences": {}
}