{
    "_format": "hh-sol-artifact-1",
    "contractName": "Safe",
    "sourceName": "contracts/Safe.sol",
    "abi": [
        {
            "inputs": [],
            "stateMutability": "nonpayable",
            "type": "constructor"
        },
        {
            "inputs": [],
            "name": "AlreadyWithdrawn",
            "type": "error"
        },
        {
            "inputs": [],
            "name": "CollectionNotTokenized",
            "type": "error"
        },
        {
            "inputs": [],
            "name": "ExpiredAndWithdrawn",
            "type": "error"
        },
        {
            "inputs": [],
            "name": "IncorrectExpiration",
            "type": "error"
        },
        {
            "inputs": [],
            "name": "IncorrectReceiver",
            "type": "error"
        },
        {
            "inputs": [],
            "name": "Locked",
            "type": "error"
        },
        {
            "inputs": [],
            "name": "NotExpired",
            "type": "error"
        },
        {
            "inputs": [],
            "name": "NotOwner",
            "type": "error"
        },
        {
            "inputs": [],
            "name": "PremiumExpired",
            "type": "error"
        },
        {
            "anonymous": false,
            "inputs": [
                {
                    "indexed": true,
                    "internalType": "address",
                    "name": "owner",
                    "type": "address"
                },
                {
                    "indexed": true,
                    "internalType": "address",
                    "name": "approved",
                    "type": "address"
                },
                {
                    "indexed": true,
                    "internalType": "uint256",
                    "name": "tokenId",
                    "type": "uint256"
                }
            ],
            "name": "Approval",
            "type": "event"
        },
        {
            "anonymous": false,
            "inputs": [
                {
                    "indexed": true,
                    "internalType": "address",
                    "name": "owner",
                    "type": "address"
                },
                {
                    "indexed": true,
                    "internalType": "address",
                    "name": "operator",
                    "type": "address"
                },
                {
                    "indexed": false,
                    "internalType": "bool",
                    "name": "approved",
                    "type": "bool"
                }
            ],
            "name": "ApprovalForAll",
            "type": "event"
        },
        {
            "anonymous": false,
            "inputs": [
                {
                    "indexed": true,
                    "internalType": "uint256",
                    "name": "id",
                    "type": "uint256"
                },
                {
                    "indexed": true,
                    "internalType": "address",
                    "name": "collection",
                    "type": "address"
                },
                {
                    "indexed": true,
                    "internalType": "uint256",
                    "name": "tokenId",
                    "type": "uint256"
                },
                {
                    "indexed": false,
                    "internalType": "address",
                    "name": "to",
                    "type": "address"
                }
            ],
            "name": "Burn",
            "type": "event"
        },
        {
            "anonymous": false,
            "inputs": [
                {
                    "indexed": true,
                    "internalType": "uint256",
                    "name": "id",
                    "type": "uint256"
                },
                {
                    "indexed": true,
                    "internalType": "address",
                    "name": "collection",
                    "type": "address"
                },
                {
                    "indexed": true,
                    "internalType": "uint256",
                    "name": "tokenId",
                    "type": "uint256"
                },
                {
                    "indexed": false,
                    "internalType": "uint256",
                    "name": "expiration",
                    "type": "uint256"
                },
                {
                    "indexed": false,
                    "internalType": "address",
                    "name": "to",
                    "type": "address"
                }
            ],
            "name": "Deposit",
            "type": "event"
        },
        {
            "anonymous": false,
            "inputs": [
                {
                    "indexed": true,
                    "internalType": "uint256",
                    "name": "id",
                    "type": "uint256"
                },
                {
                    "indexed": true,
                    "internalType": "address",
                    "name": "collection",
                    "type": "address"
                },
                {
                    "indexed": true,
                    "internalType": "uint256",
                    "name": "tokenId",
                    "type": "uint256"
                },
                {
                    "indexed": false,
                    "internalType": "address",
                    "name": "to",
                    "type": "address"
                }
            ],
            "name": "ExpiredBought",
            "type": "event"
        },
        {
            "anonymous": false,
            "inputs": [
                {
                    "indexed": true,
                    "internalType": "address",
                    "name": "from",
                    "type": "address"
                },
                {
                    "indexed": true,
                    "internalType": "address",
                    "name": "to",
                    "type": "address"
                },
                {
                    "indexed": true,
                    "internalType": "uint256",
                    "name": "tokenId",
                    "type": "uint256"
                }
            ],
            "name": "Transfer",
            "type": "event"
        },
        {
            "anonymous": false,
            "inputs": [
                {
                    "indexed": true,
                    "internalType": "uint256",
                    "name": "id",
                    "type": "uint256"
                },
                {
                    "indexed": true,
                    "internalType": "address",
                    "name": "collection",
                    "type": "address"
                },
                {
                    "indexed": true,
                    "internalType": "uint256",
                    "name": "tokenId",
                    "type": "uint256"
                },
                {
                    "indexed": false,
                    "internalType": "address",
                    "name": "to",
                    "type": "address"
                }
            ],
            "name": "Withdraw",
            "type": "event"
        },
        {
            "inputs": [
                {
                    "internalType": "address",
                    "name": "to",
                    "type": "address"
                },
                {
                    "internalType": "uint256",
                    "name": "tokenId",
                    "type": "uint256"
                }
            ],
            "name": "approve",
            "outputs": [],
            "stateMutability": "nonpayable",
            "type": "function"
        },
        {
            "inputs": [
                {
                    "internalType": "address",
                    "name": "owner",
                    "type": "address"
                }
            ],
            "name": "balanceOf",
            "outputs": [
                {
                    "internalType": "uint256",
                    "name": "",
                    "type": "uint256"
                }
            ],
            "stateMutability": "view",
            "type": "function"
        },
        {
            "inputs": [
                {
                    "internalType": "uint256",
                    "name": "tokenId",
                    "type": "uint256"
                }
            ],
            "name": "burn",
            "outputs": [],
            "stateMutability": "nonpayable",
            "type": "function"
        },
        {
            "inputs": [
                {
                    "internalType": "uint256",
                    "name": "tokenId",
                    "type": "uint256"
                },
                {
                    "internalType": "address",
                    "name": "to",
                    "type": "address"
                }
            ],
            "name": "burnTo",
            "outputs": [],
            "stateMutability": "nonpayable",
            "type": "function"
        },
        {
            "inputs": [
                {
                    "internalType": "uint256",
                    "name": "tokenId",
                    "type": "uint256"
                }
            ],
            "name": "buyExpired",
            "outputs": [],
            "stateMutability": "nonpayable",
            "type": "function"
        },
        {
            "inputs": [
                {
                    "internalType": "uint256",
                    "name": "tokenId",
                    "type": "uint256"
                },
                {
                    "internalType": "address",
                    "name": "to",
                    "type": "address"
                }
            ],
            "name": "buyExpiredTo",
            "outputs": [],
            "stateMutability": "nonpayable",
            "type": "function"
        },
        {
            "inputs": [
                {
                    "internalType": "address",
                    "name": "collection",
                    "type": "address"
                },
                {
                    "internalType": "uint256",
                    "name": "tokenId",
                    "type": "uint256"
                },
                {
                    "internalType": "uint256",
                    "name": "securityYears",
                    "type": "uint256"
                }
            ],
            "name": "deposit",
            "outputs": [],
            "stateMutability": "nonpayable",
            "type": "function"
        },
        {
            "inputs": [
                {
                    "internalType": "address",
                    "name": "collection",
                    "type": "address"
                },
                {
                    "internalType": "uint256",
                    "name": "tokenId",
                    "type": "uint256"
                }
            ],
            "name": "deposit",
            "outputs": [],
            "stateMutability": "nonpayable",
            "type": "function"
        },
        {
            "inputs": [
                {
                    "internalType": "address",
                    "name": "collection",
                    "type": "address"
                },
                {
                    "internalType": "uint256",
                    "name": "tokenId",
                    "type": "uint256"
                },
                {
                    "internalType": "address",
                    "name": "to",
                    "type": "address"
                }
            ],
            "name": "depositTo",
            "outputs": [],
            "stateMutability": "nonpayable",
            "type": "function"
        },
        {
            "inputs": [
                {
                    "internalType": "address",
                    "name": "collection",
                    "type": "address"
                },
                {
                    "internalType": "uint256",
                    "name": "tokenId",
                    "type": "uint256"
                },
                {
                    "internalType": "address",
                    "name": "to",
                    "type": "address"
                },
                {
                    "internalType": "uint256",
                    "name": "securityYears",
                    "type": "uint256"
                }
            ],
            "name": "depositTo",
            "outputs": [],
            "stateMutability": "nonpayable",
            "type": "function"
        },
        {
            "inputs": [
                {
                    "internalType": "uint256",
                    "name": "tokenId",
                    "type": "uint256"
                }
            ],
            "name": "getApproved",
            "outputs": [
                {
                    "internalType": "address",
                    "name": "",
                    "type": "address"
                }
            ],
            "stateMutability": "view",
            "type": "function"
        },
        {
            "inputs": [
                {
                    "internalType": "address",
                    "name": "owner",
                    "type": "address"
                },
                {
                    "internalType": "address",
                    "name": "operator",
                    "type": "address"
                }
            ],
            "name": "isApprovedForAll",
            "outputs": [
                {
                    "internalType": "bool",
                    "name": "",
                    "type": "bool"
                }
            ],
            "stateMutability": "view",
            "type": "function"
        },
        {
            "inputs": [],
            "name": "name",
            "outputs": [
                {
                    "internalType": "string",
                    "name": "",
                    "type": "string"
                }
            ],
            "stateMutability": "view",
            "type": "function"
        },
        {
            "inputs": [
                {
                    "internalType": "address",
                    "name": "",
                    "type": "address"
                },
                {
                    "internalType": "address",
                    "name": "from",
                    "type": "address"
                },
                {
                    "internalType": "uint256",
                    "name": "tokenId",
                    "type": "uint256"
                },
                {
                    "internalType": "bytes",
                    "name": "data",
                    "type": "bytes"
                }
            ],
            "name": "onERC721Received",
            "outputs": [
                {
                    "internalType": "bytes4",
                    "name": "",
                    "type": "bytes4"
                }
            ],
            "stateMutability": "nonpayable",
            "type": "function"
        },
        {
            "inputs": [
                {
                    "internalType": "uint256",
                    "name": "tokenId",
                    "type": "uint256"
                }
            ],
            "name": "ownerOf",
            "outputs": [
                {
                    "internalType": "address",
                    "name": "",
                    "type": "address"
                }
            ],
            "stateMutability": "view",
            "type": "function"
        },
        {
            "inputs": [
                {
                    "internalType": "address",
                    "name": "from",
                    "type": "address"
                },
                {
                    "internalType": "address",
                    "name": "to",
                    "type": "address"
                },
                {
                    "internalType": "uint256",
                    "name": "tokenId",
                    "type": "uint256"
                }
            ],
            "name": "safeTransferFrom",
            "outputs": [],
            "stateMutability": "nonpayable",
            "type": "function"
        },
        {
            "inputs": [
                {
                    "internalType": "address",
                    "name": "from",
                    "type": "address"
                },
                {
                    "internalType": "address",
                    "name": "to",
                    "type": "address"
                },
                {
                    "internalType": "uint256",
                    "name": "tokenId",
                    "type": "uint256"
                },
                {
                    "internalType": "bytes",
                    "name": "data",
                    "type": "bytes"
                }
            ],
            "name": "safeTransferFrom",
            "outputs": [],
            "stateMutability": "nonpayable",
            "type": "function"
        },
        {
            "inputs": [
                {
                    "internalType": "address",
                    "name": "operator",
                    "type": "address"
                },
                {
                    "internalType": "bool",
                    "name": "approved",
                    "type": "bool"
                }
            ],
            "name": "setApprovalForAll",
            "outputs": [],
            "stateMutability": "nonpayable",
            "type": "function"
        },
        {
            "inputs": [
                {
                    "internalType": "bytes4",
                    "name": "interfaceId",
                    "type": "bytes4"
                }
            ],
            "name": "supportsInterface",
            "outputs": [
                {
                    "internalType": "bool",
                    "name": "",
                    "type": "bool"
                }
            ],
            "stateMutability": "view",
            "type": "function"
        },
        {
            "inputs": [],
            "name": "symbol",
            "outputs": [
                {
                    "internalType": "string",
                    "name": "",
                    "type": "string"
                }
            ],
            "stateMutability": "view",
            "type": "function"
        },
        {
            "inputs": [
                {
                    "internalType": "uint256",
                    "name": "index",
                    "type": "uint256"
                }
            ],
            "name": "tokenByIndex",
            "outputs": [
                {
                    "internalType": "uint256",
                    "name": "",
                    "type": "uint256"
                }
            ],
            "stateMutability": "view",
            "type": "function"
        },
        {
            "inputs": [
                {
                    "internalType": "address",
                    "name": "owner",
                    "type": "address"
                },
                {
                    "internalType": "uint256",
                    "name": "index",
                    "type": "uint256"
                }
            ],
            "name": "tokenOfOwnerByIndex",
            "outputs": [
                {
                    "internalType": "uint256",
                    "name": "",
                    "type": "uint256"
                }
            ],
            "stateMutability": "view",
            "type": "function"
        },
        {
            "inputs": [
                {
                    "internalType": "uint256",
                    "name": "tokenId",
                    "type": "uint256"
                }
            ],
            "name": "tokenURI",
            "outputs": [
                {
                    "internalType": "string",
                    "name": "",
                    "type": "string"
                }
            ],
            "stateMutability": "view",
            "type": "function"
        },
        {
            "inputs": [],
            "name": "totalSupply",
            "outputs": [
                {
                    "internalType": "uint256",
                    "name": "",
                    "type": "uint256"
                }
            ],
            "stateMutability": "view",
            "type": "function"
        },
        {
            "inputs": [
                {
                    "internalType": "address",
                    "name": "from",
                    "type": "address"
                },
                {
                    "internalType": "address",
                    "name": "to",
                    "type": "address"
                },
                {
                    "internalType": "uint256",
                    "name": "tokenId",
                    "type": "uint256"
                }
            ],
            "name": "transferFrom",
            "outputs": [],
            "stateMutability": "nonpayable",
            "type": "function"
        },
        {
            "inputs": [
                {
                    "internalType": "uint256",
                    "name": "",
                    "type": "uint256"
                }
            ],
            "name": "underlyings",
            "outputs": [
                {
                    "internalType": "address",
                    "name": "collection",
                    "type": "address"
                },
                {
                    "internalType": "uint256",
                    "name": "id",
                    "type": "uint256"
                },
                {
                    "internalType": "uint256",
                    "name": "deadline",
                    "type": "uint256"
                },
                {
                    "internalType": "uint256",
                    "name": "value",
                    "type": "uint256"
                },
                {
                    "internalType": "bool",
                    "name": "withdrawn",
                    "type": "bool"
                }
            ],
            "stateMutability": "view",
            "type": "function"
        },
        {
            "inputs": [
                {
                    "internalType": "uint256",
                    "name": "tokenId",
                    "type": "uint256"
                }
            ],
            "name": "withdraw",
            "outputs": [],
            "stateMutability": "nonpayable",
            "type": "function"
        },
        {
            "inputs": [
                {
                    "internalType": "uint256",
                    "name": "tokenId",
                    "type": "uint256"
                },
                {
                    "internalType": "address",
                    "name": "to",
                    "type": "address"
                }
            ],
            "name": "withdrawTo",
            "outputs": [],
            "stateMutability": "nonpayable",
            "type": "function"
        }
    ],
    "bytecode": "0x60a0346200034b576001600160401b03906040908082018381118282101762000335578252600c81526020926b5072656d69756d205361666560a01b848301528251838101818110838211176200033557845260058152645f5341464560d81b85820152825190828211620003355760008054926001958685811c951680156200032a575b8986101462000316578190601f95868111620002c3575b5089908683116001146200025f57849262000253575b5050600019600383901b1c191690861b1781555b81519384116200023f5784548581811c9116801562000234575b888210146200022057838111620001d8575b5086928411600114620001725783949596509262000166575b5050600019600383901b1c191690821b1781555b600a553360805251612b28908162000351823960805181818161050301528181610a3001528181610ce601528181610fb9015281816113330152818161159001526117e70152f35b0151905038806200010a565b9190601f1984169685845280842093905b888210620001c05750508385969710620001a6575b505050811b0181556200011e565b015160001960f88460031b161c1916905538808062000198565b80878596829496860151815501950193019062000183565b8582528782208480870160051c8201928a881062000216575b0160051c019086905b8281106200020a575050620000f1565b838155018690620001fa565b92508192620001f1565b634e487b7160e01b82526022600452602482fd5b90607f1690620000df565b634e487b7160e01b81526041600452602490fd5b015190503880620000b1565b8480528a85208994509190601f198416865b8d828210620002ac575050841162000292575b505050811b018155620000c5565b015160001960f88460031b161c1916905538808062000284565b8385015186558c9790950194938401930162000271565b9091508380528984208680850160051c8201928c86106200030c575b918a91869594930160051c01915b828110620002fd5750506200009b565b8681558594508a9101620002ed565b92508192620002df565b634e487b7160e01b83526022600452602483fd5b94607f169462000084565b634e487b7160e01b600052604160045260246000fd5b600080fdfe608060408181526004918236101561001657600080fd5b600092833560e01c91826301ffc9a714611e805750816306fdde0314611db5578163081812fc14611d95578163095ea7b314611c275781630efe6a8b14611bfb578163150b7a021461174e57816318160ddd1461172f57816320acd9f314611700578163229cab1f146114e957816323b872dd146114c45781632e1a7d4d1461127c5781632f745c59146111d057816342842e0e1461119c57816342966c6814610f1c57816347e7ef2414610ef55781634f6ccce714610e615781635690562014610c38578163571ff20d1461098b5781636352211e1461095a57816370a082311461092d57816390b8e1c9146108fb57816395d89b41146107f4578163a22cb46514610719578163b88d4fde146106d4578163c86283c814610444578163c87b56dd1461020e578163cea0252e146101ab575063e985e9c51461015957600080fd5b346101a757806003193601126101a757602091610174611f4d565b8261017d611f7e565b9260018060a01b03809316815260058652209116600052825260ff81600020541690519015158152f35b5080fd5b9190503461020a57602036600319011261020a578060a09383358152600c60205220600180851b038154169260018201549260ff6002840154926003850154940154169381519586526020860152840152606083015215156080820152f35b8280fd5b90503461020a576020908160031936011261044057819293813561024f61024a82600052600260205260018060a01b0360406000205416151590565b612171565b85519261025b84611fda565b82845282156104235781829184937a184f03e93ff9f4daa797ed6e38ed64bf6a1f0100000000000000009081811015610416575b5050866d04ee2d6d415b85acef810000000080851015610408575b5050662386f26fc10000808410156103f9575b506305f5e100808410156103ea575b50612710808410156103dc575b505060648210156103cc575b600a809210156103c2575b60219088936001928161031d8580940161031561030c82612018565b9951998a611ff6565b808952612018565b878b019890601f1901368a3750860101905b61038c575b505050509261036b9261037792610388958851958361035c8895518092888089019101611f05565b84019151809386840190611f05565b01038084520182611ff6565b925b51928284938452830190611f28565b0390f35b600019019083906f181899199a1a9b1b9c1cb0b131b232b360811b8282061a8353049182156103bd5791908261032f565b610334565b91600101916102f0565b91906064600291049101916102e5565b9301929091049038806102d9565b600891949304920192386102cc565b601091949304920192386102bd565b9401939092049186386102aa565b8a9550049250388061028f565b5050505050610388825161043681611fda565b6000815292610379565b8380fd5b90503461020a578160031936011261020a578035610460611f7e565b916002600a54146106c6576002600a556001600160a01b039283610483846121bd565b1633036106b757828652602090600c8252858720948651936104a485611fbe565b81875416855260018701549684860197885260028101548987015260ff826003830154926060890193845201541615158060808801526106a8576104e787612949565b85518951639a76889b60e01b81529084168382015285816024817f000000000000000000000000000000000000000000000000000000000000000088165afa801561069e5784918c91610671575b5016905190670de0b6b3a764000091820391821161065e5790818b93923b15610440578a5163079cc67960e41b8152338482019081526020810193909352918491839182908490829060400103925af1908115610654578391610640575b50508286511690885194823b156104405760a484928387958e519687958694635c46a7ef60e11b8652309086015216998a60248501526044840152608060648401528160848401525af180156106365761061e575b50507fb74e6733b1eee40d5d60495b99d8e13a7170ef32a66e78a3daa7b781dca3467e93511694519551908152a46001600a5580f35b61062790611f94565b6106325787386105e8565b8780fd5b89513d84823e3d90fd5b61064990611f94565b6101a7578138610593565b8a513d85823e3d90fd5b634e487b7160e01b8b526011835260248bfd5b6106919150873d8911610697575b6106898183611ff6565b8101906128de565b38610535565b503d61067f565b8a513d8d823e3d90fd5b508751638f3ba46b60e01b8152fd5b5083516330cd747160e01b8152fd5b83516303cb96db60e21b8152fd5b83346107165761071361070e6106e936612034565b926106fe6106f9839493336122fa565b612221565b6107098383836123c2565b612755565b6122d6565b80f35b80fd5b9190503461020a578060031936011261020a57610734611f4d565b90602435801515928382036107f0576001600160a01b0316933385146107ad575061078090338652600560205282862085600052602052826000209060ff801983541691151516179055565b519081527f17307eab39ab6107e8899845ad3d59bd9653f200f220920489ca2b5937696c3160203392a380f35b606490602084519162461bcd60e51b8352820152601960248201527f4552433732313a20617070726f766520746f2063616c6c6572000000000000006044820152fd5b8580fd5b8284346107165780600319360112610716578151918160019283549384811c918186169586156108f1575b60209687851081146108de578899509688969785829a5291826000146108b757505060011461085c575b5050506103889291610379910385611ff6565b91908693508083527fb10e2d527612073b26eecdfd717e6a320cf44b4afac2b0732d9fcbe2b7fa0cf65b82841061089f5750505082010181610379610388610849565b8054848a018601528895508794909301928101610886565b60ff19168782015293151560051b8601909301935084925061037991506103889050610849565b634e487b7160e01b835260228a52602483fd5b92607f169261081f565b833461071657608036600319011261071657610713610918611f4d565b610920611f68565b6064359160243590612874565b5050346101a75760203660031901126101a75760209061095361094e611f4d565b6120fa565b9051908152f35b828434610716576020366003190112610716575061097a602092356121bd565b90516001600160a01b039091168152f35b90503461020a578160031936011261020a5780356109a7611f7e565b6002600a5414610c28576002600a556001600160a01b0390816109c9846121bd565b163303610c18576109d983612949565b828652602090600c825285872092878751946109f486611fbe565b8281541697888752600182015498868801998a5260028301548b89015260ff8260038501549460608b01958652015416608089019015158152857f0000000000000000000000000000000000000000000000000000000000000000168c5192639a76889b60e01b8452848401528883602481845afa918215610c0e5787938793610bef575b505115610b1a575b50169151823b15610440578a516340c10f1960e01b81526001600160a01b038716928101928352602083019190915291839183919082908490829060400103925af1801561063657610b06575b5050807f4b4ec05c7eec399d79cfb183d0c3f518b7c0932ad7e7c70f02c7fd086c0af2569451169551965191168152a46001600a5580f35b610b0f90611f94565b610632578738610ace565b89518d51633d1c564f60e11b81529316848401528890839060249082905afa918215610bc2578592610bd0575b5085895116918b51833b15610bcc578d51632142170760e11b8152308682019081526001600160a01b039093166020840152604083019190915292869184919082908490829060600103925af18015610bc25786928691610ba9575b50610a81565b610bb591929350611f94565b6104405784908438610ba3565b8c513d87823e3d90fd5b8680fd5b610be8919250883d8a11610697576106898183611ff6565b9038610b47565b610c079193508a3d8c11610697576106898183611ff6565b9138610a79565b8d513d88823e3d90fd5b84516330cd747160e01b81528490fd5b83516303cb96db60e21b81528390fd5b90503461020a578160031936011261020a578035610c54611f7e565b916002600a54146106c6576002600a558185526020600c815284862093855192610c7d84611fbe565b60018060a01b039081875416855260018701549684860197885260ff82600283015492838c8a0152600381015460608a0152015416906080870191151582524210610e525751610e445784518851639a76889b60e01b81529083168183015289919085816024817f000000000000000000000000000000000000000000000000000000000000000088165afa80156106545784918491610e27575b5016803b1561020a5782809160448c518094819363079cc67960e41b83523388840152670de0b6b3a764000060248401525af1908115610654578391610e13575b50879052600c85528089832001600160ff1982541617905582865116908851823b15610440578a51632142170760e11b8152309281019283526001600160a01b0387166020840152604083019190915291839183919082908490829060600103925af1801561063657610dff575b5050807f4067d1896fc795faaa5cd30c8e613fc8536d369fd2f50d47957f9326cec6dff59451169551965191168152a46001600a5580f35b610e0890611f94565b610632578738610dc7565b610e1c90611f94565b6101a7578138610d59565b610e3e9150873d8911610697576106898183611ff6565b38610d18565b8751636507689f60e01b8152fd5b50875163d0404f8560e01b8152fd5b905082346107165760203660031901126107165750803590600854821015610e9d57602083610e8f84612797565b91905490519160031b1c8152f35b608490602084519162461bcd60e51b8352820152602c60248201527f455243373231456e756d657261626c653a20676c6f62616c20696e646578206f60448201526b7574206f6620626f756e647360a01b6064820152fd5b5050346101a75736600319011261071657610713610f11611f4d565b3390602435906127e4565b90503461020a57602080600319360112610440578135906002600a5414610c28576002600a556001600160a01b039081610f55846121bd565b163303610c1857610f6583612949565b828652600c81528486209186865193610f7d85611fbe565b828154169687865260018201549785870198895260028301548a88015260ff8260038501549460608a01958652015416608088019015158152857f0000000000000000000000000000000000000000000000000000000000000000168b5192639a76889b60e01b8452848401528783602481845afa9182156111925787938793611173575b5051156110a2575b50169151823b156104405789516340c10f1960e01b815233928101928352602083019190915291839183919082908490829060400103925af1801561109857611084575b50507f4b4ec05c7eec399d79cfb183d0c3f518b7c0932ad7e7c70f02c7fd086c0af25692511693519451338152a46001600a5580f35b61108d90611f94565b610bcc57863861104e565b88513d84823e3d90fd5b88518c51633d1c564f60e11b81529316848401528790839060249082905afa91821561114a578592611154575b5085885116918a51833b15610bcc578c51632142170760e11b8152308682019081526001600160a01b039093166020840152604083019190915292869184919082908490829060600103925af1801561114a5786928691611131575b5061100a565b61113d91929350611f94565b610440578490843861112b565b8b513d87823e3d90fd5b61116c919250873d8911610697576106898183611ff6565b90386110cf565b61118b919350893d8b11610697576106898183611ff6565b9138611002565b8c513d88823e3d90fd5b5050346101a75761070e610713916111b3366120c5565b919251926111c084611fda565b8684526106fe6106f984336122fa565b8284346107165781600319360112610716576111ea611f4d565b602435906111f7816120fa565b821015611225576001600160a01b031682526006602090815283832091835290815290829020548251908152f35b835162461bcd60e51b8152602081870152602b60248201527f455243373231456e756d657261626c653a206f776e657220696e646578206f7560448201526a74206f6620626f756e647360a81b6064820152608490fd5b90503461020a5760209081600319360112610440578035906002600a54146106c6576002600a556001600160a01b0392836112b6846121bd565b1633036106b757828652600c8152848620938551926112d484611fbe565b81865416845260018601549583850196875260028101548886015260ff826003830154926060880193845201541615158060808701526114b55761131786612949565b84518851639a76889b60e01b81529084168382015284816024817f000000000000000000000000000000000000000000000000000000000000000088165afa80156114ab5784918b9161148e575b5016905190670de0b6b3a764000091820391821161147b5790818a93923b1561044057895163079cc67960e41b8152338482019081526020810193909352918491839182908490829060400103925af190811561147157839161145d575b505082855116908751823b156104405760a48492838c519586948593635c46a7ef60e11b855230908501523360248501526044840152608060648401528160848401525af1801561109857611449575b50507fb74e6733b1eee40d5d60495b99d8e13a7170ef32a66e78a3daa7b781dca3467e92511693519451338152a46001600a5580f35b61145290611f94565b610bcc578638611413565b61146690611f94565b6101a75781386113c3565b89513d85823e3d90fd5b634e487b7160e01b8a526011835260248afd5b6114a59150863d8811610697576106898183611ff6565b38611365565b89513d8c823e3d90fd5b508651638f3ba46b60e01b8152fd5b8334610716576107136114d6366120c5565b916114e46106f984336122fa565b6123c2565b90503461020a5760209081600319360112610440578035906002600a54146106c6576002600a55818552600c83528385209284519161152783611fbe565b60018060a01b039081865416845260018601549583850196875260ff82600283015492838b890152600381015460608901520154169060808601911515825242106116f157516116e35783518751639a76889b60e01b81529083168183015288919084816024817f000000000000000000000000000000000000000000000000000000000000000088165afa801561147157849184916116c6575b5016803b1561020a5782809160448b518094819363079cc67960e41b83523388840152670de0b6b3a764000060248401525af19081156114715783916116b2575b50869052600c84528088832001600160ff1982541617905582855116908751823b15610440578951632142170760e11b815230928101928352336020840152604083019190915291839183919082908490829060600103925af180156110985761169e575b50507f4067d1896fc795faaa5cd30c8e613fc8536d369fd2f50d47957f9326cec6dff592511693519451338152a46001600a5580f35b6116a790611f94565b610bcc578638611668565b6116bb90611f94565b6101a7578138611603565b6116dd9150863d8811610697576106898183611ff6565b386115c2565b8651636507689f60e01b8152fd5b50865163d0404f8560e01b8152fd5b83346107165760603660031901126107165761071361171d611f4d565b611725611f68565b90602435906127e4565b5050346101a757816003193601126101a7576020906008549051908152f35b8284346107165761175e36612034565b95919092506002600a5414611bec576002600a558551908115611be157508585918101031261020a5760208501516001600160a01b038116959086900361044057840151908515868115611bd7575b50611bc95781158015611bbf575b611bb1575b8451639a76889b60e01b815233828201526020966001600160a01b039160249190898184817f000000000000000000000000000000000000000000000000000000000000000088165afa908115611ba7579084918991611b8a575b5016948515611b7a57600197888201808311611b6857670de0b6b3a7640000908082029082820403611b56576014900497888203918211611b5657803b1561020a578b516340c10f1960e01b81526001600160a01b038616818a019081526020810193909352918391839182908490829060400103925af18015611b4c57611b3d575b509088600b54019081600b556301e1338090818102918183041490151715611b2b57420196874211611b17578b878a93611947938b8f8f9080600c8e9251986118e68a611fbe565b338a52808a019b8c52828a0195865260608a0196875260808a01978d89528d52528a20965116976001600160601b0360a01b9889885416178755519086015551600285015551600384015551151591019060ff801983541691151516179055565b600b54938a519561195787611fda565b8387528416968715611ad8576000868152600260205260409020548d92919061198c906001600160a01b031615155b156128fd565b6009600854938860005252828d60002055600160401b831015611ac557505093868193611a83979593828f8f908f90816119ed896119d461070e9f6002968101600855612797565b90919082549060031b91821b91600019901b1916179055565b6119f68a6120fa565b85600052600683528460002081600052835289856000205589600052600783528460002055611a3d6119868a600052600260205260018060a01b0360406000205416151590565b84875260038252838720908154019055878652528320918254161790557fddf252ad1be2c89b69c2b068fc378daa952ba7f163c4a11628f55a4df523b3ef8180a4612635565b600b54908551928352868301527f92c4ae82457b93c1cf331ba7edc25c42b279a02ae829e0c61d148a945eabf675853393a4600a5551630a85bd0160e11b8152f35b604190634e487b7160e01b600052526000fd5b8c606492818e519362461bcd60e51b85528401528201527f4552433732313a206d696e7420746f20746865207a65726f20616464726573736044820152fd5b84601188634e487b7160e01b600052526000fd5b634e487b7160e01b8352601187528483fd5b611b4690611f94565b8b61189e565b8b513d84823e3d90fd5b634e487b7160e01b8352601188528583fd5b634e487b7160e01b8252601187528482fd5b8851630d4203cb60e41b81528590fd5b611ba191508b3d8d11610697576106898183611ff6565b8b61181b565b89513d8a823e3d90fd5b845163629166db60e11b8152fd5b50600382116117bb565b845163c33b691760e01b8152fd5b90503014876117ad565b9550506001906117c0565b5083516303cb96db60e21b8152fd5b833461071657606036600319011261071657610713611c18611f4d565b60443590339060243590612874565b90503461020a578160031936011261020a57611c41611f4d565b6024359290916001600160a01b0391908280611c5c876121bd565b16941693808514611d4857803314908115611d29575b5015611cc157848652602052842080546001600160a01b03191683179055611c99836121bd565b167f8c5be1e5ebec7d5bd14f71427d1e84f3dd0314c0f7b2291e5b200ac8c7c3b9258480a480f35b6020608492519162461bcd60e51b8352820152603d60248201527f4552433732313a20617070726f76652063616c6c6572206973206e6f7420746f60448201527f6b656e206f776e6572206f7220617070726f76656420666f7220616c6c0000006064820152fd5b90508652600560205281862033875260205260ff828720541638611c72565b506020608492519162461bcd60e51b8352820152602160248201527f4552433732313a20617070726f76616c20746f2063757272656e74206f776e656044820152603960f91b6064820152fd5b828434610716576020366003190112610716575061097a602092356121e3565b82843461071657806003193601126107165781519181825492600184811c91818616958615611e76575b60209687851081146108de578899509688969785829a5291826000146108b7575050600114611e1b575050506103889291610379910385611ff6565b91908693508280527f290decd9548b62a8d60345a988386fc84ba6bc95484008f6362f93160ef3e5635b828410611e5e5750505082010181610379610388610849565b8054848a018601528895508794909301928101611e45565b92607f1692611ddf565b84913461020a57602036600319011261020a573563ffffffff60e01b811680910361020a576020925063780e9d6360e01b8114908115611ec2575b5015158152f35b6380ac58cd60e01b811491508115611ef4575b8115611ee3575b5083611ebb565b6301ffc9a760e01b14905083611edc565b635b5e139f60e01b81149150611ed5565b60005b838110611f185750506000910152565b8181015183820152602001611f08565b90602091611f4181518092818552858086019101611f05565b601f01601f1916010190565b600435906001600160a01b0382168203611f6357565b600080fd5b604435906001600160a01b0382168203611f6357565b602435906001600160a01b0382168203611f6357565b67ffffffffffffffff8111611fa857604052565b634e487b7160e01b600052604160045260246000fd5b60a0810190811067ffffffffffffffff821117611fa857604052565b6020810190811067ffffffffffffffff821117611fa857604052565b90601f8019910116810190811067ffffffffffffffff821117611fa857604052565b67ffffffffffffffff8111611fa857601f01601f191660200190565b906080600319830112611f63576001600160a01b03916004358381168103611f6357926024359081168103611f6357916044359160643567ffffffffffffffff8111611f635781602382011215611f635780600401359061209482612018565b926120a26040519485611ff6565b82845260248383010111611f635781600092602460209301838601378301015290565b6060906003190112611f63576001600160a01b03906004358281168103611f6357916024359081168103611f63579060443590565b6001600160a01b0316801561211a57600052600360205260406000205490565b60405162461bcd60e51b815260206004820152602960248201527f4552433732313a2061646472657373207a65726f206973206e6f7420612076616044820152683634b21037bbb732b960b91b6064820152608490fd5b1561217857565b60405162461bcd60e51b815260206004820152601860248201527f4552433732313a20696e76616c696420746f6b656e20494400000000000000006044820152606490fd5b6000908152600260205260409020546001600160a01b03166121e0811515612171565b90565b600081815260026020526040902054612206906001600160a01b03161515612171565b6000908152600460205260409020546001600160a01b031690565b1561222857565b60405162461bcd60e51b815260206004820152602d60248201527f4552433732313a2063616c6c6572206973206e6f7420746f6b656e206f776e6560448201526c1c881bdc88185c1c1c9bdd9959609a1b6064820152608490fd5b60809060208152603260208201527f4552433732313a207472616e7366657220746f206e6f6e20455243373231526560408201527131b2b4bb32b91034b6b83632b6b2b73a32b960711b60608201520190565b156122dd57565b60405162461bcd60e51b8152806122f660048201612283565b0390fd5b906001600160a01b03808061230e846121bd565b16931691838314938415612341575b50831561232b575b50505090565b612337919293506121e3565b1614388080612325565b909350600052600560205260406000208260005260205260ff60406000205416923861231d565b1561236f57565b60405162461bcd60e51b815260206004820152602560248201527f4552433732313a207472616e736665722066726f6d20696e636f72726563742060448201526437bbb732b960d91b6064820152608490fd5b6123e6916123cf846121bd565b6001600160a01b0393848416939185168414612368565b8382169384156125b3578391826124fa575090506008549085600052600960205281604060002055600160401b821015611fa85761244c92612433876119d4856001899701600855612797565b8286036124c7575b50612445866121bd565b1614612368565b7fddf252ad1be2c89b69c2b068fc378daa952ba7f163c4a11628f55a4df523b3ef60008481526004602052604081206001600160601b0360a01b9081815416905583825260036020526040822060001981540190558482526040822060018154019055858252600260205284604083209182541617905580a4565b6124d0906120fa565b6040600087815260066020528181208382526020528882822055888152600760205220553861243b565b85830361250c575b5061244c92612433565b6125179192506120fa565b60001981019190821161259d5761244c9284926000908882526020906007825260409182842054828103612566575b508a84528383812055868452600681528284209184525281205592612502565b8785526006825283852083865282528385205488865260068352848620828752835280858720558552600782528385205538612546565b634e487b7160e01b600052601160045260246000fd5b60405162461bcd60e51b8152602060048201526024808201527f4552433732313a207472616e7366657220746f20746865207a65726f206164646044820152637265737360e01b6064820152608490fd5b6001600160a01b0391821681529116602082015260408101919091526080606082018190526121e092910190611f28565b9192600092909190803b1561274b57612683946040518092630a85bd0160e11b9485835233600484015287602484015260448301526080606483015281878160209a8b966084830190611f28565b03926001600160a01b03165af1849181612707575b506126f6575050503d6000146126ee573d6126b281612018565b906126c06040519283611ff6565b81528091833d92013e5b805191826126eb5760405162461bcd60e51b8152806122f660048201612283565b01fd5b5060606126ca565b6001600160e01b0319161492509050565b9091508581813d8311612744575b61271f8183611ff6565b8101031261274057516001600160e01b031981168103612740579038612698565b8480fd5b503d612715565b5050915050600190565b91936000939092909190813b1561278c576040518092818781612683630a85bd0160e11b9889835260209c8d983360048601612604565b505050915050600190565b6008548110156127ce5760086000527ff3f7a9fe364faab93b216da50a3214154f22a0a2b415b23a84c8169e8b636ee30190600090565b634e487b7160e01b600052603260045260246000fd5b604080516001600160a01b039485166020820152600181830152908152606081019390911667ffffffffffffffff841182851017611fa85783604052803b15611f635783600080948294635c46a7ef60e11b845261284b81605f1993303360648401612604565b0301925af180156128685761285d5750565b61286690611f94565b565b6040513d6000823e3d90fd5b604080516001600160a01b039485166020820152808201959095528452909116916128a0606082611ff6565b823b15611f63576128cd9260009283604051809681958294635c46a7ef60e11b8452303360048601612604565b03925af180156128685761285d5750565b90816020910312611f6357516001600160a01b0381168103611f635790565b1561290457565b60405162461bcd60e51b815260206004820152601c60248201527f4552433732313a20746f6b656e20616c7265616479206d696e746564000000006044820152606490fd5b612952816121bd565b6001600160a01b03908082169081612a9557505060085482600052600960205280604060002055600160401b811015611fa857826119d48260016129999401600855612797565b600854600019808201929091831161259d5760009284845260096020526040906129c68286205491612797565b90549060031b1c6129da816119d484612797565b855260096020528185205584845283818120556008548015612a81578301612a0181612797565b8582549160031b1b19169055600855612a19856121bd565b918585526004602052818520926001600160601b0360a01b9384815416905516928385526003602052818520908154019055848452600260205283209081541690557fddf252ad1be2c89b69c2b068fc378daa952ba7f163c4a11628f55a4df523b3ef8280a4565b634e487b7160e01b85526031600452602485fd5b612a9e906120fa565b60001981019190821161259d5760009184835260206007815260409283852054838103612ae4575b50868552848481205584526006815282842091845252812055612999565b8186526006835284862084875283528486205482875260068452858720828852845280868820558652600783528486205538612ac656fea164736f6c6343000812000a",
    "linkReferences": {},
    "deployedLinkReferences": {}
}