{
  "_format": "hh-sol-artifact-1",
  "contractName": "Safe",
  "sourceName": "contracts/Safe.sol",
  "abi": [
    {
      "inputs": [],
      "stateMutability": "nonpayable",
      "type": "constructor"
    },
    {
      "inputs": [],
      "name": "AlreadyWithdrawn",
      "type": "error"
    },
    {
      "inputs": [],
      "name": "CollectionNotTokenized",
      "type": "error"
    },
    {
      "inputs": [],
      "name": "ExpiredAndWithdrawn",
      "type": "error"
    },
    {
      "inputs": [],
      "name": "IncorrectExpiration",
      "type": "error"
    },
    {
      "inputs": [],
      "name": "IncorrectReceiver",
      "type": "error"
    },
    {
      "inputs": [],
      "name": "Locked",
      "type": "error"
    },
    {
      "inputs": [],
      "name": "NotExpired",
      "type": "error"
    },
    {
      "inputs": [],
      "name": "NotOwner",
      "type": "error"
    },
    {
      "inputs": [],
      "name": "PremiumExpired",
      "type": "error"
    },
    {
      "anonymous": false,
      "inputs": [
        {
          "indexed": true,
          "internalType": "address",
          "name": "owner",
          "type": "address"
        },
        {
          "indexed": true,
          "internalType": "address",
          "name": "approved",
          "type": "address"
        },
        {
          "indexed": true,
          "internalType": "uint256",
          "name": "tokenId",
          "type": "uint256"
        }
      ],
      "name": "Approval",
      "type": "event"
    },
    {
      "anonymous": false,
      "inputs": [
        {
          "indexed": true,
          "internalType": "address",
          "name": "owner",
          "type": "address"
        },
        {
          "indexed": true,
          "internalType": "address",
          "name": "operator",
          "type": "address"
        },
        {
          "indexed": false,
          "internalType": "bool",
          "name": "approved",
          "type": "bool"
        }
      ],
      "name": "ApprovalForAll",
      "type": "event"
    },
    {
      "anonymous": false,
      "inputs": [
        {
          "indexed": true,
          "internalType": "address",
          "name": "collection",
          "type": "address"
        },
        {
          "indexed": true,
          "internalType": "uint256",
          "name": "id",
          "type": "uint256"
        },
        {
          "indexed": false,
          "internalType": "address",
          "name": "to",
          "type": "address"
        }
      ],
      "name": "Burn",
      "type": "event"
    },
    {
      "anonymous": false,
      "inputs": [
        {
          "indexed": true,
          "internalType": "uint256",
          "name": "id",
          "type": "uint256"
        },
        {
          "indexed": true,
          "internalType": "address",
          "name": "collection",
          "type": "address"
        },
        {
          "indexed": true,
          "internalType": "uint256",
          "name": "tokenId",
          "type": "uint256"
        },
        {
          "indexed": false,
          "internalType": "uint256",
          "name": "expiration",
          "type": "uint256"
        },
        {
          "indexed": false,
          "internalType": "address",
          "name": "to",
          "type": "address"
        }
      ],
      "name": "Deposit",
      "type": "event"
    },
    {
      "anonymous": false,
      "inputs": [
        {
          "indexed": true,
          "internalType": "address",
          "name": "collection",
          "type": "address"
        },
        {
          "indexed": true,
          "internalType": "uint256",
          "name": "id",
          "type": "uint256"
        },
        {
          "indexed": false,
          "internalType": "address",
          "name": "to",
          "type": "address"
        }
      ],
      "name": "ExpiredBought",
      "type": "event"
    },
    {
      "anonymous": false,
      "inputs": [
        {
          "indexed": true,
          "internalType": "address",
          "name": "from",
          "type": "address"
        },
        {
          "indexed": true,
          "internalType": "address",
          "name": "to",
          "type": "address"
        },
        {
          "indexed": true,
          "internalType": "uint256",
          "name": "tokenId",
          "type": "uint256"
        }
      ],
      "name": "Transfer",
      "type": "event"
    },
    {
      "anonymous": false,
      "inputs": [
        {
          "indexed": true,
          "internalType": "address",
          "name": "collection",
          "type": "address"
        },
        {
          "indexed": true,
          "internalType": "uint256",
          "name": "id",
          "type": "uint256"
        },
        {
          "indexed": false,
          "internalType": "address",
          "name": "to",
          "type": "address"
        }
      ],
      "name": "Withdraw",
      "type": "event"
    },
    {
      "inputs": [
        {
          "internalType": "address",
          "name": "to",
          "type": "address"
        },
        {
          "internalType": "uint256",
          "name": "tokenId",
          "type": "uint256"
        }
      ],
      "name": "approve",
      "outputs": [],
      "stateMutability": "nonpayable",
      "type": "function"
    },
    {
      "inputs": [
        {
          "internalType": "address",
          "name": "owner",
          "type": "address"
        }
      ],
      "name": "balanceOf",
      "outputs": [
        {
          "internalType": "uint256",
          "name": "",
          "type": "uint256"
        }
      ],
      "stateMutability": "view",
      "type": "function"
    },
    {
      "inputs": [
        {
          "internalType": "uint256",
          "name": "tokenId",
          "type": "uint256"
        }
      ],
      "name": "burn",
      "outputs": [],
      "stateMutability": "nonpayable",
      "type": "function"
    },
    {
      "inputs": [
        {
          "internalType": "uint256",
          "name": "tokenId",
          "type": "uint256"
        },
        {
          "internalType": "address",
          "name": "to",
          "type": "address"
        }
      ],
      "name": "burnTo",
      "outputs": [],
      "stateMutability": "nonpayable",
      "type": "function"
    },
    {
      "inputs": [
        {
          "internalType": "uint256",
          "name": "tokenId",
          "type": "uint256"
        }
      ],
      "name": "buyExpired",
      "outputs": [],
      "stateMutability": "nonpayable",
      "type": "function"
    },
    {
      "inputs": [
        {
          "internalType": "uint256",
          "name": "tokenId",
          "type": "uint256"
        },
        {
          "internalType": "address",
          "name": "to",
          "type": "address"
        }
      ],
      "name": "buyExpiredTo",
      "outputs": [],
      "stateMutability": "nonpayable",
      "type": "function"
    },
    {
      "inputs": [
        {
          "internalType": "address",
          "name": "collection",
          "type": "address"
        },
        {
          "internalType": "uint256",
          "name": "tokenId",
          "type": "uint256"
        },
        {
          "internalType": "uint256",
          "name": "securityYears",
          "type": "uint256"
        }
      ],
      "name": "deposit",
      "outputs": [],
      "stateMutability": "nonpayable",
      "type": "function"
    },
    {
      "inputs": [
        {
          "internalType": "address",
          "name": "collection",
          "type": "address"
        },
        {
          "internalType": "uint256",
          "name": "tokenId",
          "type": "uint256"
        }
      ],
      "name": "deposit",
      "outputs": [],
      "stateMutability": "nonpayable",
      "type": "function"
    },
    {
      "inputs": [
        {
          "internalType": "address",
          "name": "collection",
          "type": "address"
        },
        {
          "internalType": "uint256",
          "name": "tokenId",
          "type": "uint256"
        },
        {
          "internalType": "address",
          "name": "to",
          "type": "address"
        }
      ],
      "name": "depositTo",
      "outputs": [],
      "stateMutability": "nonpayable",
      "type": "function"
    },
    {
      "inputs": [
        {
          "internalType": "address",
          "name": "collection",
          "type": "address"
        },
        {
          "internalType": "uint256",
          "name": "tokenId",
          "type": "uint256"
        },
        {
          "internalType": "address",
          "name": "to",
          "type": "address"
        },
        {
          "internalType": "uint256",
          "name": "securityYears",
          "type": "uint256"
        }
      ],
      "name": "depositTo",
      "outputs": [],
      "stateMutability": "nonpayable",
      "type": "function"
    },
    {
      "inputs": [
        {
          "internalType": "uint256",
          "name": "tokenId",
          "type": "uint256"
        }
      ],
      "name": "getApproved",
      "outputs": [
        {
          "internalType": "address",
          "name": "",
          "type": "address"
        }
      ],
      "stateMutability": "view",
      "type": "function"
    },
    {
      "inputs": [
        {
          "internalType": "address",
          "name": "owner",
          "type": "address"
        },
        {
          "internalType": "address",
          "name": "operator",
          "type": "address"
        }
      ],
      "name": "isApprovedForAll",
      "outputs": [
        {
          "internalType": "bool",
          "name": "",
          "type": "bool"
        }
      ],
      "stateMutability": "view",
      "type": "function"
    },
    {
      "inputs": [],
      "name": "name",
      "outputs": [
        {
          "internalType": "string",
          "name": "",
          "type": "string"
        }
      ],
      "stateMutability": "view",
      "type": "function"
    },
    {
      "inputs": [
        {
          "internalType": "address",
          "name": "",
          "type": "address"
        },
        {
          "internalType": "address",
          "name": "from",
          "type": "address"
        },
        {
          "internalType": "uint256",
          "name": "tokenId",
          "type": "uint256"
        },
        {
          "internalType": "bytes",
          "name": "data",
          "type": "bytes"
        }
      ],
      "name": "onERC721Received",
      "outputs": [
        {
          "internalType": "bytes4",
          "name": "",
          "type": "bytes4"
        }
      ],
      "stateMutability": "nonpayable",
      "type": "function"
    },
    {
      "inputs": [
        {
          "internalType": "uint256",
          "name": "tokenId",
          "type": "uint256"
        }
      ],
      "name": "ownerOf",
      "outputs": [
        {
          "internalType": "address",
          "name": "",
          "type": "address"
        }
      ],
      "stateMutability": "view",
      "type": "function"
    },
    {
      "inputs": [
        {
          "internalType": "address",
          "name": "from",
          "type": "address"
        },
        {
          "internalType": "address",
          "name": "to",
          "type": "address"
        },
        {
          "internalType": "uint256",
          "name": "tokenId",
          "type": "uint256"
        }
      ],
      "name": "safeTransferFrom",
      "outputs": [],
      "stateMutability": "nonpayable",
      "type": "function"
    },
    {
      "inputs": [
        {
          "internalType": "address",
          "name": "from",
          "type": "address"
        },
        {
          "internalType": "address",
          "name": "to",
          "type": "address"
        },
        {
          "internalType": "uint256",
          "name": "tokenId",
          "type": "uint256"
        },
        {
          "internalType": "bytes",
          "name": "data",
          "type": "bytes"
        }
      ],
      "name": "safeTransferFrom",
      "outputs": [],
      "stateMutability": "nonpayable",
      "type": "function"
    },
    {
      "inputs": [
        {
          "internalType": "address",
          "name": "operator",
          "type": "address"
        },
        {
          "internalType": "bool",
          "name": "approved",
          "type": "bool"
        }
      ],
      "name": "setApprovalForAll",
      "outputs": [],
      "stateMutability": "nonpayable",
      "type": "function"
    },
    {
      "inputs": [
        {
          "internalType": "bytes4",
          "name": "interfaceId",
          "type": "bytes4"
        }
      ],
      "name": "supportsInterface",
      "outputs": [
        {
          "internalType": "bool",
          "name": "",
          "type": "bool"
        }
      ],
      "stateMutability": "view",
      "type": "function"
    },
    {
      "inputs": [],
      "name": "symbol",
      "outputs": [
        {
          "internalType": "string",
          "name": "",
          "type": "string"
        }
      ],
      "stateMutability": "view",
      "type": "function"
    },
    {
      "inputs": [
        {
          "internalType": "uint256",
          "name": "index",
          "type": "uint256"
        }
      ],
      "name": "tokenByIndex",
      "outputs": [
        {
          "internalType": "uint256",
          "name": "",
          "type": "uint256"
        }
      ],
      "stateMutability": "view",
      "type": "function"
    },
    {
      "inputs": [
        {
          "internalType": "address",
          "name": "owner",
          "type": "address"
        },
        {
          "internalType": "uint256",
          "name": "index",
          "type": "uint256"
        }
      ],
      "name": "tokenOfOwnerByIndex",
      "outputs": [
        {
          "internalType": "uint256",
          "name": "",
          "type": "uint256"
        }
      ],
      "stateMutability": "view",
      "type": "function"
    },
    {
      "inputs": [
        {
          "internalType": "uint256",
          "name": "tokenId",
          "type": "uint256"
        }
      ],
      "name": "tokenURI",
      "outputs": [
        {
          "internalType": "string",
          "name": "",
          "type": "string"
        }
      ],
      "stateMutability": "view",
      "type": "function"
    },
    {
      "inputs": [],
      "name": "totalSupply",
      "outputs": [
        {
          "internalType": "uint256",
          "name": "",
          "type": "uint256"
        }
      ],
      "stateMutability": "view",
      "type": "function"
    },
    {
      "inputs": [
        {
          "internalType": "address",
          "name": "from",
          "type": "address"
        },
        {
          "internalType": "address",
          "name": "to",
          "type": "address"
        },
        {
          "internalType": "uint256",
          "name": "tokenId",
          "type": "uint256"
        }
      ],
      "name": "transferFrom",
      "outputs": [],
      "stateMutability": "nonpayable",
      "type": "function"
    },
    {
      "inputs": [
        {
          "internalType": "uint256",
          "name": "",
          "type": "uint256"
        }
      ],
      "name": "underlyings",
      "outputs": [
        {
          "internalType": "address",
          "name": "collection",
          "type": "address"
        },
        {
          "internalType": "uint256",
          "name": "id",
          "type": "uint256"
        },
        {
          "internalType": "uint256",
          "name": "deadline",
          "type": "uint256"
        },
        {
          "internalType": "uint256",
          "name": "value",
          "type": "uint256"
        },
        {
          "internalType": "bool",
          "name": "withdrawn",
          "type": "bool"
        }
      ],
      "stateMutability": "view",
      "type": "function"
    },
    {
      "inputs": [
        {
          "internalType": "uint256",
          "name": "tokenId",
          "type": "uint256"
        }
      ],
      "name": "withdraw",
      "outputs": [],
      "stateMutability": "nonpayable",
      "type": "function"
    },
    {
      "inputs": [
        {
          "internalType": "uint256",
          "name": "tokenId",
          "type": "uint256"
        },
        {
          "internalType": "address",
          "name": "to",
          "type": "address"
        }
      ],
      "name": "withdrawTo",
      "outputs": [],
      "stateMutability": "nonpayable",
      "type": "function"
    }
  ],
  "bytecode": "0x60a0346200034b576001600160401b03906040908082018381118282101762000335578252600c81526020926b5072656d69756d205361666560a01b848301528251838101818110838211176200033557845260058152645f5341464560d81b85820152825190828211620003355760008054926001958685811c951680156200032a575b8986101462000316578190601f95868111620002c3575b5089908683116001146200025f57849262000253575b5050600019600383901b1c191690861b1781555b81519384116200023f5784548581811c9116801562000234575b888210146200022057838111620001d8575b5086928411600114620001725783949596509262000166575b5050600019600383901b1c191690821b1781555b600a553360805251612b13908162000351823960805181818161050301528181610a3501528181610cd101528181610fa1015281816113210152818161158001526117d60152f35b0151905038806200010a565b9190601f1984169685845280842093905b888210620001c05750508385969710620001a6575b505050811b0181556200011e565b015160001960f88460031b161c1916905538808062000198565b80878596829496860151815501950193019062000183565b8582528782208480870160051c8201928a881062000216575b0160051c019086905b8281106200020a575050620000f1565b838155018690620001fa565b92508192620001f1565b634e487b7160e01b82526022600452602482fd5b90607f1690620000df565b634e487b7160e01b81526041600452602490fd5b015190503880620000b1565b8480528a85208994509190601f198416865b8d828210620002ac575050841162000292575b505050811b018155620000c5565b015160001960f88460031b161c1916905538808062000284565b8385015186558c9790950194938401930162000271565b9091508380528984208680850160051c8201928c86106200030c575b918a91869594930160051c01915b828110620002fd5750506200009b565b8681558594508a9101620002ed565b92508192620002df565b634e487b7160e01b83526022600452602483fd5b94607f169462000084565b634e487b7160e01b600052604160045260246000fd5b600080fdfe608060408181526004918236101561001657600080fd5b600092833560e01c91826301ffc9a714611e6f5750816306fdde0314611da4578163081812fc14611d84578163095ea7b314611c165781630efe6a8b14611bea578163150b7a021461173d57816318160ddd1461171e57816320acd9f3146116ef578163229cab1f146114d757816323b872dd146114b25781632e1a7d4d1461126b5781632f745c59146111bf57816342842e0e1461118b57816342966c6814610f0657816347e7ef2414610edf5781634f6ccce714610e4b5781635690562014610c20578163571ff20d146109915781636352211e1461096057816370a082311461093357816390b8e1c91461090157816395d89b41146107fa578163a22cb4651461071f578163b88d4fde146106da578163c86283c814610444578163c87b56dd1461020e578163cea0252e146101ab575063e985e9c51461015957600080fd5b346101a757806003193601126101a757602091610174611f3c565b8261017d611f6d565b9260018060a01b03809316815260058652209116600052825260ff81600020541690519015158152f35b5080fd5b9190503461020a57602036600319011261020a578060a09383358152600c60205220600180851b038154169260018201549260ff6002840154926003850154940154169381519586526020860152840152606083015215156080820152f35b8280fd5b90503461020a576020908160031936011261044057819293813561024f61024a82600052600260205260018060a01b0360406000205416151590565b612160565b85519261025b84611fc9565b82845282156104235781829184937a184f03e93ff9f4daa797ed6e38ed64bf6a1f0100000000000000009081811015610416575b5050866d04ee2d6d415b85acef810000000080851015610408575b5050662386f26fc10000808410156103f9575b506305f5e100808410156103ea575b50612710808410156103dc575b505060648210156103cc575b600a809210156103c2575b60219088936001928161031d8580940161031561030c82612007565b9951998a611fe5565b808952612007565b878b019890601f1901368a3750860101905b61038c575b505050509261036b9261037792610388958851958361035c8895518092888089019101611ef4565b84019151809386840190611ef4565b01038084520182611fe5565b925b51928284938452830190611f17565b0390f35b600019019083906f181899199a1a9b1b9c1cb0b131b232b360811b8282061a8353049182156103bd5791908261032f565b610334565b91600101916102f0565b91906064600291049101916102e5565b9301929091049038806102d9565b600891949304920192386102cc565b601091949304920192386102bd565b9401939092049186386102aa565b8a9550049250388061028f565b5050505050610388825161043681611fc9565b6000815292610379565b8380fd5b9190503461020a578060031936011261020a57813591610462611f6d565b6002600a54146106cb576002600a556001600160a01b039081610484866121ac565b1633036106bb57848652602091600c83528487208551946104a486611fad565b82825416865260018201549185870192835260028101548888015260ff8260038301549260608a0193845201541615158060808901526106ac576104e789612934565b86518851639a76889b60e01b81529085168382015286816024817f000000000000000000000000000000000000000000000000000000000000000089165afa9081156106a2579085918c91610675575b5016905190670de0b6b3a76400009182039182116106625790818b9493923b1561065e57895163079cc67960e41b8152338482019081526020810193909352918591839182908490829060400103925af1801561065457908491610640575b505083875116915194823b156104405760a484928387958c519687958694635c46a7ef60e11b8652309086015216998a60248501526044840152608060648401528160848401525af180156106365761061e575b50507f56c54ba9bd38d8fd62012e42c7ee564519b09763c426d331b3661b537ead19b29351169351908152a36001600a5580f35b61062790611f83565b6106325786386105ea565b8680fd5b87513d84823e3d90fd5b61064990611f83565b61020a578238610596565b89513d86823e3d90fd5b8480fd5b634e487b7160e01b8b526011835260248bfd5b6106959150883d8a1161069b575b61068d8183611fe5565b8101906128c9565b38610537565b503d610683565b89513d8d823e3d90fd5b508651638f3ba46b60e01b8152fd5b83516330cd747160e01b81528390fd5b5090516303cb96db60e21b8152fd5b833461071c576107196107146106ef36612023565b926107046106ff839493336122e9565b612210565b61070f8383836123b1565b612740565b6122c5565b80f35b80fd5b9190503461020a578060031936011261020a5761073a611f3c565b90602435801515928382036107f6576001600160a01b0316933385146107b3575061078690338652600560205282862085600052602052826000209060ff801983541691151516179055565b519081527f17307eab39ab6107e8899845ad3d59bd9653f200f220920489ca2b5937696c3160203392a380f35b606490602084519162461bcd60e51b8352820152601960248201527f4552433732313a20617070726f766520746f2063616c6c6572000000000000006044820152fd5b8580fd5b82843461071c578060031936011261071c578151918160019283549384811c918186169586156108f7575b60209687851081146108e4578899509688969785829a5291826000146108bd575050600114610862575b5050506103889291610379910385611fe5565b91908693508083527fb10e2d527612073b26eecdfd717e6a320cf44b4afac2b0732d9fcbe2b7fa0cf65b8284106108a5575050508201018161037961038861084f565b8054848a01860152889550879490930192810161088c565b60ff19168782015293151560051b860190930193508492506103799150610388905061084f565b634e487b7160e01b835260228a52602483fd5b92607f1692610825565b833461071c57608036600319011261071c5761071961091e611f3c565b610926611f57565b606435916024359061285f565b5050346101a75760203660031901126101a757602090610959610954611f3c565b6120e9565b9051908152f35b82843461071c57602036600319011261071c5750610980602092356121ac565b90516001600160a01b039091168152f35b9190503461020a578060031936011261020a578135916109af611f6d565b6002600a54146106cb576002600a556001600160a01b0390816109d1866121ac565b1633036106bb576109e185612934565b848652602091600c8352868581208651956109fb87611fad565b83825416808852600183015487890190815260028401548a8a015260ff8360038601549560608c0196875201541660808a019015158152867f000000000000000000000000000000000000000000000000000000000000000016908b5193639a76889b60e01b8552858501528984602481855afa938415610c16579088949392918894610bf7575b505115610b23575b5050169151823b156104405788516340c10f1960e01b81526001600160a01b038716928101928352602083019190915291839183919082908490829060400103925af1801561063657610b0f575b5050807fdbdf9b8e4b75e75b162d151ec8fc7f0561cabab5fcccfa2600be62223e4300c4945116945191168152a36001600a5580f35b610b1890611f83565b610632578638610ad9565b90919289908b511660248d5180948193633d1c564f60e11b8352898301525afa908115610bed578691610bd0575b50868a51169151823b15610632578b51632142170760e11b8152308682019081526001600160a01b039093166020840152604083019190915291869183919082908490829060600103925af18015610bc657869291869115610a8b57610bb991929350611f83565b6104405784908438610a8b565b8a513d87823e3d90fd5b610be79150893d8b1161069b5761068d8183611fe5565b38610b51565b8b513d88823e3d90fd5b610c0f9194508b3d8d1161069b5761068d8183611fe5565b9238610a83565b8c513d89823e3d90fd5b9190503461020a578060031936011261020a57813591610c3e611f6d565b6002600a54146106cb576002600a55838552602090600c825283862092845193610c6785611fad565b60018060a01b039182825416865260018201549185870192835260ff82600283015492838b8b0152600381015460608b0152015416906080880191151582524210610e3c5751610e2e5785518751639a76889b60e01b8152908416818301528992919086816024817f000000000000000000000000000000000000000000000000000000000000000089165afa908115610654579085918591610e11575b5016803b156104405783809160448b518094819363079cc67960e41b83523388840152670de0b6b3a764000060248401525af1801561065457908491610dfd575b50899052600c86528088842001600160ff19825416179055838751169151823b15610440578851632142170760e11b8152309281019283526001600160a01b0387166020840152604083019190915291839183919082908490829060600103925af1801561063657610de9575b5050807f4bcf8a2b133ed7b5bfe3068385eb9b9e29666bbaad5161031479257ae305d7e3945116945191168152a36001600a5580f35b610df290611f83565b610632578638610db3565b610e0690611f83565b61020a578238610d46565b610e289150883d8a1161069b5761068d8183611fe5565b38610d05565b8651636507689f60e01b8152fd5b50865163d0404f8560e01b8152fd5b9050823461071c57602036600319011261071c5750803590600854821015610e8757602083610e7984612782565b91905490519160031b1c8152f35b608490602084519162461bcd60e51b8352820152602c60248201527f455243373231456e756d657261626c653a20676c6f62616c20696e646578206f60448201526b7574206f6620626f756e647360a01b6064820152fd5b5050346101a75736600319011261071c57610719610efb611f3c565b3390602435906127cf565b9190503461020a5760209182600319360112610440578035926002600a54146106cb576002600a556001600160a01b0380610f40866121ac565b1633036106bb57610f5085612934565b848652600c825285848120855194610f6786611fad565b83825416808752600183015486880190815260028401548989015260ff8360038601549560608b01968752015416608089019015158152867f000000000000000000000000000000000000000000000000000000000000000016908a5193639a76889b60e01b8552858501528884602481855afa938415611181579088949392918894611162575b50511561108e575b5050169151823b156104405787516340c10f1960e01b815233928101928352602083019190915291839183919082908490829060400103925af1801561108457611070575b50507fdbdf9b8e4b75e75b162d151ec8fc7f0561cabab5fcccfa2600be62223e4300c49251169251338152a36001600a5580f35b61107990611f83565b6107f657853861103c565b86513d84823e3d90fd5b90919288908a511660248c5180948193633d1c564f60e11b8352898301525afa90811561115857869161113b575b50868951169151823b15610632578a51632142170760e11b8152308682019081526001600160a01b039093166020840152604083019190915291869183919082908490829060600103925af1801561113157869291869115610ff75761112491929350611f83565b6104405784908438610ff7565b89513d87823e3d90fd5b6111529150883d8a1161069b5761068d8183611fe5565b386110bc565b8a513d88823e3d90fd5b61117a9194508a3d8c1161069b5761068d8183611fe5565b9238610fef565b8b513d89823e3d90fd5b5050346101a757610714610719916111a2366120b4565b919251926111af84611fc9565b8684526107046106ff84336122e9565b82843461071c578160031936011261071c576111d9611f3c565b602435906111e6816120e9565b821015611214576001600160a01b031682526006602090815283832091835290815290829020548251908152f35b835162461bcd60e51b8152602081870152602b60248201527f455243373231456e756d657261626c653a206f776e657220696e646578206f7560448201526a74206f6620626f756e647360a81b6064820152608490fd5b9190503461020a5760209182600319360112610440578035926002600a54146106cb576002600a556001600160a01b03806112a5866121ac565b1633036106bb57848652600c82528386208451936112c285611fad565b82825416855260018201549184860192835260028101548787015260ff826003830154926060890193845201541615158060808801526114a35761130588612934565b85518751639a76889b60e01b81529085168382015285816024817f000000000000000000000000000000000000000000000000000000000000000089165afa908115611499579085918b9161147c575b5016905190670de0b6b3a76400009182039182116114695790818a9493923b1561065e57885163079cc67960e41b8152338482019081526020810193909352918591839182908490829060400103925af1801561145f5790849161144b575b5050838651169151823b156104405760a48492838a519586948593635c46a7ef60e11b855230908501523360248501526044840152608060648401528160848401525af1801561108457611437575b50507f56c54ba9bd38d8fd62012e42c7ee564519b09763c426d331b3661b537ead19b29251169251338152a36001600a5580f35b61144090611f83565b6107f6578538611403565b61145490611f83565b61020a5782386113b4565b88513d86823e3d90fd5b634e487b7160e01b8a526011835260248afd5b6114939150873d891161069b5761068d8183611fe5565b38611355565b88513d8c823e3d90fd5b508551638f3ba46b60e01b8152fd5b833461071c576107196114c4366120b4565b916114d26106ff84336122e9565b6123b1565b9190503461020a5760209182600319360112610440578035926002600a54146106cb576002600a55838552600c81528285209183519261151684611fad565b60018060a01b039182825416855260018201549184860192835260ff82600283015492838a8a0152600381015460608a01520154169060808701911515825242106116e057516116d25784518651639a76889b60e01b8152908416818301528892919085816024817f000000000000000000000000000000000000000000000000000000000000000089165afa90811561145f5790859185916116b5575b5016803b156104405783809160448a518094819363079cc67960e41b83523388840152670de0b6b3a764000060248401525af1801561145f579084916116a1575b50889052600c85528087842001600160ff19825416179055838651169151823b15610440578751632142170760e11b815230928101928352336020840152604083019190915291839183919082908490829060600103925af180156110845761168d575b50507f4bcf8a2b133ed7b5bfe3068385eb9b9e29666bbaad5161031479257ae305d7e39251169251338152a36001600a5580f35b61169690611f83565b6107f6578538611659565b6116aa90611f83565b61020a5782386115f5565b6116cc9150873d891161069b5761068d8183611fe5565b386115b4565b8551636507689f60e01b8152fd5b50855163d0404f8560e01b8152fd5b833461071c57606036600319011261071c5761071961170c611f3c565b611714611f57565b90602435906127cf565b5050346101a757816003193601126101a7576020906008549051908152f35b82843461071c5761174d36612023565b95919092506002600a5414611bdb576002600a558551908115611bd057508585918101031261020a5760208501516001600160a01b038116959086900361044057840151908515868115611bc6575b50611bb85781158015611bae575b611ba0575b8451639a76889b60e01b815233828201526020966001600160a01b039160249190898184817f000000000000000000000000000000000000000000000000000000000000000088165afa908115611b96579084918991611b79575b5016948515611b6957600197888201808311611b5757670de0b6b3a7640000908082029082820403611b45576014900497888203918211611b4557803b1561020a578b516340c10f1960e01b81526001600160a01b038616818a019081526020810193909352918391839182908490829060400103925af18015611b3b57611b2c575b509088600b54019081600b556301e1338090818102918183041490151715611b1a57420196874211611b06578b878a93611936938b8f8f9080600c8e9251986118d58a611fad565b338a52808a019b8c52828a0195865260608a0196875260808a01978d89528d52528a20965116976001600160601b0360a01b9889885416178755519086015551600285015551600384015551151591019060ff801983541691151516179055565b600b54938a519561194687611fc9565b8387528416968715611ac7576000868152600260205260409020548d92919061197b906001600160a01b031615155b156128e8565b6009600854938860005252828d60002055600160401b831015611ab457505093868193611a72979593828f8f908f90816119dc896119c36107149f6002968101600855612782565b90919082549060031b91821b91600019901b1916179055565b6119e58a6120e9565b85600052600683528460002081600052835289856000205589600052600783528460002055611a2c6119758a600052600260205260018060a01b0360406000205416151590565b84875260038252838720908154019055878652528320918254161790557fddf252ad1be2c89b69c2b068fc378daa952ba7f163c4a11628f55a4df523b3ef8180a4612624565b600b54908551928352868301527f92c4ae82457b93c1cf331ba7edc25c42b279a02ae829e0c61d148a945eabf675853393a4600a5551630a85bd0160e11b8152f35b604190634e487b7160e01b600052526000fd5b8c606492818e519362461bcd60e51b85528401528201527f4552433732313a206d696e7420746f20746865207a65726f20616464726573736044820152fd5b84601188634e487b7160e01b600052526000fd5b634e487b7160e01b8352601187528483fd5b611b3590611f83565b8b61188d565b8b513d84823e3d90fd5b634e487b7160e01b8352601188528583fd5b634e487b7160e01b8252601187528482fd5b8851630d4203cb60e41b81528590fd5b611b9091508b3d8d1161069b5761068d8183611fe5565b8b61180a565b89513d8a823e3d90fd5b845163629166db60e11b8152fd5b50600382116117aa565b845163c33b691760e01b8152fd5b905030148761179c565b9550506001906117af565b5083516303cb96db60e21b8152fd5b833461071c57606036600319011261071c57610719611c07611f3c565b6044359033906024359061285f565b90503461020a578160031936011261020a57611c30611f3c565b6024359290916001600160a01b0391908280611c4b876121ac565b16941693808514611d3757803314908115611d18575b5015611cb057848652602052842080546001600160a01b03191683179055611c88836121ac565b167f8c5be1e5ebec7d5bd14f71427d1e84f3dd0314c0f7b2291e5b200ac8c7c3b9258480a480f35b6020608492519162461bcd60e51b8352820152603d60248201527f4552433732313a20617070726f76652063616c6c6572206973206e6f7420746f60448201527f6b656e206f776e6572206f7220617070726f76656420666f7220616c6c0000006064820152fd5b90508652600560205281862033875260205260ff828720541638611c61565b506020608492519162461bcd60e51b8352820152602160248201527f4552433732313a20617070726f76616c20746f2063757272656e74206f776e656044820152603960f91b6064820152fd5b82843461071c57602036600319011261071c5750610980602092356121d2565b82843461071c578060031936011261071c5781519181825492600184811c91818616958615611e65575b60209687851081146108e4578899509688969785829a5291826000146108bd575050600114611e0a575050506103889291610379910385611fe5565b91908693508280527f290decd9548b62a8d60345a988386fc84ba6bc95484008f6362f93160ef3e5635b828410611e4d575050508201018161037961038861084f565b8054848a018601528895508794909301928101611e34565b92607f1692611dce565b84913461020a57602036600319011261020a573563ffffffff60e01b811680910361020a576020925063780e9d6360e01b8114908115611eb1575b5015158152f35b6380ac58cd60e01b811491508115611ee3575b8115611ed2575b5083611eaa565b6301ffc9a760e01b14905083611ecb565b635b5e139f60e01b81149150611ec4565b60005b838110611f075750506000910152565b8181015183820152602001611ef7565b90602091611f3081518092818552858086019101611ef4565b601f01601f1916010190565b600435906001600160a01b0382168203611f5257565b600080fd5b604435906001600160a01b0382168203611f5257565b602435906001600160a01b0382168203611f5257565b67ffffffffffffffff8111611f9757604052565b634e487b7160e01b600052604160045260246000fd5b60a0810190811067ffffffffffffffff821117611f9757604052565b6020810190811067ffffffffffffffff821117611f9757604052565b90601f8019910116810190811067ffffffffffffffff821117611f9757604052565b67ffffffffffffffff8111611f9757601f01601f191660200190565b906080600319830112611f52576001600160a01b03916004358381168103611f5257926024359081168103611f5257916044359160643567ffffffffffffffff8111611f525781602382011215611f525780600401359061208382612007565b926120916040519485611fe5565b82845260248383010111611f525781600092602460209301838601378301015290565b6060906003190112611f52576001600160a01b03906004358281168103611f5257916024359081168103611f52579060443590565b6001600160a01b0316801561210957600052600360205260406000205490565b60405162461bcd60e51b815260206004820152602960248201527f4552433732313a2061646472657373207a65726f206973206e6f7420612076616044820152683634b21037bbb732b960b91b6064820152608490fd5b1561216757565b60405162461bcd60e51b815260206004820152601860248201527f4552433732313a20696e76616c696420746f6b656e20494400000000000000006044820152606490fd5b6000908152600260205260409020546001600160a01b03166121cf811515612160565b90565b6000818152600260205260409020546121f5906001600160a01b03161515612160565b6000908152600460205260409020546001600160a01b031690565b1561221757565b60405162461bcd60e51b815260206004820152602d60248201527f4552433732313a2063616c6c6572206973206e6f7420746f6b656e206f776e6560448201526c1c881bdc88185c1c1c9bdd9959609a1b6064820152608490fd5b60809060208152603260208201527f4552433732313a207472616e7366657220746f206e6f6e20455243373231526560408201527131b2b4bb32b91034b6b83632b6b2b73a32b960711b60608201520190565b156122cc57565b60405162461bcd60e51b8152806122e560048201612272565b0390fd5b906001600160a01b0380806122fd846121ac565b16931691838314938415612330575b50831561231a575b50505090565b612326919293506121d2565b1614388080612314565b909350600052600560205260406000208260005260205260ff60406000205416923861230c565b1561235e57565b60405162461bcd60e51b815260206004820152602560248201527f4552433732313a207472616e736665722066726f6d20696e636f72726563742060448201526437bbb732b960d91b6064820152608490fd5b6123d5916123be846121ac565b6001600160a01b0393848416939185168414612357565b8382169384156125a2578391826124e9575090506008549085600052600960205281604060002055600160401b821015611f975761243b92612422876119c3856001899701600855612782565b8286036124b6575b50612434866121ac565b1614612357565b7fddf252ad1be2c89b69c2b068fc378daa952ba7f163c4a11628f55a4df523b3ef60008481526004602052604081206001600160601b0360a01b9081815416905583825260036020526040822060001981540190558482526040822060018154019055858252600260205284604083209182541617905580a4565b6124bf906120e9565b6040600087815260066020528181208382526020528882822055888152600760205220553861242a565b8583036124fb575b5061243b92612422565b6125069192506120e9565b60001981019190821161258c5761243b9284926000908882526020906007825260409182842054828103612555575b508a845283838120558684526006815282842091845252812055926124f1565b8785526006825283852083865282528385205488865260068352848620828752835280858720558552600782528385205538612535565b634e487b7160e01b600052601160045260246000fd5b60405162461bcd60e51b8152602060048201526024808201527f4552433732313a207472616e7366657220746f20746865207a65726f206164646044820152637265737360e01b6064820152608490fd5b6001600160a01b0391821681529116602082015260408101919091526080606082018190526121cf92910190611f17565b9192600092909190803b1561273657612672946040518092630a85bd0160e11b9485835233600484015287602484015260448301526080606483015281878160209a8b966084830190611f17565b03926001600160a01b03165af18491816126f6575b506126e5575050503d6000146126dd573d6126a181612007565b906126af6040519283611fe5565b81528091833d92013e5b805191826126da5760405162461bcd60e51b8152806122e560048201612272565b01fd5b5060606126b9565b6001600160e01b0319161492509050565b9091508581813d831161272f575b61270e8183611fe5565b8101031261065e57516001600160e01b03198116810361065e579038612687565b503d612704565b5050915050600190565b91936000939092909190813b15612777576040518092818781612672630a85bd0160e11b9889835260209c8d9833600486016125f3565b505050915050600190565b6008548110156127b95760086000527ff3f7a9fe364faab93b216da50a3214154f22a0a2b415b23a84c8169e8b636ee30190600090565b634e487b7160e01b600052603260045260246000fd5b604080516001600160a01b039485166020820152600181830152908152606081019390911667ffffffffffffffff841182851017611f975783604052803b15611f525783600080948294635c46a7ef60e11b845261283681605f19933033606484016125f3565b0301925af18015612853576128485750565b61285190611f83565b565b6040513d6000823e3d90fd5b604080516001600160a01b0394851660208201528082019590955284529091169161288b606082611fe5565b823b15611f52576128b89260009283604051809681958294635c46a7ef60e11b84523033600486016125f3565b03925af18015612853576128485750565b90816020910312611f5257516001600160a01b0381168103611f525790565b156128ef57565b60405162461bcd60e51b815260206004820152601c60248201527f4552433732313a20746f6b656e20616c7265616479206d696e746564000000006044820152606490fd5b61293d816121ac565b6001600160a01b03908082169081612a8057505060085482600052600960205280604060002055600160401b811015611f9757826119c38260016129849401600855612782565b600854600019808201929091831161258c5760009284845260096020526040906129b18286205491612782565b90549060031b1c6129c5816119c384612782565b855260096020528185205584845283818120556008548015612a6c5783016129ec81612782565b8582549160031b1b19169055600855612a04856121ac565b918585526004602052818520926001600160601b0360a01b9384815416905516928385526003602052818520908154019055848452600260205283209081541690557fddf252ad1be2c89b69c2b068fc378daa952ba7f163c4a11628f55a4df523b3ef8280a4565b634e487b7160e01b85526031600452602485fd5b612a89906120e9565b60001981019190821161258c5760009184835260206007815260409283852054838103612acf575b50868552848481205584526006815282842091845252812055612984565b8186526006835284862084875283528486205482875260068452858720828852845280868820558652600783528486205538612ab156fea164736f6c6343000812000a",
  "linkReferences": {},
  "deployedLinkReferences": {}
}