{
  "_format": "hh-sol-artifact-1",
  "contractName": "Token",
  "sourceName": "contracts/Token.sol",
  "abi": [
    {
      "inputs": [],
      "stateMutability": "nonpayable",
      "type": "constructor"
    },
    {
      "inputs": [],
      "name": "OnlyVault",
      "type": "error"
    },
    {
      "inputs": [],
      "name": "OnlyVaultOrSafe",
      "type": "error"
    },
    {
      "anonymous": false,
      "inputs": [
        {
          "indexed": true,
          "internalType": "address",
          "name": "owner",
          "type": "address"
        },
        {
          "indexed": true,
          "internalType": "address",
          "name": "spender",
          "type": "address"
        },
        {
          "indexed": false,
          "internalType": "uint256",
          "name": "value",
          "type": "uint256"
        }
      ],
      "name": "Approval",
      "type": "event"
    },
    {
      "anonymous": false,
      "inputs": [
        {
          "indexed": true,
          "internalType": "address",
          "name": "from",
          "type": "address"
        },
        {
          "indexed": true,
          "internalType": "address",
          "name": "to",
          "type": "address"
        },
        {
          "indexed": false,
          "internalType": "uint256",
          "name": "value",
          "type": "uint256"
        }
      ],
      "name": "Transfer",
      "type": "event"
    },
    {
      "inputs": [
        {
          "internalType": "address",
          "name": "",
          "type": "address"
        },
        {
          "internalType": "address",
          "name": "",
          "type": "address"
        }
      ],
      "name": "allowance",
      "outputs": [
        {
          "internalType": "uint256",
          "name": "",
          "type": "uint256"
        }
      ],
      "stateMutability": "view",
      "type": "function"
    },
    {
      "inputs": [
        {
          "internalType": "address",
          "name": "spender",
          "type": "address"
        },
        {
          "internalType": "uint256",
          "name": "value",
          "type": "uint256"
        }
      ],
      "name": "approve",
      "outputs": [
        {
          "internalType": "bool",
          "name": "",
          "type": "bool"
        }
      ],
      "stateMutability": "nonpayable",
      "type": "function"
    },
    {
      "inputs": [
        {
          "internalType": "address",
          "name": "",
          "type": "address"
        }
      ],
      "name": "balanceOf",
      "outputs": [
        {
          "internalType": "uint256",
          "name": "",
          "type": "uint256"
        }
      ],
      "stateMutability": "view",
      "type": "function"
    },
    {
      "inputs": [
        {
          "internalType": "uint256",
          "name": "amount",
          "type": "uint256"
        }
      ],
      "name": "burn",
      "outputs": [],
      "stateMutability": "nonpayable",
      "type": "function"
    },
    {
      "inputs": [
        {
          "internalType": "address",
          "name": "account",
          "type": "address"
        },
        {
          "internalType": "uint256",
          "name": "amount",
          "type": "uint256"
        }
      ],
      "name": "burnFrom",
      "outputs": [],
      "stateMutability": "nonpayable",
      "type": "function"
    },
    {
      "inputs": [],
      "name": "collectionId",
      "outputs": [
        {
          "internalType": "uint256",
          "name": "",
          "type": "uint256"
        }
      ],
      "stateMutability": "view",
      "type": "function"
    },
    {
      "inputs": [],
      "name": "decimals",
      "outputs": [
        {
          "internalType": "uint8",
          "name": "",
          "type": "uint8"
        }
      ],
      "stateMutability": "view",
      "type": "function"
    },
    {
      "inputs": [
        {
          "internalType": "uint256",
          "name": "_collectionId",
          "type": "uint256"
        }
      ],
      "name": "initialize",
      "outputs": [],
      "stateMutability": "nonpayable",
      "type": "function"
    },
    {
      "inputs": [
        {
          "internalType": "address",
          "name": "to",
          "type": "address"
        },
        {
          "internalType": "uint256",
          "name": "amount",
          "type": "uint256"
        }
      ],
      "name": "mint",
      "outputs": [],
      "stateMutability": "nonpayable",
      "type": "function"
    },
    {
      "inputs": [],
      "name": "name",
      "outputs": [
        {
          "internalType": "string",
          "name": "",
          "type": "string"
        }
      ],
      "stateMutability": "view",
      "type": "function"
    },
    {
      "inputs": [],
      "name": "safe",
      "outputs": [
        {
          "internalType": "address",
          "name": "",
          "type": "address"
        }
      ],
      "stateMutability": "view",
      "type": "function"
    },
    {
      "inputs": [],
      "name": "symbol",
      "outputs": [
        {
          "internalType": "string",
          "name": "",
          "type": "string"
        }
      ],
      "stateMutability": "view",
      "type": "function"
    },
    {
      "inputs": [],
      "name": "totalSupply",
      "outputs": [
        {
          "internalType": "uint256",
          "name": "",
          "type": "uint256"
        }
      ],
      "stateMutability": "view",
      "type": "function"
    },
    {
      "inputs": [
        {
          "internalType": "address",
          "name": "to",
          "type": "address"
        },
        {
          "internalType": "uint256",
          "name": "value",
          "type": "uint256"
        }
      ],
      "name": "transfer",
      "outputs": [
        {
          "internalType": "bool",
          "name": "",
          "type": "bool"
        }
      ],
      "stateMutability": "nonpayable",
      "type": "function"
    },
    {
      "inputs": [
        {
          "internalType": "address",
          "name": "from",
          "type": "address"
        },
        {
          "internalType": "address",
          "name": "to",
          "type": "address"
        },
        {
          "internalType": "uint256",
          "name": "value",
          "type": "uint256"
        }
      ],
      "name": "transferFrom",
      "outputs": [
        {
          "internalType": "bool",
          "name": "",
          "type": "bool"
        }
      ],
      "stateMutability": "nonpayable",
      "type": "function"
    },
    {
      "inputs": [],
      "name": "underlying",
      "outputs": [
        {
          "internalType": "address",
          "name": "collection",
          "type": "address"
        },
        {
          "internalType": "uint256",
          "name": "tokenId",
          "type": "uint256"
        }
      ],
      "stateMutability": "view",
      "type": "function"
    },
    {
      "inputs": [],
      "name": "vault",
      "outputs": [
        {
          "internalType": "address",
          "name": "",
          "type": "address"
        }
      ],
      "stateMutability": "view",
      "type": "function"
    }
  ],
  "bytecode": "0x60a080604052346100535733608052610aa29081610059823960805181818160fd015281816101cd015281816102aa015281816103c601528181610489015281816105080152818161057a01526107b70152f35b600080fdfe608060408181526004908136101561001657600080fd5b60009283803560e01c91826306fdde031461078a5750508063095ea7b31461071957806318160ddd146106fc578063186f0354146106d357806323b872dd14610653578063313ce567146106375780633d26bb671461061957806340c10f191461054f57806342966c68146104f45780636f307dc31461045957806370a082311461042157806379cc6790146103a157806395d89b411461027a578063a9059cbb14610249578063dd62ed3e14610200578063fbfa77cf146101b85763fe4b84df146100e157600080fd5b346101b45760203660031901126101b4576001600160a01b03917f0000000000000000000000000000000000000000000000000000000000000000831690338290036101a65780358155825163061bc0d560e21b8152916020918391829088905af191821561019d5750839161016f575b50166bffffffffffffffffffffffff60a01b600354161760035580f35b610190915060203d8111610196575b61018881836108d6565b81019061090e565b38610152565b503d61017e565b513d85823e3d90fd5b8251638d1af8bd60e01b8152fd5b8280fd5b8382346101fc57816003193601126101fc57517f00000000000000000000000000000000000000000000000000000000000000006001600160a01b03168152602090f35b5080fd5b8382346101fc57806003193601126101fc578060209261021e6108a5565b6102266108c0565b6001600160a01b0391821683526002865283832091168252845220549051908152f35b8382346101fc57806003193601126101fc576020906102736102696108a5565b6024359033610a27565b5160018152f35b50346101b457826003193601126101b4578051633ef0f29b60e11b81526001600160a01b039284919060208282817f000000000000000000000000000000000000000000000000000000000000000089165afa918215610397578392610377575b5083516395d89b4160e01b81529485928391165afa91821561036d57836103449493610348575b505061033a602182518094605f60f81b602083015261032a8151809260208686019101610856565b81010360018101855201836108d6565b5191829182610879565b0390f35b6103659293503d8091833e61035d81836108d6565b81019061092d565b903880610302565b81513d85823e3d90fd5b61039091925060203d81116101965761018881836108d6565b90386102db565b84513d85823e3d90fd5b5090346101b457816003193601126101b4576103bb6108a5565b9160018060a01b03807f0000000000000000000000000000000000000000000000000000000000000000163314159081610412575b506104055783610402602435856109c9565b80f35b51633c61e6ff60e11b8152fd5b905060035416331415386103f0565b8382346101fc5760203660031901126101fc5760209181906001600160a01b036104496108a5565b1681526001845220549051908152f35b509190346101fc57816003193601126101fc578251633ef0f29b60e11b81526001600160a01b03919060208183817f000000000000000000000000000000000000000000000000000000000000000087165afa9384156104e957936104c9575b5054908351921682526020820152f35b6104e291935060203d81116101965761018881836108d6565b91386104b9565b8551903d90823e3d90fd5b50346101b45760203660031901126101b4577f00000000000000000000000000000000000000000000000000000000000000006001600160a01b0316330361054257506104029035336109c9565b51638d1af8bd60e01b8152fd5b5090346101b457816003193601126101b4576105696108a5565b602435916001600160a01b039190337f0000000000000000000000000000000000000000000000000000000000000000841614158061060b575b6105fd5750827fddf252ad1be2c89b69c2b068fc378daa952ba7f163c4a11628f55a4df523b3ef926020926105da88968754610999565b86551694858552600183528085206105f3838254610999565b905551908152a380f35b8451633c61e6ff60e11b8152fd5b5082600354163314156105a3565b5090346101b457826003193601126101b45760209250549051908152f35b8382346101fc57816003193601126101fc576020905160128152f35b8382346101fc5760603660031901126101fc576102736020926106746108a5565b61067c6108c0565b90846044359360018060a01b03831680825260028952828220338352895260001983832054036106af575b505050610a27565b8152600288528181203382528852206106c98482546109bc565b90558487806106a7565b8382346101fc57816003193601126101fc5760035490516001600160a01b039091168152602090f35b8382346101fc57816003193601126101fc57602091549051908152f35b8382346101fc57806003193601126101fc57602091816107376108a5565b91602435918291338152600287528181209460018060a01b0316948582528752205582519081527f8c5be1e5ebec7d5bd14f71427d1e84f3dd0314c0f7b2291e5b200ac8c7c3b925843392a35160018152f35b909150346101fc57816003193601126101fc57633ef0f29b60e11b81526001600160a01b039360208282817f000000000000000000000000000000000000000000000000000000000000000089165afa918215610397578392610836575b5083516306fdde0360e01b81529485928391165afa91821561036d5783610344949361034857505061033a602182518094605f60f81b602083015261032a8151809260208686019101610856565b61084f91925060203d81116101965761018881836108d6565b90386107e8565b60005b8381106108695750506000910152565b8181015183820152602001610859565b604091602082526108998151809281602086015260208686019101610856565b601f01601f1916010190565b600435906001600160a01b03821682036108bb57565b600080fd5b602435906001600160a01b03821682036108bb57565b90601f8019910116810190811067ffffffffffffffff8211176108f857604052565b634e487b7160e01b600052604160045260246000fd5b908160209103126108bb57516001600160a01b03811681036108bb5790565b6020818303126108bb57805167ffffffffffffffff918282116108bb57019082601f830112156108bb5781519081116108f85760405192610978601f8301601f1916602001856108d6565b818452602082840101116108bb576109969160208085019101610856565b90565b919082018092116109a657565b634e487b7160e01b600052601160045260246000fd5b919082039182116109a657565b907fddf252ad1be2c89b69c2b068fc378daa952ba7f163c4a11628f55a4df523b3ef602060009360018060a01b0316928385526001825260408520610a0f8282546109bc565b9055610a1c8186546109bc565b8555604051908152a3565b60207fddf252ad1be2c89b69c2b068fc378daa952ba7f163c4a11628f55a4df523b3ef9160018060a01b038091169384600052600183526040600020610a6e8782546109bc565b9055169384600052600182526040600020610a8a828254610999565b9055604051908152a356fea164736f6c6343000812000a",
  "linkReferences": {},
  "deployedLinkReferences": {}
}