{
  "_format": "hh-sol-artifact-1",
  "contractName": "Vault",
  "sourceName": "contracts/Vault.sol",
  "abi": [
    {
      "inputs": [],
      "stateMutability": "nonpayable",
      "type": "constructor"
    },
    {
      "inputs": [],
      "name": "ActionNotSupported",
      "type": "error"
    },
    {
      "inputs": [],
      "name": "IncorrectAmount",
      "type": "error"
    },
    {
      "inputs": [],
      "name": "IncorrectCollection",
      "type": "error"
    },
    {
      "inputs": [],
      "name": "IncorrectCollectionType",
      "type": "error"
    },
    {
      "inputs": [],
      "name": "IncorrectParams",
      "type": "error"
    },
    {
      "inputs": [],
      "name": "IncorrectReceiver",
      "type": "error"
    },
    {
      "inputs": [],
      "name": "Locked",
      "type": "error"
    },
    {
      "inputs": [],
      "name": "NotANFT",
      "type": "error"
    },
    {
      "inputs": [],
      "name": "UnknownAction",
      "type": "error"
    },
    {
      "inputs": [],
      "name": "VaultNotOwnerOfTheNFT",
      "type": "error"
    },
    {
      "anonymous": false,
      "inputs": [
        {
          "indexed": true,
          "internalType": "address",
          "name": "to",
          "type": "address"
        },
        {
          "indexed": true,
          "internalType": "uint256",
          "name": "id",
          "type": "uint256"
        },
        {
          "indexed": false,
          "internalType": "uint256",
          "name": "amounts",
          "type": "uint256"
        }
      ],
      "name": "Deposit",
      "type": "event"
    },
    {
      "anonymous": false,
      "inputs": [
        {
          "indexed": true,
          "internalType": "address",
          "name": "to",
          "type": "address"
        },
        {
          "indexed": false,
          "internalType": "uint256[]",
          "name": "ids",
          "type": "uint256[]"
        },
        {
          "indexed": false,
          "internalType": "uint256[]",
          "name": "amounts",
          "type": "uint256[]"
        }
      ],
      "name": "DepositBatch",
      "type": "event"
    },
    {
      "anonymous": false,
      "inputs": [
        {
          "indexed": false,
          "internalType": "uint8",
          "name": "version",
          "type": "uint8"
        }
      ],
      "name": "Initialized",
      "type": "event"
    },
    {
      "anonymous": false,
      "inputs": [
        {
          "indexed": true,
          "internalType": "address",
          "name": "to",
          "type": "address"
        },
        {
          "indexed": true,
          "internalType": "uint256",
          "name": "fromId",
          "type": "uint256"
        },
        {
          "indexed": true,
          "internalType": "uint256",
          "name": "toId",
          "type": "uint256"
        }
      ],
      "name": "Swap",
      "type": "event"
    },
    {
      "anonymous": false,
      "inputs": [
        {
          "indexed": true,
          "internalType": "address",
          "name": "token",
          "type": "address"
        },
        {
          "indexed": true,
          "internalType": "uint256",
          "name": "id",
          "type": "uint256"
        }
      ],
      "name": "TokenCreated",
      "type": "event"
    },
    {
      "anonymous": false,
      "inputs": [
        {
          "indexed": true,
          "internalType": "address",
          "name": "to",
          "type": "address"
        },
        {
          "indexed": true,
          "internalType": "uint256",
          "name": "id",
          "type": "uint256"
        },
        {
          "indexed": false,
          "internalType": "uint256",
          "name": "amounts",
          "type": "uint256"
        }
      ],
      "name": "Withdraw",
      "type": "event"
    },
    {
      "anonymous": false,
      "inputs": [
        {
          "indexed": true,
          "internalType": "address",
          "name": "to",
          "type": "address"
        },
        {
          "indexed": false,
          "internalType": "uint256[]",
          "name": "ids",
          "type": "uint256[]"
        },
        {
          "indexed": false,
          "internalType": "uint256[]",
          "name": "amounts",
          "type": "uint256[]"
        }
      ],
      "name": "WithdrawBatch",
      "type": "event"
    },
    {
      "inputs": [],
      "name": "collection",
      "outputs": [
        {
          "internalType": "address",
          "name": "",
          "type": "address"
        }
      ],
      "stateMutability": "view",
      "type": "function"
    },
    {
      "inputs": [],
      "name": "collectionType",
      "outputs": [
        {
          "internalType": "enum MandibleLibrary.CollectionType",
          "name": "",
          "type": "uint8"
        }
      ],
      "stateMutability": "view",
      "type": "function"
    },
    {
      "inputs": [
        {
          "internalType": "uint256[]",
          "name": "tokenIds",
          "type": "uint256[]"
        }
      ],
      "name": "deposit",
      "outputs": [],
      "stateMutability": "nonpayable",
      "type": "function"
    },
    {
      "inputs": [
        {
          "internalType": "uint256[]",
          "name": "tokenIds",
          "type": "uint256[]"
        },
        {
          "internalType": "uint256[]",
          "name": "amounts",
          "type": "uint256[]"
        }
      ],
      "name": "deposit1155",
      "outputs": [],
      "stateMutability": "nonpayable",
      "type": "function"
    },
    {
      "inputs": [
        {
          "internalType": "uint256[]",
          "name": "tokenIds",
          "type": "uint256[]"
        },
        {
          "internalType": "uint256[]",
          "name": "amounts",
          "type": "uint256[]"
        },
        {
          "internalType": "address",
          "name": "to",
          "type": "address"
        }
      ],
      "name": "deposit1155To",
      "outputs": [],
      "stateMutability": "nonpayable",
      "type": "function"
    },
    {
      "inputs": [
        {
          "internalType": "uint256[]",
          "name": "tokenIds",
          "type": "uint256[]"
        },
        {
          "internalType": "address",
          "name": "to",
          "type": "address"
        }
      ],
      "name": "depositTo",
      "outputs": [],
      "stateMutability": "nonpayable",
      "type": "function"
    },
    {
      "inputs": [],
      "name": "getERC20Address",
      "outputs": [
        {
          "internalType": "address",
          "name": "",
          "type": "address"
        }
      ],
      "stateMutability": "view",
      "type": "function"
    },
    {
      "inputs": [
        {
          "internalType": "uint256",
          "name": "tokenId",
          "type": "uint256"
        }
      ],
      "name": "getERC20Address1155",
      "outputs": [
        {
          "internalType": "address",
          "name": "",
          "type": "address"
        }
      ],
      "stateMutability": "view",
      "type": "function"
    },
    {
      "inputs": [
        {
          "internalType": "address",
          "name": "_collection",
          "type": "address"
        },
        {
          "internalType": "address",
          "name": "_to",
          "type": "address"
        },
        {
          "internalType": "address",
          "name": "_safe",
          "type": "address"
        }
      ],
      "name": "initialize",
      "outputs": [],
      "stateMutability": "nonpayable",
      "type": "function"
    },
    {
      "inputs": [
        {
          "internalType": "address",
          "name": "",
          "type": "address"
        },
        {
          "internalType": "address",
          "name": "from",
          "type": "address"
        },
        {
          "internalType": "uint256[]",
          "name": "ids",
          "type": "uint256[]"
        },
        {
          "internalType": "uint256[]",
          "name": "values",
          "type": "uint256[]"
        },
        {
          "internalType": "bytes",
          "name": "data",
          "type": "bytes"
        }
      ],
      "name": "onERC1155BatchReceived",
      "outputs": [
        {
          "internalType": "bytes4",
          "name": "",
          "type": "bytes4"
        }
      ],
      "stateMutability": "nonpayable",
      "type": "function"
    },
    {
      "inputs": [
        {
          "internalType": "address",
          "name": "",
          "type": "address"
        },
        {
          "internalType": "address",
          "name": "from",
          "type": "address"
        },
        {
          "internalType": "uint256",
          "name": "id",
          "type": "uint256"
        },
        {
          "internalType": "uint256",
          "name": "value",
          "type": "uint256"
        },
        {
          "internalType": "bytes",
          "name": "data",
          "type": "bytes"
        }
      ],
      "name": "onERC1155Received",
      "outputs": [
        {
          "internalType": "bytes4",
          "name": "",
          "type": "bytes4"
        }
      ],
      "stateMutability": "nonpayable",
      "type": "function"
    },
    {
      "inputs": [
        {
          "internalType": "address",
          "name": "",
          "type": "address"
        },
        {
          "internalType": "address",
          "name": "from",
          "type": "address"
        },
        {
          "internalType": "uint256",
          "name": "tokenId",
          "type": "uint256"
        },
        {
          "internalType": "bytes",
          "name": "data",
          "type": "bytes"
        }
      ],
      "name": "onERC721Received",
      "outputs": [
        {
          "internalType": "bytes4",
          "name": "",
          "type": "bytes4"
        }
      ],
      "stateMutability": "nonpayable",
      "type": "function"
    },
    {
      "inputs": [],
      "name": "safe",
      "outputs": [
        {
          "internalType": "address",
          "name": "",
          "type": "address"
        }
      ],
      "stateMutability": "view",
      "type": "function"
    },
    {
      "inputs": [
        {
          "internalType": "bytes4",
          "name": "interfaceId",
          "type": "bytes4"
        }
      ],
      "name": "supportsInterface",
      "outputs": [
        {
          "internalType": "bool",
          "name": "",
          "type": "bool"
        }
      ],
      "stateMutability": "pure",
      "type": "function"
    },
    {
      "inputs": [
        {
          "internalType": "uint256[]",
          "name": "tokenIds",
          "type": "uint256[]"
        },
        {
          "internalType": "uint256[]",
          "name": "wantedIds",
          "type": "uint256[]"
        }
      ],
      "name": "swap",
      "outputs": [],
      "stateMutability": "nonpayable",
      "type": "function"
    },
    {
      "inputs": [
        {
          "internalType": "uint256[]",
          "name": "tokenIds",
          "type": "uint256[]"
        },
        {
          "internalType": "uint256[]",
          "name": "wantedIds",
          "type": "uint256[]"
        },
        {
          "internalType": "address",
          "name": "to",
          "type": "address"
        }
      ],
      "name": "swapTo",
      "outputs": [],
      "stateMutability": "nonpayable",
      "type": "function"
    },
    {
      "inputs": [
        {
          "internalType": "uint256",
          "name": "",
          "type": "uint256"
        }
      ],
      "name": "tokenAddresses",
      "outputs": [
        {
          "internalType": "address",
          "name": "",
          "type": "address"
        }
      ],
      "stateMutability": "view",
      "type": "function"
    },
    {
      "inputs": [
        {
          "internalType": "uint256[]",
          "name": "tokenIds",
          "type": "uint256[]"
        }
      ],
      "name": "withdraw",
      "outputs": [],
      "stateMutability": "nonpayable",
      "type": "function"
    },
    {
      "inputs": [
        {
          "internalType": "uint256",
          "name": "tokenId",
          "type": "uint256"
        },
        {
          "internalType": "uint256",
          "name": "nftAmount",
          "type": "uint256"
        }
      ],
      "name": "withdraw1155",
      "outputs": [],
      "stateMutability": "nonpayable",
      "type": "function"
    },
    {
      "inputs": [
        {
          "internalType": "uint256",
          "name": "tokenId",
          "type": "uint256"
        },
        {
          "internalType": "uint256",
          "name": "nftAmount",
          "type": "uint256"
        },
        {
          "internalType": "address",
          "name": "to",
          "type": "address"
        }
      ],
      "name": "withdraw1155To",
      "outputs": [],
      "stateMutability": "nonpayable",
      "type": "function"
    },
    {
      "inputs": [
        {
          "internalType": "uint256[]",
          "name": "tokenIds",
          "type": "uint256[]"
        },
        {
          "internalType": "uint256[]",
          "name": "amounts",
          "type": "uint256[]"
        }
      ],
      "name": "withdrawBatch1155",
      "outputs": [],
      "stateMutability": "nonpayable",
      "type": "function"
    },
    {
      "inputs": [
        {
          "internalType": "uint256[]",
          "name": "tokenIds",
          "type": "uint256[]"
        },
        {
          "internalType": "uint256[]",
          "name": "amounts",
          "type": "uint256[]"
        },
        {
          "internalType": "address",
          "name": "to",
          "type": "address"
        }
      ],
      "name": "withdrawBatch1155To",
      "outputs": [],
      "stateMutability": "nonpayable",
      "type": "function"
    },
    {
      "inputs": [
        {
          "internalType": "uint256[]",
          "name": "tokenIds",
          "type": "uint256[]"
        },
        {
          "internalType": "address",
          "name": "to",
          "type": "address"
        }
      ],
      "name": "withdrawTo",
      "outputs": [],
      "stateMutability": "nonpayable",
      "type": "function"
    }
  ],
  "bytecode": "0x6080806040523461001a5760018055615d0790816100208239f35b600080fdfe608060408181526004803610156200001657600080fd5b600092833560e01c90816301ffc9a7146200242e575080630a3cb72e14620021e3578063150b7a021462002172578063186f0354146200214757806344ab39751462001f25578063461ed81a1462001d41578063598b8e711462001b735780636afedaeb14620008425780636ed929ae1462001b2d5780637de1e5361462001b02578063983d95ce14620018f5578063b22f32651462001756578063b9f890de1462001725578063bbc6ed481462001568578063bc197c8114620012ab578063bd8e35b714620010e4578063c0c53b8b1462000bd7578063c6ff59c31462000a29578063d0f76e6b1462000875578063e5df8b841462000842578063f23a6e6114620005ba578063f9f1b23e146200034f5763fad272bf146200013857600080fd5b346200034b5762000149366200267e565b6002949293919492600195848754146200033b5784875580156200032b5760ff60035460a01c16858110156200031857620003085787805260208481528289205490936001600160a01b039290918316670de0b6b3a76400008202670de0b6b3a763ffff1983820401620002f5578b90823b15620002f157865163079cc67960e41b815233818b01908152602081019290925292839182908490829060400103925af18015620002e757620002d5575b50899789805b6200020c575b8b8b805580f35b15620002c6575b8a620002218a848462002bc5565b35858a54169a8b3b15620002c2578d885190635c46a7ef60e11b8252308c830152818989169e8f6024830152856044830152606482016080905282608483015281835a9260a493f18015620002b6579162000286918f9493620002a4575b5062002bec565b9b60008051602062005cdb8339815191528a8a51858152a3620001ff565b620002af9062002587565b386200027f565b8f8a51903d90823e3d90fd5b8d80fd5b81891062000213578062000205565b620002e09062002587565b38620001f9565b85513d8d823e3d90fd5b5080fd5b634e487b7160e01b8c526011885260248cfd5b8151637b21608560e01b81528490fd5b634e487b7160e01b895260218552602489fd5b81516334b2073960e11b81528490fd5b81516303cb96db60e21b81528490fd5b8280fd5b5090346200034b57620003623662002618565b9192949395906001956002875414620005aa5760028755801580156200059f575b6200058f57889787805b6200039a575b8a89805580f35b1562000580575b89620003af8a848462002bc5565b35620003bd8b868a62002bc5565b359060ff60035460a01c1660028110156200056d576200055d5760018060a01b038d8160025416918c51916331a9108f60e11b8352858b8401526020928381602481885afa91821562000552579162000510575b50813091160362000500578f9192620004648e94620004558e94875195620004398762002555565b6002875216968783870152898187015251948592830162002c65565b03601f1981018452836200259b565b803b156200034b57620004969183918f838e89925196879586948593635c46a7ef60e11b855230903390860162002cda565b03925af18015620004f6578e9f9492620004dd9694927f77f92a1b6a1a11de8ca49515ad4c1fad45632dd3442167d74b90b304a3c7a75892620004e4575b5080a462002bec565b996200038d565b620004ef9062002587565b38620004d4565b8d513d84823e3d90fd5b8c5163074752d160e21b81528a90fd5b90508281813d83116200054a575b6200052a81836200259b565b8101031262000545576200053e9062002700565b3862000411565b508f80fd5b503d6200051e565b8f51903d90823e3d90fd5b8951637b21608560e01b81528790fd5b634e487b7160e01b8e526021885260248efd5b818910620003a1578062000393565b855163586be56960e01b81528390fd5b508181141562000383565b85516303cb96db60e21b81528390fd5b5091346200083f5760a03660031901126200083f57620005d962002510565b50620005e462002527565b6084356001600160401b0381116200034b57620006059036908601620025bd565b6002546001600160a01b03908116939092909133851480159062000821575b620008115762000633620026df565b50805115620007ec576200065291506020808251830101910162002715565b6020810193838551168015908115620007e1575b50620007d15781516003811015620007be57600103620006e657505060ff60035460a01c16906002821015620006d3575060209450620006ba57620006ad91511662002d0d565b5163f23a6e6160e01b8152f35b620006cd91511660643560443562002ee5565b620006ad565b634e487b7160e01b815260218652602490fd5b9195938193915160038110156200079b57600203620007ae5760ff60035460a01c1660028110156200079b576200078b57869392918691511692015193813b1562000787578360649287519687958694632142170760e11b86523090860152602485015260448401525af180156200077b576020935062000769575b50620006ad565b620007749062002587565b3862000762565b505051903d90823e3d90fd5b8380fd5b8551633437e5f360e21b81528590fd5b634e487b7160e01b885260218652602488fd5b855163211bf9ef60e21b81528590fd5b634e487b7160e01b845260218852602484fd5b855163c33b691760e01b81528790fd5b905030143862000666565b5082855191620007fc8362002555565b60018352166020820152818582015262000652565b855163c1b95c4760e01b81528790fd5b5060ff60035460a01c166002811015620007be576001141562000624565b80fd5b50346200034b5760203660031901126200034b57803583526020908152918190205490516001600160a01b039091168152f35b50346200034b576200088736620024bf565b600192919294600286541462000a1b57600286558215801562000a10575b62000a025760ff60035460a01c166002811015620009ef578603620009e15787620004558851620008d68162002555565b888152336020820152828a8201526200090360018060a01b0360025416918b519384916020830162002c65565b803b156200034b5785836200094e95620009738a8c968f6200096390519a8b998a988997631759616b60e11b8952339089015230602489015260a0604489015260a488019162002c12565b8c600319948588840301606489015262002c12565b9184830301608485015262002c98565b03925af18015620009d75796620009bd92917fa9caebbb434dc508dda50d991f48d3034720d27cf9cf537225c6532b4fd390a4969798620009c5575b505193849333978562002c37565b0390a2805580f35b620009d09062002587565b38620009af565b87513d8a823e3d90fd5b8651637b21608560e01b8152fd5b634e487b7160e01b895260218252602489fd5b86516334b2073960e11b8152fd5b5081831415620008a5565b86516303cb96db60e21b8152fd5b50346200034b5760603660031901126200034b578035916024359062000a4e6200253e565b6002600154146200033b57600260015582156200032b5760ff60035460a01c16600281101562000bc45760010362000308578486526020849052818620546001600160a01b039190670de0b6b3a76400008502908316670de0b6b3a763ffff198683040162000bb15790818993923b156200078757855163079cc67960e41b815233818a019081526020810193909352918491839182908490829060400103925af1801562000ba75762000b95575b50826002541695863b156200034b5760c4908386519586948593637921219560e11b8552309085015216988960248401528a604484015288606484015260a060848401528160a48401525af1801562000b8b579160008051602062005cdb833981519152939160209362000b79575b5051908152a36001805580f35b62000b849062002587565b3862000b6c565b82513d88823e3d90fd5b62000ba09062002587565b3862000afd565b85513d85823e3d90fd5b634e487b7160e01b895260118752602489fd5b634e487b7160e01b875260218552602487fd5b50346200034b5760603660031901126200034b5762000bf562002510565b9062000c0062002527565b9162000c0b6200253e565b9285549260ff8460081c161593848095620010d6575b8015620010bd575b15620010635760ff19811660011788558462001051575b5060018060a01b03809316916001600160601b0360a01b9383856002541617600255875193896301ffc9a760e01b958681526380ac58cd60e01b868201526020996024978b838a81885afa92831562001047578c949362001023575b50821562000f915750846003549116906affffffffffffffffffffff60a81b16176003555b62000d0e575b5050505050505062000cd7578280f35b7f7f26b83ff96e1f2b6a682f133852f6798a09c465da95921460cefb38474024989161ff001984541684555160018152a138808280f35b85918a51968780926370a0823160e01b825230898301525afa94851562000f87578a9562000f4e575b50841595861562000d4b575b508762000cc7565b8a9662000f3e57670de0b6b3a76400008087029687040362000f2c57858b8052858a52838b8d20541692831562000dff575b5050501691823b1562000dfb5787516340c10f1960e01b81526001600160a01b039092169082019081526020810193909352918391839182908490829060400103925af1801562000df15762000dd9575b808080808062000d43565b62000de5829162002587565b6200083f578062000dce565b85513d84823e3d90fd5b8480fd5b91965091506002548a518a8101916001600160601b03199060601b1682528c60348201526034815262000e328162002555565b5190208a51610afb808201908282106001600160401b0383111762000f1a57908291620030cf833903908df5801562000f10578316958b8052858a52868b8d2091825416179055853b1562000f0c57895163fe4b84df60e01b81528581018c90528b818381838b5af1801562000f025762000eec575b50662386f26fc10000820180921162000edb575093858160008051602062005cbb8339815191528280a338808062000d7d565b634e487b7160e01b87526011855286fd5b62000ef991975062002587565b89953862000ea8565b8b513d8e823e3d90fd5b8a80fd5b8a513d8d823e3d90fd5b634e487b7160e01b8f5260418952848ffd5b50634e487b7160e01b8a526011845289fd5b89516334b2073960e11b81528590fd5b9094508781813d831162000f7f575b62000f6981836200259b565b8101031262000f7b5751933862000d37565b8980fd5b503d62000f5d565b89513d8c823e3d90fd5b8c51908152636cdb3d1360e11b888201529192508a9050818881865afa90811562000f02578c9162000fef575b501562000fe0576003805460ff60a01b1916600160a01b179055889062000cc1565b895162c0806360e11b81528590fd5b6200101491508a3d8c116200101b575b6200100b81836200259b565b810190620026c5565b3862000fbe565b503d62000fff565b6200103f919350843d86116200101b576200100b81836200259b565b913862000c9c565b8d513d86823e3d90fd5b61ffff19166101011787553862000c40565b865162461bcd60e51b8152602081840152602e60248201527f496e697469616c697a61626c653a20636f6e747261637420697320616c72656160448201526d191e481a5b9a5d1a585b1a5e995960921b6064820152608490fd5b50303b15801562000c295750600160ff82161462000c29565b50600160ff82161062000c21565b50346200034b57816003193601126200034b57803591602435916002600154146200129d57600260015582156200128f5760ff60035460a01c1660028110156200127c576001036200126e578385526020819052818520546001600160a01b0390670de0b6b3a76400008502908216670de0b6b3a763ffff19868304016200125b579081889493923b1562000dfb57855163079cc67960e41b8152338582019081526020810193909352918591839182908490829060400103925af1801562001251576200123f575b5060025416803b156200034b5760c4839285519485938492637921219560e11b8452309084015233602484015289604484015288606484015260a060848401528160a48401525af18015620012355762001223575b505190815260008051602062005cdb83398151915260203392a36001805580f35b6200122e9062002587565b3862001202565b82513d87823e3d90fd5b6200124a9062002587565b38620011ad565b85513d86823e3d90fd5b634e487b7160e01b885260118452602488fd5b9051637b21608560e01b8152fd5b634e487b7160e01b865260218252602486fd5b90516334b2073960e11b8152fd5b90516303cb96db60e21b8152fd5b50346200034b5760a03660031901126200034b57620012c962002510565b50620012d462002527565b6001600160401b036044358181116200156457620012f6903690850162002487565b9290606435838111620015605762001312903690870162002487565b926084359085821162000f7b573660238301121562000f7b578188013595861162000f7b578582019036602483011162000f0c576002546001600160a01b039790881633148015906200152f575b6200151f578815801562001514575b62001504576200137e620026df565b5015620014d25750816060910312620014ce578751926200139f8462002555565b6024820135600381101562000f0c578452604482013593868516850362000f0c576064620013e193620013ea96602084015201358a820152965b369162002b69565b92369162002b69565b956020840193838551168015908115620014c3575b50620014b35751946003861015620014a05760019586036200149257508085805b6200143e575b50505050505050602091505163bc197c8160e01b8152f35b1562001482575b6200147a8291620014746200145b8287620030b9565b5162001468838d620030b9565b51888a51169162002ee5565b62002bec565b908662001420565b8251811062001445578062001426565b8651633437e5f360e21b8152fd5b634e487b7160e01b825260219052602490fd5b865163c33b691760e01b81528690fd5b9050301438620013ff565b8880fd5b620013e19250620013ea949150868a5191620014ee8362002555565b600183521660208201528a8a82015296620013d9565b8a516334b2073960e11b81528a90fd5b50868914156200136f565b8a5163c1b95c4760e01b81528a90fd5b5060ff60035460a01c1660028110156200154d576001141562001360565b634e487b7160e01b8d5260218b5260248dfd5b8780fd5b8580fd5b50346200034b576200157a366200267e565b91600294916001958087541462001715578087558115620017055760ff60035460a01c1681811015620016f257620016e2578796959486805b620015c0575b8988805580f35b15620016d3575b86888385888d620004558a6200161f8398855190620015e68262002555565b8152620016106020998a8301988d60018060a01b039b8c8092168c52898b87015254169562002bc5565b3595519384918a830162002c65565b803b156200034b576200164d93838f8f5196879586948593635c46a7ef60e11b855230903390860162002cda565b03925af18015620016c757918c9d9391620016ab95939d9c9d620016b5575b5051167f90890809c654f11d6e72a28fa60149770a0d11ec6c92319d6ceb2bb0a4ea1a156200169d848a8c62002bc5565b35928b518d8152a362002bec565b96979698620015b3565b620016c09062002587565b386200166c565b8e8b51903d90823e3d90fd5b828810620015c75780620015b9565b8351637b21608560e01b81528690fd5b634e487b7160e01b895260218752602489fd5b83516334b2073960e11b81528690fd5b83516303cb96db60e21b81528690fd5b50346200034b57826003193601126200034b578280526020908152918190205490516001600160a01b039091168152f35b50346200034b57620017683662002618565b93916001956002875414620018e7576002875584158015620018dc575b620018ce5760ff60035460a01c166002811015620018bb578703620018ad5788620004558951620017b68162002555565b898152620017e760018060a01b03809a16998a6020840152848d84015260025416918c519384916020830162002c65565b803b156200034b578a51631759616b60e11b8152339481019490945230602485015260a06044850152839182908490829062001848906200182d60a484018e8e62002c12565b906200096360031992838682030160648701528d8d62002c12565b03925af18015620018a35797620009bd9392917fa9caebbb434dc508dda50d991f48d3034720d27cf9cf537225c6532b4fd390a497989962001891575b50519485948562002c37565b6200189c9062002587565b3862001885565b88513d8b823e3d90fd5b8751637b21608560e01b8152fd5b634e487b7160e01b8a526021825260248afd5b87516334b2073960e11b8152fd5b508285141562001785565b87516303cb96db60e21b8152fd5b50346200034b57602080600319360112620007875781356001600160401b03811162000dfb576200192a903690840162002487565b93906002936001958587541462001af357858755801562001ae45760ff60035460a01c168681101562001ad15762001ac257878052818552838820546001600160a01b0391908216670de0b6b3a76400008202670de0b6b3a763ffff198382040162001aaf57908a91813b156200034b57875163079cc67960e41b81523387820190815260208101929092529291839182908490829060400103925af1801562001aa55762001a93575b50889388805b620019e7575b8a8a805580f35b1562001a84575b89620019fc86848462002bc5565b35958b858b5416803b15620002f157819060a48b5180948193635c46a7ef60e11b8352308d8401523360248401528d6044840152608060648401528160848401525af1801562001a7a579162001a5a918d93620002a4575062002bec565b96885182815260008051602062005cdb8339815191528b3392a3620019da565b89513d8f823e3d90fd5b818510620019ee5780620019e0565b62001a9e9062002587565b38620019d4565b86513d8c823e3d90fd5b634e487b7160e01b8b526011855260248bfd5b508251637b21608560e01b8152fd5b634e487b7160e01b895260218352602489fd5b5082516334b2073960e11b8152fd5b5082516303cb96db60e21b8152fd5b505034620002f15781600319360112620002f15760025490516001600160a01b039091168152602090f35b50919034620002f15781600319360112620002f15760ff60035460a01c16905191600282101562001b6057602083838152f35b634e487b7160e01b815260218452602490fd5b50346200034b5760209081600319360112620007875780356001600160401b03811162000dfb5762001ba9903690830162002487565b93906002946001958087541462001d3157808755811562001d215760ff60035460a01c168181101562001d0e5762001cfe578796959486805b62001bee578988805580f35b1562001cef575b878284878c8b8962001c478d6200045562001c39869a88519662001c198862002555565b875283870199338b52888a89015260018060a01b03809c54169662002bc5565b359651948592830162002c65565b803b156200034b578b51635c46a7ef60e11b815293849283918591839162001c75919030338f860162002cda565b03925af1801562001a7a579162001cd393918c9d939c9b9c62001cdd575b50511662001ca382888a62002bc5565b35907f90890809c654f11d6e72a28fa60149770a0d11ec6c92319d6ceb2bb0a4ea1a158c8b518d8152a362002bec565b9697969862001be2565b62001ce89062002587565b3862001c93565b82881062001bf55780620015b9565b50505051637b21608560e01b8152fd5b634e487b7160e01b895260218652602489fd5b505050516334b2073960e11b8152fd5b505050516303cb96db60e21b8152fd5b50346200034b5762001d5336620024bf565b600192919294600286541462000a1b5760028655821562000a025760ff60035460a01c166002811015620009ef578603620009e1578786805b62001e54575b50506002546001600160a01b0316908890823b15620002f15762001dea928791836020898262001dff8f51998a988997631759616b60e11b8952309089015233602489015260a060448901528d60a489019162002c12565b8b60031994858984030160648a015262002c12565b85810392830160848701525201925af18015620009d75796620009bd92917f4eb8fdc369e0ee4c25e3562d3a96d21eda0ba6ddcbdacce9690ff7d83e7c39f5969798620009c557505193849333978562002c37565b1562001f16575b889062001e6a81868962002bc5565b358a526020839052888a20546001600160a01b031662001e8c82868962002bc5565b35670de0b6b3a76400009081810291818304149015171562001f0357908b939291813b1562000dfb578b5163079cc67960e41b81523387820190815260208101929092529491859182908490829060400103925af190811562000f1057899362001efc92620002a4575062002bec565b9162001d8c565b634e487b7160e01b8c526011855260248cfd5b83811062001e5b578062001d92565b50346200034b5762001f373662002618565b94939160019560028754146200213757600287558415620021275760ff60035460a01c1660028110156200211457870362002104578887805b62002037575b50506002546001600160a01b03908116968a91883b156200034b578a51938492631759616b60e11b84523090840152169788602483015260a060448301528183602062001fc860a484018c8c62002c12565b8262001fe360031992838782030160648801528c8c62002c12565b85810392830160848701525201925af18015620018a35797620009bd9392917f4eb8fdc369e0ee4c25e3562d3a96d21eda0ba6ddcbdacce9690ff7d83e7c39f5979899620018915750519485948562002c37565b15620020f5575b896200204c82888862002bc5565b358b526020889052898b20546001600160a01b0316916200206f81878762002bc5565b35670de0b6b3a764000090818102918183041490151715620020e2578c90843b15620002f1578c5163079cc67960e41b815233818d01908152602081019290925294859182908490829060400103925af190811562000f02578a93620020db92620002a4575062002bec565b9162001f70565b634e487b7160e01b8d5260118a5260248dfd5b8581106200203e578062001f76565b8751637b21608560e01b81528690fd5b634e487b7160e01b8a526021875260248afd5b87516334b2073960e11b81528690fd5b87516303cb96db60e21b81528690fd5b505034620002f15781600319360112620002f15760035490516001600160a01b039091168152602090f35b50346200034b5760803660031901126200034b576200219062002510565b506200219b62002527565b92606435906001600160401b0382116200083f575092620021c6620021d192602095369101620025bd565b90604435906200275f565b90516001600160e01b03199091168152f35b5090346200034b57620021f636620024bf565b600295929590600196828854146200241e578288558015801562002413575b62002403578897969587805b6200222d578a89805580f35b15620023f4575b89620022428a848462002bc5565b35620022508b868962002bc5565b359060ff60035460a01c1687811015620023e157620023d1578c60018060a01b0380895416918c51916331a9108f60e11b8352858d8401526020928381602481885afa92831562000552579262002392575b503091160362002382578e91620022df8d9262000455845194620022c68662002555565b8d86523383870152888187015251948592830162002c65565b803b156200034b5762002311918391858f8f85915196879586948593635c46a7ef60e11b855230903390860162002cda565b03925af180156200237857918d9e93916200235c95939e9d9e62002366575b507f77f92a1b6a1a11de8ca49515ad4c1fad45632dd3442167d74b90b304a3c7a758339180a462002bec565b9798979962002221565b620023719062002587565b3862002330565b8c513d84823e3d90fd5b8b5163074752d160e21b81528b90fd5b9091508281813d8311620023c9575b620023ad81836200259b565b810103126200054557620023c19062002700565b9038620022a2565b503d620023a1565b8951637b21608560e01b81528990fd5b634e487b7160e01b8e5260218a5260248efd5b81891062002234578062000393565b865163586be56960e01b81528590fd5b508181141562002215565b86516303cb96db60e21b81528590fd5b925050346200034b5760203660031901126200034b573563ffffffff60e01b81168091036200034b5760209250630271189760e51b811490811562002475575b5015158152f35b630a85bd0160e11b149050386200246e565b9181601f84011215620024ba578235916001600160401b038311620024ba576020808501948460051b010111620024ba57565b600080fd5b6040600319820112620024ba576001600160401b0391600435838111620024ba5782620024ef9160040162002487565b93909392602435918211620024ba576200250c9160040162002487565b9091565b600435906001600160a01b0382168203620024ba57565b602435906001600160a01b0382168203620024ba57565b604435906001600160a01b0382168203620024ba57565b606081019081106001600160401b038211176200257157604052565b634e487b7160e01b600052604160045260246000fd5b6001600160401b0381116200257157604052565b90601f801991011681019081106001600160401b038211176200257157604052565b81601f82011215620024ba578035906001600160401b038211620025715760405192620025f5601f8401601f1916602001856200259b565b82845260208383010111620024ba57816000926020809301838601378301015290565b6060600319820112620024ba576001600160401b0391600435838111620024ba5782620026489160040162002487565b93909392602435918211620024ba57620026659160040162002487565b90916044356001600160a01b0381168103620024ba5790565b6040600319820112620024ba57600435906001600160401b038211620024ba57620026ac9160040162002487565b90916024356001600160a01b0381168103620024ba5790565b90816020910312620024ba57518015158103620024ba5790565b60405190620026ee8262002555565b60006040838281528260208201520152565b51906001600160a01b0382168203620024ba57565b90816060910312620024ba5760405190620027308262002555565b8051906003821015620024ba576040918352620027506020820162002700565b60208401520151604082015290565b600280546001600160a01b03908116949093929033861480159062002b4e575b15620027975760405163c1b95c4760e01b8152600490fd5b846003541685831690811462002b1157506000620027b4620026df565b5081511562002ae95750620027d491506020808251830101910162002715565b935b602085019484865116801590811562002ade575b5062002acc5780516003811015620029f65760010362002a0c57505060ff60035460a01c1681811015620029f657620028375750506200282c91511662002d0d565b630a85bd0160e11b90565b909180935116600093670de0b6b3a7640000928486526004602052604094828688205416918215620028dd575b50501690813b1562000dfb5783516340c10f1960e01b81526001600160a01b03919091166004820152602481019290925290919083908390604490829084905af1908115620028d45750620028bc575b50506200282c565b620028c8829162002587565b6200083f5780620028b4565b513d84823e3d90fd5b9150935054845160208101916001600160601b03199060601b168252846034820152603481526200290e8162002555565b5190208451610afb808201908282106001600160401b03831117620029e25790829162003bca8339039087f58015620029d85781168386526004602052848620816001600160601b0360a01b825416179055803b156200156457845163fe4b84df60e01b815260048101859052868160248183865af18015620029ce57620029b8575b50670e043da617250000938160008051602062005cbb8339815191528880a3388062002864565b620029c69096919662002587565b943862002991565b86513d89823e3d90fd5b84513d87823e3d90fd5b634e487b7160e01b89526041600452602489fd5b634e487b7160e01b600052602160045260246000fd5b80949291959350516003811015620029f657810362002aba5760ff60035460a01c1690811015620029f65762002aa8576040915116910151823b15620024ba576064600092836040519586948593632142170760e11b8552306004860152602485015260448401525af1801562002a9c5762002a8a575b506200282c565b62002a959062002587565b3862002a83565b6040513d6000823e3d90fd5b604051633437e5f360e21b8152600490fd5b60405163211bf9ef60e21b8152600490fd5b60405163c33b691760e01b8152600490fd5b9050301438620027ea565b9050846040519262002afb8462002555565b60018452166020830152604082015293620027d6565b945050505091507f90890809c654f11d6e72a28fa60149770a0d11ec6c92319d6ceb2bb0a4ea1a15602060405160018152a3630a85bd0160e11b90565b5060ff60035460a01c1683811015620029f65715156200277f565b9092916001600160401b03841162002571578360051b604051926020809462002b95828501826200259b565b8097815201918101928311620024ba57905b82821062002bb55750505050565b8135815290830190830162002ba7565b919081101562002bd65760051b0190565b634e487b7160e01b600052603260045260246000fd5b600019811462002bfc5760010190565b634e487b7160e01b600052601160045260246000fd5b81835290916001600160fb1b038311620024ba5760209260051b809284830137010190565b929062002c539062002c62959360408652604086019162002c12565b92602081850391015262002c12565b90565b8151606082019392906003811015620029f65782526020808201516001600160a01b031690830152604090810151910152565b919082519283825260005b84811062002cc5575050826000602080949584010152601f8019910116010190565b60208183018101518483018201520162002ca3565b6001600160a01b03918216815291166020820152604081019190915260806060820181905262002c629291019062002c98565b6000808052600460208190527f17ef568e3e12ab5b9c7254a8d58478811de00f9e6eb34345acd53bf8fd09d3ec549192604092670de0b6b3a76400009291906001600160a01b03908116801562002dc8575b1691823b15620015645784516340c10f1960e01b81526001600160a01b0390921690820190815260208101939093529291849184918290849082906040015b03925af1908115620028d4575062002db4575050565b62002dc0829162002587565b6200083f5750565b509250600254845160208101916001600160601b03199060601b1682528660348201526034815262002dfa8162002555565b5190208451610afb808201908282106001600160401b0383111762002ed257908291620046c58339039087f58015620029d85783169285805282602052848620846001600160601b0360a01b825416179055833b156200156457845163fe4b84df60e01b8152838101879052868160248183895af18015620029ce5762002ebc575b508562002ea957670e043da6172500009360008160008051602062005cbb8339815191528280a362002d5f565b634e487b7160e01b865260118352602486fd5b62002eca9096919662002587565b943862002e7c565b634e487b7160e01b895260418652602489fd5b90916000928015620030a757670de0b6b3a764000080820291820403620030935780918385526004918260205260018060a01b039060409582878920541691821562002f72575b50501691823b15620015645784516340c10f1960e01b81526001600160a01b03909216908201908152602081019390935292918491849182908490829060400162002d9e565b91509450600254865160208101916001600160601b03199060601b1682528660348201526034815262002fa58162002555565b5190208651610afb808201908282106001600160401b038311176200308057908291620051c08339039089f58015620029ce5782169085885284602052868820826001600160601b0360a01b825416179055813b156200156057865163fe4b84df60e01b8152858101879052888160248183875af18015620018a3576200306a575b50662386f26fc1000081018091116200305757948160008051602062005cbb8339815191528980a3388062002f2c565b634e487b7160e01b885260118552602488fd5b620030789098919862002587565b963862003027565b634e487b7160e01b8b526041885260248bfd5b634e487b7160e01b84526011600452602484fd5b6040516334b2073960e11b8152600490fd5b805182101562002bd65760209160051b01019056fe60a080604052346100535733608052610aa29081610059823960805181818160fd015281816101cd015281816102aa015281816103c601528181610489015281816105080152818161057a01526107b70152f35b600080fdfe608060408181526004908136101561001657600080fd5b60009283803560e01c91826306fdde031461078a5750508063095ea7b31461071957806318160ddd146106fc578063186f0354146106d357806323b872dd14610653578063313ce567146106375780633d26bb671461061957806340c10f191461054f57806342966c68146104f45780636f307dc31461045957806370a082311461042157806379cc6790146103a157806395d89b411461027a578063a9059cbb14610249578063dd62ed3e14610200578063fbfa77cf146101b85763fe4b84df146100e157600080fd5b346101b45760203660031901126101b4576001600160a01b03917f0000000000000000000000000000000000000000000000000000000000000000831690338290036101a65780358155825163061bc0d560e21b8152916020918391829088905af191821561019d5750839161016f575b50166bffffffffffffffffffffffff60a01b600354161760035580f35b610190915060203d8111610196575b61018881836108d6565b81019061090e565b38610152565b503d61017e565b513d85823e3d90fd5b8251638d1af8bd60e01b8152fd5b8280fd5b8382346101fc57816003193601126101fc57517f00000000000000000000000000000000000000000000000000000000000000006001600160a01b03168152602090f35b5080fd5b8382346101fc57806003193601126101fc578060209261021e6108a5565b6102266108c0565b6001600160a01b0391821683526002865283832091168252845220549051908152f35b8382346101fc57806003193601126101fc576020906102736102696108a5565b6024359033610a27565b5160018152f35b50346101b457826003193601126101b4578051633ef0f29b60e11b81526001600160a01b039284919060208282817f000000000000000000000000000000000000000000000000000000000000000089165afa918215610397578392610377575b5083516395d89b4160e01b81529485928391165afa91821561036d57836103449493610348575b505061033a602182518094605f60f81b602083015261032a8151809260208686019101610856565b81010360018101855201836108d6565b5191829182610879565b0390f35b6103659293503d8091833e61035d81836108d6565b81019061092d565b903880610302565b81513d85823e3d90fd5b61039091925060203d81116101965761018881836108d6565b90386102db565b84513d85823e3d90fd5b5090346101b457816003193601126101b4576103bb6108a5565b9160018060a01b03807f0000000000000000000000000000000000000000000000000000000000000000163314159081610412575b506104055783610402602435856109c9565b80f35b51633c61e6ff60e11b8152fd5b905060035416331415386103f0565b8382346101fc5760203660031901126101fc5760209181906001600160a01b036104496108a5565b1681526001845220549051908152f35b509190346101fc57816003193601126101fc578251633ef0f29b60e11b81526001600160a01b03919060208183817f000000000000000000000000000000000000000000000000000000000000000087165afa9384156104e957936104c9575b5054908351921682526020820152f35b6104e291935060203d81116101965761018881836108d6565b91386104b9565b8551903d90823e3d90fd5b50346101b45760203660031901126101b4577f00000000000000000000000000000000000000000000000000000000000000006001600160a01b0316330361054257506104029035336109c9565b51638d1af8bd60e01b8152fd5b5090346101b457816003193601126101b4576105696108a5565b602435916001600160a01b039190337f0000000000000000000000000000000000000000000000000000000000000000841614158061060b575b6105fd5750827fddf252ad1be2c89b69c2b068fc378daa952ba7f163c4a11628f55a4df523b3ef926020926105da88968754610999565b86551694858552600183528085206105f3838254610999565b905551908152a380f35b8451633c61e6ff60e11b8152fd5b5082600354163314156105a3565b5090346101b457826003193601126101b45760209250549051908152f35b8382346101fc57816003193601126101fc576020905160128152f35b8382346101fc5760603660031901126101fc576102736020926106746108a5565b61067c6108c0565b90846044359360018060a01b03831680825260028952828220338352895260001983832054036106af575b505050610a27565b8152600288528181203382528852206106c98482546109bc565b90558487806106a7565b8382346101fc57816003193601126101fc5760035490516001600160a01b039091168152602090f35b8382346101fc57816003193601126101fc57602091549051908152f35b8382346101fc57806003193601126101fc57602091816107376108a5565b91602435918291338152600287528181209460018060a01b0316948582528752205582519081527f8c5be1e5ebec7d5bd14f71427d1e84f3dd0314c0f7b2291e5b200ac8c7c3b925843392a35160018152f35b909150346101fc57816003193601126101fc57633ef0f29b60e11b81526001600160a01b039360208282817f000000000000000000000000000000000000000000000000000000000000000089165afa918215610397578392610836575b5083516306fdde0360e01b81529485928391165afa91821561036d5783610344949361034857505061033a602182518094605f60f81b602083015261032a8151809260208686019101610856565b61084f91925060203d81116101965761018881836108d6565b90386107e8565b60005b8381106108695750506000910152565b8181015183820152602001610859565b604091602082526108998151809281602086015260208686019101610856565b601f01601f1916010190565b600435906001600160a01b03821682036108bb57565b600080fd5b602435906001600160a01b03821682036108bb57565b90601f8019910116810190811067ffffffffffffffff8211176108f857604052565b634e487b7160e01b600052604160045260246000fd5b908160209103126108bb57516001600160a01b03811681036108bb5790565b6020818303126108bb57805167ffffffffffffffff918282116108bb57019082601f830112156108bb5781519081116108f85760405192610978601f8301601f1916602001856108d6565b818452602082840101116108bb576109969160208085019101610856565b90565b919082018092116109a657565b634e487b7160e01b600052601160045260246000fd5b919082039182116109a657565b907fddf252ad1be2c89b69c2b068fc378daa952ba7f163c4a11628f55a4df523b3ef602060009360018060a01b0316928385526001825260408520610a0f8282546109bc565b9055610a1c8186546109bc565b8555604051908152a3565b60207fddf252ad1be2c89b69c2b068fc378daa952ba7f163c4a11628f55a4df523b3ef9160018060a01b038091169384600052600183526040600020610a6e8782546109bc565b9055169384600052600182526040600020610a8a828254610999565b9055604051908152a356fea164736f6c6343000812000a60a080604052346100535733608052610aa29081610059823960805181818160fd015281816101cd015281816102aa015281816103c601528181610489015281816105080152818161057a01526107b70152f35b600080fdfe608060408181526004908136101561001657600080fd5b60009283803560e01c91826306fdde031461078a5750508063095ea7b31461071957806318160ddd146106fc578063186f0354146106d357806323b872dd14610653578063313ce567146106375780633d26bb671461061957806340c10f191461054f57806342966c68146104f45780636f307dc31461045957806370a082311461042157806379cc6790146103a157806395d89b411461027a578063a9059cbb14610249578063dd62ed3e14610200578063fbfa77cf146101b85763fe4b84df146100e157600080fd5b346101b45760203660031901126101b4576001600160a01b03917f0000000000000000000000000000000000000000000000000000000000000000831690338290036101a65780358155825163061bc0d560e21b8152916020918391829088905af191821561019d5750839161016f575b50166bffffffffffffffffffffffff60a01b600354161760035580f35b610190915060203d8111610196575b61018881836108d6565b81019061090e565b38610152565b503d61017e565b513d85823e3d90fd5b8251638d1af8bd60e01b8152fd5b8280fd5b8382346101fc57816003193601126101fc57517f00000000000000000000000000000000000000000000000000000000000000006001600160a01b03168152602090f35b5080fd5b8382346101fc57806003193601126101fc578060209261021e6108a5565b6102266108c0565b6001600160a01b0391821683526002865283832091168252845220549051908152f35b8382346101fc57806003193601126101fc576020906102736102696108a5565b6024359033610a27565b5160018152f35b50346101b457826003193601126101b4578051633ef0f29b60e11b81526001600160a01b039284919060208282817f000000000000000000000000000000000000000000000000000000000000000089165afa918215610397578392610377575b5083516395d89b4160e01b81529485928391165afa91821561036d57836103449493610348575b505061033a602182518094605f60f81b602083015261032a8151809260208686019101610856565b81010360018101855201836108d6565b5191829182610879565b0390f35b6103659293503d8091833e61035d81836108d6565b81019061092d565b903880610302565b81513d85823e3d90fd5b61039091925060203d81116101965761018881836108d6565b90386102db565b84513d85823e3d90fd5b5090346101b457816003193601126101b4576103bb6108a5565b9160018060a01b03807f0000000000000000000000000000000000000000000000000000000000000000163314159081610412575b506104055783610402602435856109c9565b80f35b51633c61e6ff60e11b8152fd5b905060035416331415386103f0565b8382346101fc5760203660031901126101fc5760209181906001600160a01b036104496108a5565b1681526001845220549051908152f35b509190346101fc57816003193601126101fc578251633ef0f29b60e11b81526001600160a01b03919060208183817f000000000000000000000000000000000000000000000000000000000000000087165afa9384156104e957936104c9575b5054908351921682526020820152f35b6104e291935060203d81116101965761018881836108d6565b91386104b9565b8551903d90823e3d90fd5b50346101b45760203660031901126101b4577f00000000000000000000000000000000000000000000000000000000000000006001600160a01b0316330361054257506104029035336109c9565b51638d1af8bd60e01b8152fd5b5090346101b457816003193601126101b4576105696108a5565b602435916001600160a01b039190337f0000000000000000000000000000000000000000000000000000000000000000841614158061060b575b6105fd5750827fddf252ad1be2c89b69c2b068fc378daa952ba7f163c4a11628f55a4df523b3ef926020926105da88968754610999565b86551694858552600183528085206105f3838254610999565b905551908152a380f35b8451633c61e6ff60e11b8152fd5b5082600354163314156105a3565b5090346101b457826003193601126101b45760209250549051908152f35b8382346101fc57816003193601126101fc576020905160128152f35b8382346101fc5760603660031901126101fc576102736020926106746108a5565b61067c6108c0565b90846044359360018060a01b03831680825260028952828220338352895260001983832054036106af575b505050610a27565b8152600288528181203382528852206106c98482546109bc565b90558487806106a7565b8382346101fc57816003193601126101fc5760035490516001600160a01b039091168152602090f35b8382346101fc57816003193601126101fc57602091549051908152f35b8382346101fc57806003193601126101fc57602091816107376108a5565b91602435918291338152600287528181209460018060a01b0316948582528752205582519081527f8c5be1e5ebec7d5bd14f71427d1e84f3dd0314c0f7b2291e5b200ac8c7c3b925843392a35160018152f35b909150346101fc57816003193601126101fc57633ef0f29b60e11b81526001600160a01b039360208282817f000000000000000000000000000000000000000000000000000000000000000089165afa918215610397578392610836575b5083516306fdde0360e01b81529485928391165afa91821561036d5783610344949361034857505061033a602182518094605f60f81b602083015261032a8151809260208686019101610856565b61084f91925060203d81116101965761018881836108d6565b90386107e8565b60005b8381106108695750506000910152565b8181015183820152602001610859565b604091602082526108998151809281602086015260208686019101610856565b601f01601f1916010190565b600435906001600160a01b03821682036108bb57565b600080fd5b602435906001600160a01b03821682036108bb57565b90601f8019910116810190811067ffffffffffffffff8211176108f857604052565b634e487b7160e01b600052604160045260246000fd5b908160209103126108bb57516001600160a01b03811681036108bb5790565b6020818303126108bb57805167ffffffffffffffff918282116108bb57019082601f830112156108bb5781519081116108f85760405192610978601f8301601f1916602001856108d6565b818452602082840101116108bb576109969160208085019101610856565b90565b919082018092116109a657565b634e487b7160e01b600052601160045260246000fd5b919082039182116109a657565b907fddf252ad1be2c89b69c2b068fc378daa952ba7f163c4a11628f55a4df523b3ef602060009360018060a01b0316928385526001825260408520610a0f8282546109bc565b9055610a1c8186546109bc565b8555604051908152a3565b60207fddf252ad1be2c89b69c2b068fc378daa952ba7f163c4a11628f55a4df523b3ef9160018060a01b038091169384600052600183526040600020610a6e8782546109bc565b9055169384600052600182526040600020610a8a828254610999565b9055604051908152a356fea164736f6c6343000812000a60a080604052346100535733608052610aa29081610059823960805181818160fd015281816101cd015281816102aa015281816103c601528181610489015281816105080152818161057a01526107b70152f35b600080fdfe608060408181526004908136101561001657600080fd5b60009283803560e01c91826306fdde031461078a5750508063095ea7b31461071957806318160ddd146106fc578063186f0354146106d357806323b872dd14610653578063313ce567146106375780633d26bb671461061957806340c10f191461054f57806342966c68146104f45780636f307dc31461045957806370a082311461042157806379cc6790146103a157806395d89b411461027a578063a9059cbb14610249578063dd62ed3e14610200578063fbfa77cf146101b85763fe4b84df146100e157600080fd5b346101b45760203660031901126101b4576001600160a01b03917f0000000000000000000000000000000000000000000000000000000000000000831690338290036101a65780358155825163061bc0d560e21b8152916020918391829088905af191821561019d5750839161016f575b50166bffffffffffffffffffffffff60a01b600354161760035580f35b610190915060203d8111610196575b61018881836108d6565b81019061090e565b38610152565b503d61017e565b513d85823e3d90fd5b8251638d1af8bd60e01b8152fd5b8280fd5b8382346101fc57816003193601126101fc57517f00000000000000000000000000000000000000000000000000000000000000006001600160a01b03168152602090f35b5080fd5b8382346101fc57806003193601126101fc578060209261021e6108a5565b6102266108c0565b6001600160a01b0391821683526002865283832091168252845220549051908152f35b8382346101fc57806003193601126101fc576020906102736102696108a5565b6024359033610a27565b5160018152f35b50346101b457826003193601126101b4578051633ef0f29b60e11b81526001600160a01b039284919060208282817f000000000000000000000000000000000000000000000000000000000000000089165afa918215610397578392610377575b5083516395d89b4160e01b81529485928391165afa91821561036d57836103449493610348575b505061033a602182518094605f60f81b602083015261032a8151809260208686019101610856565b81010360018101855201836108d6565b5191829182610879565b0390f35b6103659293503d8091833e61035d81836108d6565b81019061092d565b903880610302565b81513d85823e3d90fd5b61039091925060203d81116101965761018881836108d6565b90386102db565b84513d85823e3d90fd5b5090346101b457816003193601126101b4576103bb6108a5565b9160018060a01b03807f0000000000000000000000000000000000000000000000000000000000000000163314159081610412575b506104055783610402602435856109c9565b80f35b51633c61e6ff60e11b8152fd5b905060035416331415386103f0565b8382346101fc5760203660031901126101fc5760209181906001600160a01b036104496108a5565b1681526001845220549051908152f35b509190346101fc57816003193601126101fc578251633ef0f29b60e11b81526001600160a01b03919060208183817f000000000000000000000000000000000000000000000000000000000000000087165afa9384156104e957936104c9575b5054908351921682526020820152f35b6104e291935060203d81116101965761018881836108d6565b91386104b9565b8551903d90823e3d90fd5b50346101b45760203660031901126101b4577f00000000000000000000000000000000000000000000000000000000000000006001600160a01b0316330361054257506104029035336109c9565b51638d1af8bd60e01b8152fd5b5090346101b457816003193601126101b4576105696108a5565b602435916001600160a01b039190337f0000000000000000000000000000000000000000000000000000000000000000841614158061060b575b6105fd5750827fddf252ad1be2c89b69c2b068fc378daa952ba7f163c4a11628f55a4df523b3ef926020926105da88968754610999565b86551694858552600183528085206105f3838254610999565b905551908152a380f35b8451633c61e6ff60e11b8152fd5b5082600354163314156105a3565b5090346101b457826003193601126101b45760209250549051908152f35b8382346101fc57816003193601126101fc576020905160128152f35b8382346101fc5760603660031901126101fc576102736020926106746108a5565b61067c6108c0565b90846044359360018060a01b03831680825260028952828220338352895260001983832054036106af575b505050610a27565b8152600288528181203382528852206106c98482546109bc565b90558487806106a7565b8382346101fc57816003193601126101fc5760035490516001600160a01b039091168152602090f35b8382346101fc57816003193601126101fc57602091549051908152f35b8382346101fc57806003193601126101fc57602091816107376108a5565b91602435918291338152600287528181209460018060a01b0316948582528752205582519081527f8c5be1e5ebec7d5bd14f71427d1e84f3dd0314c0f7b2291e5b200ac8c7c3b925843392a35160018152f35b909150346101fc57816003193601126101fc57633ef0f29b60e11b81526001600160a01b039360208282817f000000000000000000000000000000000000000000000000000000000000000089165afa918215610397578392610836575b5083516306fdde0360e01b81529485928391165afa91821561036d5783610344949361034857505061033a602182518094605f60f81b602083015261032a8151809260208686019101610856565b61084f91925060203d81116101965761018881836108d6565b90386107e8565b60005b8381106108695750506000910152565b8181015183820152602001610859565b604091602082526108998151809281602086015260208686019101610856565b601f01601f1916010190565b600435906001600160a01b03821682036108bb57565b600080fd5b602435906001600160a01b03821682036108bb57565b90601f8019910116810190811067ffffffffffffffff8211176108f857604052565b634e487b7160e01b600052604160045260246000fd5b908160209103126108bb57516001600160a01b03811681036108bb5790565b6020818303126108bb57805167ffffffffffffffff918282116108bb57019082601f830112156108bb5781519081116108f85760405192610978601f8301601f1916602001856108d6565b818452602082840101116108bb576109969160208085019101610856565b90565b919082018092116109a657565b634e487b7160e01b600052601160045260246000fd5b919082039182116109a657565b907fddf252ad1be2c89b69c2b068fc378daa952ba7f163c4a11628f55a4df523b3ef602060009360018060a01b0316928385526001825260408520610a0f8282546109bc565b9055610a1c8186546109bc565b8555604051908152a3565b60207fddf252ad1be2c89b69c2b068fc378daa952ba7f163c4a11628f55a4df523b3ef9160018060a01b038091169384600052600183526040600020610a6e8782546109bc565b9055169384600052600182526040600020610a8a828254610999565b9055604051908152a356fea164736f6c6343000812000a60a080604052346100535733608052610aa29081610059823960805181818160fd015281816101cd015281816102aa015281816103c601528181610489015281816105080152818161057a01526107b70152f35b600080fdfe608060408181526004908136101561001657600080fd5b60009283803560e01c91826306fdde031461078a5750508063095ea7b31461071957806318160ddd146106fc578063186f0354146106d357806323b872dd14610653578063313ce567146106375780633d26bb671461061957806340c10f191461054f57806342966c68146104f45780636f307dc31461045957806370a082311461042157806379cc6790146103a157806395d89b411461027a578063a9059cbb14610249578063dd62ed3e14610200578063fbfa77cf146101b85763fe4b84df146100e157600080fd5b346101b45760203660031901126101b4576001600160a01b03917f0000000000000000000000000000000000000000000000000000000000000000831690338290036101a65780358155825163061bc0d560e21b8152916020918391829088905af191821561019d5750839161016f575b50166bffffffffffffffffffffffff60a01b600354161760035580f35b610190915060203d8111610196575b61018881836108d6565b81019061090e565b38610152565b503d61017e565b513d85823e3d90fd5b8251638d1af8bd60e01b8152fd5b8280fd5b8382346101fc57816003193601126101fc57517f00000000000000000000000000000000000000000000000000000000000000006001600160a01b03168152602090f35b5080fd5b8382346101fc57806003193601126101fc578060209261021e6108a5565b6102266108c0565b6001600160a01b0391821683526002865283832091168252845220549051908152f35b8382346101fc57806003193601126101fc576020906102736102696108a5565b6024359033610a27565b5160018152f35b50346101b457826003193601126101b4578051633ef0f29b60e11b81526001600160a01b039284919060208282817f000000000000000000000000000000000000000000000000000000000000000089165afa918215610397578392610377575b5083516395d89b4160e01b81529485928391165afa91821561036d57836103449493610348575b505061033a602182518094605f60f81b602083015261032a8151809260208686019101610856565b81010360018101855201836108d6565b5191829182610879565b0390f35b6103659293503d8091833e61035d81836108d6565b81019061092d565b903880610302565b81513d85823e3d90fd5b61039091925060203d81116101965761018881836108d6565b90386102db565b84513d85823e3d90fd5b5090346101b457816003193601126101b4576103bb6108a5565b9160018060a01b03807f0000000000000000000000000000000000000000000000000000000000000000163314159081610412575b506104055783610402602435856109c9565b80f35b51633c61e6ff60e11b8152fd5b905060035416331415386103f0565b8382346101fc5760203660031901126101fc5760209181906001600160a01b036104496108a5565b1681526001845220549051908152f35b509190346101fc57816003193601126101fc578251633ef0f29b60e11b81526001600160a01b03919060208183817f000000000000000000000000000000000000000000000000000000000000000087165afa9384156104e957936104c9575b5054908351921682526020820152f35b6104e291935060203d81116101965761018881836108d6565b91386104b9565b8551903d90823e3d90fd5b50346101b45760203660031901126101b4577f00000000000000000000000000000000000000000000000000000000000000006001600160a01b0316330361054257506104029035336109c9565b51638d1af8bd60e01b8152fd5b5090346101b457816003193601126101b4576105696108a5565b602435916001600160a01b039190337f0000000000000000000000000000000000000000000000000000000000000000841614158061060b575b6105fd5750827fddf252ad1be2c89b69c2b068fc378daa952ba7f163c4a11628f55a4df523b3ef926020926105da88968754610999565b86551694858552600183528085206105f3838254610999565b905551908152a380f35b8451633c61e6ff60e11b8152fd5b5082600354163314156105a3565b5090346101b457826003193601126101b45760209250549051908152f35b8382346101fc57816003193601126101fc576020905160128152f35b8382346101fc5760603660031901126101fc576102736020926106746108a5565b61067c6108c0565b90846044359360018060a01b03831680825260028952828220338352895260001983832054036106af575b505050610a27565b8152600288528181203382528852206106c98482546109bc565b90558487806106a7565b8382346101fc57816003193601126101fc5760035490516001600160a01b039091168152602090f35b8382346101fc57816003193601126101fc57602091549051908152f35b8382346101fc57806003193601126101fc57602091816107376108a5565b91602435918291338152600287528181209460018060a01b0316948582528752205582519081527f8c5be1e5ebec7d5bd14f71427d1e84f3dd0314c0f7b2291e5b200ac8c7c3b925843392a35160018152f35b909150346101fc57816003193601126101fc57633ef0f29b60e11b81526001600160a01b039360208282817f000000000000000000000000000000000000000000000000000000000000000089165afa918215610397578392610836575b5083516306fdde0360e01b81529485928391165afa91821561036d5783610344949361034857505061033a602182518094605f60f81b602083015261032a8151809260208686019101610856565b61084f91925060203d81116101965761018881836108d6565b90386107e8565b60005b8381106108695750506000910152565b8181015183820152602001610859565b604091602082526108998151809281602086015260208686019101610856565b601f01601f1916010190565b600435906001600160a01b03821682036108bb57565b600080fd5b602435906001600160a01b03821682036108bb57565b90601f8019910116810190811067ffffffffffffffff8211176108f857604052565b634e487b7160e01b600052604160045260246000fd5b908160209103126108bb57516001600160a01b03811681036108bb5790565b6020818303126108bb57805167ffffffffffffffff918282116108bb57019082601f830112156108bb5781519081116108f85760405192610978601f8301601f1916602001856108d6565b818452602082840101116108bb576109969160208085019101610856565b90565b919082018092116109a657565b634e487b7160e01b600052601160045260246000fd5b919082039182116109a657565b907fddf252ad1be2c89b69c2b068fc378daa952ba7f163c4a11628f55a4df523b3ef602060009360018060a01b0316928385526001825260408520610a0f8282546109bc565b9055610a1c8186546109bc565b8555604051908152a3565b60207fddf252ad1be2c89b69c2b068fc378daa952ba7f163c4a11628f55a4df523b3ef9160018060a01b038091169384600052600183526040600020610a6e8782546109bc565b9055169384600052600182526040600020610a8a828254610999565b9055604051908152a356fea164736f6c6343000812000a1cef2b4ec7f129e441c961eb4fae22fd3131868db6be990c6f065f35b6b53cf3f279e6a1f5e320cca91135676d9cb6e44ca8a08c0b88342bcdb1144f6511b568a164736f6c6343000812000a",
  "linkReferences": {},
  "deployedLinkReferences": {}
}