{
  "_format": "hh-sol-artifact-1",
  "contractName": "Vault",
  "sourceName": "contracts/Vault.sol",
  "abi": [
    {
      "inputs": [],
      "stateMutability": "nonpayable",
      "type": "constructor"
    },
    {
      "inputs": [],
      "name": "ActionNotSupported",
      "type": "error"
    },
    {
      "inputs": [],
      "name": "IncorrectAmount",
      "type": "error"
    },
    {
      "inputs": [],
      "name": "IncorrectCollection",
      "type": "error"
    },
    {
      "inputs": [],
      "name": "IncorrectCollectionType",
      "type": "error"
    },
    {
      "inputs": [],
      "name": "IncorrectParams",
      "type": "error"
    },
    {
      "inputs": [],
      "name": "IncorrectReceiver",
      "type": "error"
    },
    {
      "inputs": [],
      "name": "Locked",
      "type": "error"
    },
    {
      "inputs": [],
      "name": "NotANFT",
      "type": "error"
    },
    {
      "inputs": [],
      "name": "UnknownAction",
      "type": "error"
    },
    {
      "inputs": [],
      "name": "VaultNotOwnerOfTheNFT",
      "type": "error"
    },
    {
      "anonymous": false,
      "inputs": [
        {
          "indexed": true,
          "internalType": "address",
          "name": "to",
          "type": "address"
        },
        {
          "indexed": true,
          "internalType": "uint256",
          "name": "id",
          "type": "uint256"
        },
        {
          "indexed": false,
          "internalType": "uint256",
          "name": "amounts",
          "type": "uint256"
        }
      ],
      "name": "Deposit",
      "type": "event"
    },
    {
      "anonymous": false,
      "inputs": [
        {
          "indexed": true,
          "internalType": "address",
          "name": "to",
          "type": "address"
        },
        {
          "indexed": false,
          "internalType": "uint256[]",
          "name": "ids",
          "type": "uint256[]"
        },
        {
          "indexed": false,
          "internalType": "uint256[]",
          "name": "amounts",
          "type": "uint256[]"
        }
      ],
      "name": "DepositBatch",
      "type": "event"
    },
    {
      "anonymous": false,
      "inputs": [
        {
          "indexed": false,
          "internalType": "uint8",
          "name": "version",
          "type": "uint8"
        }
      ],
      "name": "Initialized",
      "type": "event"
    },
    {
      "anonymous": false,
      "inputs": [
        {
          "indexed": true,
          "internalType": "address",
          "name": "to",
          "type": "address"
        },
        {
          "indexed": true,
          "internalType": "uint256",
          "name": "fromId",
          "type": "uint256"
        },
        {
          "indexed": true,
          "internalType": "uint256",
          "name": "toId",
          "type": "uint256"
        }
      ],
      "name": "Swap",
      "type": "event"
    },
    {
      "anonymous": false,
      "inputs": [
        {
          "indexed": true,
          "internalType": "address",
          "name": "token",
          "type": "address"
        },
        {
          "indexed": true,
          "internalType": "uint256",
          "name": "id",
          "type": "uint256"
        }
      ],
      "name": "TokenCreated",
      "type": "event"
    },
    {
      "anonymous": false,
      "inputs": [
        {
          "indexed": true,
          "internalType": "address",
          "name": "to",
          "type": "address"
        },
        {
          "indexed": true,
          "internalType": "uint256",
          "name": "id",
          "type": "uint256"
        },
        {
          "indexed": false,
          "internalType": "uint256",
          "name": "amounts",
          "type": "uint256"
        }
      ],
      "name": "Withdraw",
      "type": "event"
    },
    {
      "anonymous": false,
      "inputs": [
        {
          "indexed": true,
          "internalType": "address",
          "name": "to",
          "type": "address"
        },
        {
          "indexed": false,
          "internalType": "uint256[]",
          "name": "ids",
          "type": "uint256[]"
        },
        {
          "indexed": false,
          "internalType": "uint256[]",
          "name": "amounts",
          "type": "uint256[]"
        }
      ],
      "name": "WithdrawBatch",
      "type": "event"
    },
    {
      "inputs": [],
      "name": "collection",
      "outputs": [
        {
          "internalType": "address",
          "name": "",
          "type": "address"
        }
      ],
      "stateMutability": "view",
      "type": "function"
    },
    {
      "inputs": [],
      "name": "collectionType",
      "outputs": [
        {
          "internalType": "enum MandibleLibrary.CollectionType",
          "name": "",
          "type": "uint8"
        }
      ],
      "stateMutability": "view",
      "type": "function"
    },
    {
      "inputs": [
        {
          "internalType": "uint256[]",
          "name": "tokenIds",
          "type": "uint256[]"
        }
      ],
      "name": "deposit",
      "outputs": [],
      "stateMutability": "nonpayable",
      "type": "function"
    },
    {
      "inputs": [
        {
          "internalType": "uint256[]",
          "name": "tokenIds",
          "type": "uint256[]"
        },
        {
          "internalType": "uint256[]",
          "name": "amounts",
          "type": "uint256[]"
        }
      ],
      "name": "deposit1155",
      "outputs": [],
      "stateMutability": "nonpayable",
      "type": "function"
    },
    {
      "inputs": [
        {
          "internalType": "uint256[]",
          "name": "tokenIds",
          "type": "uint256[]"
        },
        {
          "internalType": "uint256[]",
          "name": "amounts",
          "type": "uint256[]"
        },
        {
          "internalType": "address",
          "name": "to",
          "type": "address"
        }
      ],
      "name": "deposit1155To",
      "outputs": [],
      "stateMutability": "nonpayable",
      "type": "function"
    },
    {
      "inputs": [
        {
          "internalType": "uint256[]",
          "name": "tokenIds",
          "type": "uint256[]"
        },
        {
          "internalType": "address",
          "name": "to",
          "type": "address"
        }
      ],
      "name": "depositTo",
      "outputs": [],
      "stateMutability": "nonpayable",
      "type": "function"
    },
    {
      "inputs": [],
      "name": "getERC20Address",
      "outputs": [
        {
          "internalType": "address",
          "name": "",
          "type": "address"
        }
      ],
      "stateMutability": "view",
      "type": "function"
    },
    {
      "inputs": [
        {
          "internalType": "uint256",
          "name": "tokenId",
          "type": "uint256"
        }
      ],
      "name": "getERC20Address1155",
      "outputs": [
        {
          "internalType": "address",
          "name": "",
          "type": "address"
        }
      ],
      "stateMutability": "view",
      "type": "function"
    },
    {
      "inputs": [
        {
          "internalType": "address",
          "name": "_collection",
          "type": "address"
        },
        {
          "internalType": "address",
          "name": "_to",
          "type": "address"
        },
        {
          "internalType": "address",
          "name": "_safe",
          "type": "address"
        }
      ],
      "name": "initialize",
      "outputs": [],
      "stateMutability": "nonpayable",
      "type": "function"
    },
    {
      "inputs": [
        {
          "internalType": "address",
          "name": "",
          "type": "address"
        },
        {
          "internalType": "address",
          "name": "from",
          "type": "address"
        },
        {
          "internalType": "uint256[]",
          "name": "ids",
          "type": "uint256[]"
        },
        {
          "internalType": "uint256[]",
          "name": "values",
          "type": "uint256[]"
        },
        {
          "internalType": "bytes",
          "name": "data",
          "type": "bytes"
        }
      ],
      "name": "onERC1155BatchReceived",
      "outputs": [
        {
          "internalType": "bytes4",
          "name": "",
          "type": "bytes4"
        }
      ],
      "stateMutability": "nonpayable",
      "type": "function"
    },
    {
      "inputs": [
        {
          "internalType": "address",
          "name": "",
          "type": "address"
        },
        {
          "internalType": "address",
          "name": "from",
          "type": "address"
        },
        {
          "internalType": "uint256",
          "name": "id",
          "type": "uint256"
        },
        {
          "internalType": "uint256",
          "name": "value",
          "type": "uint256"
        },
        {
          "internalType": "bytes",
          "name": "data",
          "type": "bytes"
        }
      ],
      "name": "onERC1155Received",
      "outputs": [
        {
          "internalType": "bytes4",
          "name": "",
          "type": "bytes4"
        }
      ],
      "stateMutability": "nonpayable",
      "type": "function"
    },
    {
      "inputs": [
        {
          "internalType": "address",
          "name": "",
          "type": "address"
        },
        {
          "internalType": "address",
          "name": "from",
          "type": "address"
        },
        {
          "internalType": "uint256",
          "name": "tokenId",
          "type": "uint256"
        },
        {
          "internalType": "bytes",
          "name": "data",
          "type": "bytes"
        }
      ],
      "name": "onERC721Received",
      "outputs": [
        {
          "internalType": "bytes4",
          "name": "",
          "type": "bytes4"
        }
      ],
      "stateMutability": "nonpayable",
      "type": "function"
    },
    {
      "inputs": [],
      "name": "safe",
      "outputs": [
        {
          "internalType": "address",
          "name": "",
          "type": "address"
        }
      ],
      "stateMutability": "view",
      "type": "function"
    },
    {
      "inputs": [
        {
          "internalType": "bytes4",
          "name": "interfaceId",
          "type": "bytes4"
        }
      ],
      "name": "supportsInterface",
      "outputs": [
        {
          "internalType": "bool",
          "name": "",
          "type": "bool"
        }
      ],
      "stateMutability": "pure",
      "type": "function"
    },
    {
      "inputs": [
        {
          "internalType": "uint256[]",
          "name": "tokenIds",
          "type": "uint256[]"
        },
        {
          "internalType": "uint256[]",
          "name": "wantedIds",
          "type": "uint256[]"
        }
      ],
      "name": "swap",
      "outputs": [],
      "stateMutability": "nonpayable",
      "type": "function"
    },
    {
      "inputs": [
        {
          "internalType": "uint256[]",
          "name": "tokenIds",
          "type": "uint256[]"
        },
        {
          "internalType": "uint256[]",
          "name": "wantedIds",
          "type": "uint256[]"
        },
        {
          "internalType": "address",
          "name": "to",
          "type": "address"
        }
      ],
      "name": "swapTo",
      "outputs": [],
      "stateMutability": "nonpayable",
      "type": "function"
    },
    {
      "inputs": [
        {
          "internalType": "uint256",
          "name": "",
          "type": "uint256"
        }
      ],
      "name": "tokenAddresses",
      "outputs": [
        {
          "internalType": "address",
          "name": "",
          "type": "address"
        }
      ],
      "stateMutability": "view",
      "type": "function"
    },
    {
      "inputs": [
        {
          "internalType": "uint256[]",
          "name": "tokenIds",
          "type": "uint256[]"
        }
      ],
      "name": "withdraw",
      "outputs": [],
      "stateMutability": "nonpayable",
      "type": "function"
    },
    {
      "inputs": [
        {
          "internalType": "uint256",
          "name": "tokenId",
          "type": "uint256"
        },
        {
          "internalType": "uint256",
          "name": "nftAmount",
          "type": "uint256"
        }
      ],
      "name": "withdraw1155",
      "outputs": [],
      "stateMutability": "nonpayable",
      "type": "function"
    },
    {
      "inputs": [
        {
          "internalType": "uint256",
          "name": "tokenId",
          "type": "uint256"
        },
        {
          "internalType": "uint256",
          "name": "nftAmount",
          "type": "uint256"
        },
        {
          "internalType": "address",
          "name": "to",
          "type": "address"
        }
      ],
      "name": "withdraw1155To",
      "outputs": [],
      "stateMutability": "nonpayable",
      "type": "function"
    },
    {
      "inputs": [
        {
          "internalType": "uint256[]",
          "name": "tokenIds",
          "type": "uint256[]"
        },
        {
          "internalType": "uint256[]",
          "name": "amounts",
          "type": "uint256[]"
        }
      ],
      "name": "withdrawBatch1155",
      "outputs": [],
      "stateMutability": "nonpayable",
      "type": "function"
    },
    {
      "inputs": [
        {
          "internalType": "uint256[]",
          "name": "tokenIds",
          "type": "uint256[]"
        },
        {
          "internalType": "uint256[]",
          "name": "amounts",
          "type": "uint256[]"
        },
        {
          "internalType": "address",
          "name": "to",
          "type": "address"
        }
      ],
      "name": "withdrawBatch1155To",
      "outputs": [],
      "stateMutability": "nonpayable",
      "type": "function"
    },
    {
      "inputs": [
        {
          "internalType": "uint256[]",
          "name": "tokenIds",
          "type": "uint256[]"
        },
        {
          "internalType": "address",
          "name": "to",
          "type": "address"
        }
      ],
      "name": "withdrawTo",
      "outputs": [],
      "stateMutability": "nonpayable",
      "type": "function"
    }
  ],
  "bytecode": "0x6080806040523461001a5760018055615c4790816100208239f35b600080fdfe608060408181526004803610156200001657600080fd5b600092833560e01c90816301ffc9a71462002362575080630a3cb72e1462002117578063150b7a0214620020a6578063186f0354146200207b57806344ab39751462001e15578063461ed81a1462001bbf578063598b8e711462001a8a5780636afedaeb146200087d5780636ed929ae1462001a445780637de1e5361462001a19578063983d95ce146200180c578063b22f32651462001727578063b9f890de14620016f6578063bbc6ed481462001580578063bc197c8114620012c3578063bd8e35b714620010fc578063c0c53b8b1462000bef578063c6ff59c31462000a41578063d0f76e6b14620008b0578063e5df8b84146200087d578063f23a6e6114620005ba578063f9f1b23e146200034f5763fad272bf146200013857600080fd5b346200034b576200014936620025b2565b6002949293919492600195848754146200033b5784875580156200032b5760ff60035460a01c16858110156200031857620003085787805260208481528289205490936001600160a01b039290918316670de0b6b3a76400008202670de0b6b3a763ffff1983820401620002f5578b90823b15620002f157865163079cc67960e41b815233818b01908152602081019290925292839182908490829060400103925af18015620002e757620002d5575b50899789805b6200020c575b8b8b805580f35b15620002c6575b8a620002218a848462002b1c565b35858a54169a8b3b15620002c2578d885190635c46a7ef60e11b8252308c830152818989169e8f6024830152856044830152606482016080905282608483015281835a9260a493f18015620002b6579162000286918f9493620002a4575b5062002b43565b9b60008051602062005c1b8339815191528a8a51858152a3620001ff565b620002af90620024bb565b386200027f565b8f8a51903d90823e3d90fd5b8d80fd5b81891062000213578062000205565b620002e090620024bb565b38620001f9565b85513d8d823e3d90fd5b5080fd5b634e487b7160e01b8c526011885260248cfd5b8151637b21608560e01b81528490fd5b634e487b7160e01b895260218552602489fd5b81516334b2073960e11b81528490fd5b81516303cb96db60e21b81528490fd5b8280fd5b5090346200034b5762000362366200254c565b9192949395906001956002875414620005aa5760028755801580156200059f575b6200058f57889787805b6200039a575b8a89805580f35b1562000580575b89620003af8a848462002b1c565b35620003bd8b868a62002b1c565b359060ff60035460a01c1660028110156200056d576200055d5760018060a01b038d8160025416918c51916331a9108f60e11b8352858b8401526020928381602481885afa91821562000552579162000510575b50813091160362000500578f9192620004648e94620004558e94875195620004398762002489565b6002875216968783870152898187015251948592830162002b8e565b03601f198101845283620024cf565b803b156200034b57620004969183918f838e89925196879586948593635c46a7ef60e11b855230903390860162002c03565b03925af18015620004f6578e9f9492620004dd9694927f77f92a1b6a1a11de8ca49515ad4c1fad45632dd3442167d74b90b304a3c7a75892620004e4575b5080a462002b43565b996200038d565b620004ef90620024bb565b38620004d4565b8d513d84823e3d90fd5b8c5163074752d160e21b81528a90fd5b90508281813d83116200054a575b6200052a8183620024cf565b8101031262000545576200053e9062002634565b3862000411565b508f80fd5b503d6200051e565b8f51903d90823e3d90fd5b8951637b21608560e01b81528790fd5b634e487b7160e01b8e526021885260248efd5b818910620003a1578062000393565b855163586be56960e01b81528390fd5b508181141562000383565b85516303cb96db60e21b81528390fd5b5091346200087a5760a03660031901126200087a57620005d962002444565b50620005e46200245b565b9060443591606435916084356001600160401b038111620002f1576200060e9036908801620024f1565b6002546001600160a01b039390841692913384148015906200085c575b6200084c576200063a62002613565b5080511562000827576200065991506020808251830101910162002649565b60208101928484511680159081156200081c575b506200080c5781516003811015620007f9576001036200071e57505060ff60035460a01c169060028210156200070b5750602096509186917f90890809c654f11d6e72a28fa60149770a0d11ec6c92319d6ceb2bb0a4ea1a159315600014620006f557620006de8282511662002c39565b5116928551908152a35b5163f23a6e6160e01b8152f35b6200070582825116868862002e1b565b620006de565b634e487b7160e01b815260218852602490fd5b939291979550809450516003811015620007d657600203620007e95760ff60035460a01c166002811015620007d657620007c657869392918691511692015193813b15620007c2578360649287519687958694632142170760e11b86523090860152602485015260448401525af18015620007b65760209350620007a4575b50620006e8565b620007af90620024bb565b386200079d565b505051903d90823e3d90fd5b8380fd5b8551633437e5f360e21b81528590fd5b634e487b7160e01b885260218652602488fd5b855163211bf9ef60e21b81528590fd5b634e487b7160e01b845260218a52602484fd5b875163c33b691760e01b81528990fd5b90503014386200066d565b5083875191620008378362002489565b60018352166020820152818782015262000659565b875163c1b95c4760e01b81528990fd5b5060ff60035460a01c166002811015620007f957600114156200062b565b80fd5b50346200034b5760203660031901126200034b57803583526020908152918190205490516001600160a01b039091168152f35b5090346200034b57620008c336620023f3565b90939291600195600287541462000a3357600287558115801562000a28575b62000a1a5760ff60035460a01c16600281101562000a07578703620009f957906200094588949392865193620009188562002489565b89855233602086015286888601526200095460018060a01b03600254169589519485916020830162002b8e565b03601f198101855284620024cf565b843b15620009f5576200099c988793620009b1620009c1938b519c8d9a8b998a98631759616b60e11b8a5233908a01523060248a015260a060448a015260a489019162002b69565b90600319948588840301606489015262002b69565b9184830301608485015262002bc1565b03925af1908115620009ec5750620009da575b50805580f35b620009e590620024bb565b38620009d4565b513d85823e3d90fd5b8680fd5b8451637b21608560e01b8152fd5b634e487b7160e01b895260218252602489fd5b84516334b2073960e11b8152fd5b5082821415620008e2565b84516303cb96db60e21b8152fd5b50346200034b5760603660031901126200034b578035916024359062000a6662002472565b6002600154146200033b57600260015582156200032b5760ff60035460a01c16600281101562000bdc5760010362000308578486526020849052818620546001600160a01b039190670de0b6b3a76400008502908316670de0b6b3a763ffff198683040162000bc95790818993923b15620007c257855163079cc67960e41b815233818a019081526020810193909352918491839182908490829060400103925af1801562000bbf5762000bad575b50826002541695863b156200034b5760c4908386519586948593637921219560e11b8552309085015216988960248401528a604484015288606484015260a060848401528160a48401525af1801562000ba3579160008051602062005c1b833981519152939160209362000b91575b5051908152a36001805580f35b62000b9c90620024bb565b3862000b84565b82513d88823e3d90fd5b62000bb890620024bb565b3862000b15565b85513d85823e3d90fd5b634e487b7160e01b895260118752602489fd5b634e487b7160e01b875260218552602487fd5b50346200034b5760603660031901126200034b5762000c0d62002444565b9062000c186200245b565b9162000c2362002472565b9285549260ff8460081c161593848095620010ee575b8015620010d5575b156200107b5760ff19811660011788558462001069575b5060018060a01b03809316916001600160601b0360a01b9383856002541617600255875193896301ffc9a760e01b958681526380ac58cd60e01b868201526020996024978b838a81885afa9283156200105f578c94936200103b575b50821562000fa95750846003549116906affffffffffffffffffffff60a81b16176003555b62000d26575b5050505050505062000cef578280f35b7f7f26b83ff96e1f2b6a682f133852f6798a09c465da95921460cefb38474024989161ff001984541684555160018152a138808280f35b85918a51968780926370a0823160e01b825230898301525afa94851562000f9f578a9562000f66575b50841595861562000d63575b508762000cdf565b8a9662000f5657670de0b6b3a76400008087029687040362000f4457858b8052858a52838b8d20541692831562000e17575b5050501691823b1562000e135787516340c10f1960e01b81526001600160a01b039092169082019081526020810193909352918391839182908490829060400103925af1801562000e095762000df1575b808080808062000d5b565b62000dfd8291620024bb565b6200087a578062000de6565b85513d84823e3d90fd5b8480fd5b91965091506002548a518a8101916001600160601b03199060601b1682528c60348201526034815262000e4a8162002489565b5190208a51610afb808201908282106001600160401b0383111762000f32579082916200300f833903908df5801562000f28578316958b8052858a52868b8d2091825416179055853b1562000f2457895163fe4b84df60e01b81528581018c90528b818381838b5af1801562000f1a5762000f04575b50662386f26fc10000820180921162000ef3575093858160008051602062005bfb8339815191528280a338808062000d95565b634e487b7160e01b87526011855286fd5b62000f11919750620024bb565b89953862000ec0565b8b513d8e823e3d90fd5b8a80fd5b8a513d8d823e3d90fd5b634e487b7160e01b8f5260418952848ffd5b50634e487b7160e01b8a526011845289fd5b89516334b2073960e11b81528590fd5b9094508781813d831162000f97575b62000f818183620024cf565b8101031262000f935751933862000d4f565b8980fd5b503d62000f75565b89513d8c823e3d90fd5b8c51908152636cdb3d1360e11b888201529192508a9050818881865afa90811562000f1a578c9162001007575b501562000ff8576003805460ff60a01b1916600160a01b179055889062000cd9565b895162c0806360e11b81528590fd5b6200102c91508a3d8c1162001033575b620010238183620024cf565b810190620025f9565b3862000fd6565b503d62001017565b62001057919350843d86116200103357620010238183620024cf565b913862000cb4565b8d513d86823e3d90fd5b61ffff19166101011787553862000c58565b865162461bcd60e51b8152602081840152602e60248201527f496e697469616c697a61626c653a20636f6e747261637420697320616c72656160448201526d191e481a5b9a5d1a585b1a5e995960921b6064820152608490fd5b50303b15801562000c415750600160ff82161462000c41565b50600160ff82161062000c39565b50346200034b57816003193601126200034b5780359160243591600260015414620012b55760026001558215620012a75760ff60035460a01c166002811015620012945760010362001286578385526020819052818520546001600160a01b0390670de0b6b3a76400008502908216670de0b6b3a763ffff198683040162001273579081889493923b1562000e1357855163079cc67960e41b8152338582019081526020810193909352918591839182908490829060400103925af18015620012695762001257575b5060025416803b156200034b5760c4839285519485938492637921219560e11b8452309084015233602484015289604484015288606484015260a060848401528160a48401525af180156200124d576200123b575b505190815260008051602062005c1b83398151915260203392a36001805580f35b6200124690620024bb565b386200121a565b82513d87823e3d90fd5b6200126290620024bb565b38620011c5565b85513d86823e3d90fd5b634e487b7160e01b885260118452602488fd5b9051637b21608560e01b8152fd5b634e487b7160e01b865260218252602486fd5b90516334b2073960e11b8152fd5b90516303cb96db60e21b8152fd5b50346200034b5760a03660031901126200034b57620012e162002444565b50620012ec6200245b565b6001600160401b036044358181116200157c576200130e9036908501620023bb565b929060643583811162001578576200132a9036908701620023bb565b926084359085821162000f93573660238301121562000f93578188013595861162000f93578582019036602483011162000f24576002546001600160a01b0397908816331480159062001547575b6200153757881580156200152c575b6200151c576200139662002613565b5015620014ea5750816060910312620014e657875192620013b78462002489565b6024820135600381101562000f24578452604482013593868516850362000f24576064620013f9936200140296602084015201358a820152965b369162002ac0565b92369162002ac0565b956020840193838551168015908115620014db575b50620014cb5751946003861015620014b8576001958603620014aa57508085805b62001456575b50505050505050602091505163bc197c8160e01b8152f35b156200149a575b6200149282916200148c62001473828762002ff9565b5162001480838d62002ff9565b51888a51169162002e1b565b62002b43565b908662001438565b825181106200145d57806200143e565b8651633437e5f360e21b8152fd5b634e487b7160e01b825260219052602490fd5b865163c33b691760e01b81528690fd5b905030143862001417565b8880fd5b620013f9925062001402949150868a5191620015068362002489565b600183521660208201528a8a82015296620013f1565b8a516334b2073960e11b81528a90fd5b508689141562001387565b8a5163c1b95c4760e01b81528a90fd5b5060ff60035460a01c16600281101562001565576001141562001378565b634e487b7160e01b8d5260218b5260248dfd5b8780fd5b8580fd5b50346200034b576200159236620025b2565b929160029491949360019585875414620016e6578587558015620016d65760ff60035460a01c1686811015620016c357620016b3579087929183979687805b620015de575b8589805580f35b15620016a4575b84898751620015f48162002489565b8a815260018060a01b03906200164462001622602093808a16858501528b8d85015287541694888b62002b1c565b3592620016358c51938492830162002b8e565b03601f198101835282620024cf565b823b15620014e65762001674928992838d8d5196879586948593635c46a7ef60e11b855230903390860162002c03565b03925af180156200169a579a62001693918b9c620002a4575062002b43565b99620015d1565b88513d89823e3d90fd5b818910620015e55780620015d7565b50505051637b21608560e01b8152fd5b634e487b7160e01b895260218652602489fd5b505050516334b2073960e11b8152fd5b505050516303cb96db60e21b8152fd5b50346200034b57826003193601126200034b578280526020908152918190205490516001600160a01b039091168152f35b5090346200034b576200173a366200254c565b9194939290956001966002885414620017fd576002885582158015620017f2575b620017e35760ff60035460a01c166002811015620017d0578803620017c1578894939291620009459162000954885195620017968762002489565b8b875260018060a01b038091166020880152888a880152600254169589519485916020830162002b8e565b508451637b21608560e01b8152fd5b634e487b7160e01b8a526021835260248afd5b5084516334b2073960e11b8152fd5b50808314156200175b565b5084516303cb96db60e21b8152fd5b50346200034b57602080600319360112620007c25781356001600160401b03811162000e1357620018419036908401620023bb565b93906002936001958587541462001a0a578587558015620019fb5760ff60035460a01c1686811015620019e857620019d957878052818552838820546001600160a01b0391908216670de0b6b3a76400008202670de0b6b3a763ffff1983820401620019c657908a91813b156200034b57875163079cc67960e41b81523387820190815260208101929092529291839182908490829060400103925af18015620019bc57620019aa575b50889388805b620018fe575b8a8a805580f35b156200199b575b896200191386848462002b1c565b35958b858b5416803b15620002f157819060a48b5180948193635c46a7ef60e11b8352308d8401523360248401528d6044840152608060648401528160848401525af1801562001991579162001971918d93620002a4575062002b43565b96885182815260008051602062005c1b8339815191528b3392a3620018f1565b89513d8f823e3d90fd5b818510620019055780620018f7565b620019b590620024bb565b38620018eb565b86513d8c823e3d90fd5b634e487b7160e01b8b526011855260248bfd5b508251637b21608560e01b8152fd5b634e487b7160e01b895260218352602489fd5b5082516334b2073960e11b8152fd5b5082516303cb96db60e21b8152fd5b505034620002f15781600319360112620002f15760025490516001600160a01b039091168152602090f35b50919034620002f15781600319360112620002f15760ff60035460a01c16905191600282101562001a7757602083838152f35b634e487b7160e01b815260218452602490fd5b50346200034b5760209081600319360112620007c25780356001600160401b03811162000e135762001ac09036908301620023bb565b939060029360019585875414620016e6578587558015620016d65760ff60035460a01c1686811015620016c357620016b3579087929183979687805b62001b08578589805580f35b1562001bb0575b8489875162001b1e8162002489565b8a8152338682015287898201526200163562001b5a62001b4a60018060a01b0387541694888b62002b1c565b35928b519283918a830162002b8e565b823b15620014e65762001b8a928992838d8d5196879586948593635c46a7ef60e11b855230903390860162002c03565b03925af180156200169a579a62001ba9918b9c620002a4575062002b43565b9962001afc565b81891062001b0f5780620015d7565b5090346200034b5762001bd236620023f3565b90939192600195600287541462001e075760028755841562001df95760ff60035460a01c16600281101562000a0757870362001deb578787805b62001d11575b50506002546001600160a01b0316908890823b15620002f1578551631759616b60e11b8152309181019190915233602482015260a06044820152918290818360208b8262001c7e62001c6960a487018f8d62002b69565b8c60031994858984030160648a015262002b69565b85810392830160848701525201925af1801562001d075762001ced927f4eb8fdc369e0ee4c25e3562d3a96d21eda0ba6ddcbdacce9690ff7d83e7c39f59695949262001cdc9262001cf5575b50845195858796875286019162002b69565b908382036020850152339662002b69565b0390a2805580f35b62001d0090620024bb565b3862001cca565b84513d8a823e3d90fd5b1562001ddc575b889062001d2781888662002b1c565b358a526020839052858a20546001600160a01b031662001d4982878b62002b1c565b35670de0b6b3a76400009081810291818304149015171562001dc957908b91813b156200034b57885163079cc67960e41b81523387820190815260208101929092529291839182908490829060400103925af1801562001dbf579162001db8918b9493620002a4575062002b43565b9162001c0c565b87513d8d823e3d90fd5b634e487b7160e01b8c526011855260248cfd5b85811062001d18578062001c12565b8351637b21608560e01b8152fd5b83516334b2073960e11b8152fd5b83516303cb96db60e21b8152fd5b50346200034b5762001e27366200254c565b95929360019660028854146200206b576002885585156200205b5760ff60035460a01c1660028110156200204857880362002038578888805b62001f60575b50506002546001600160a01b03908116978a91893b156200034b578751938492631759616b60e11b8452309084015216988960248301526044820160a09052818360a4820162001eb8908c8962002b69565b81600319918285820301606486015262001ed4908b8d62002b69565b848103928301608486015252602001925af1801562001f56577f4eb8fdc369e0ee4c25e3562d3a96d21eda0ba6ddcbdacce9690ff7d83e7c39f59695949262001ced949262001f359262001f44575b50855196868897885287019162002b69565b91848303602086015262002b69565b62001f4f90620024bb565b3862001f23565b85513d8b823e3d90fd5b1562002029575b899062001f7681898662002b1c565b358b526020899052868b20546001600160a01b031662001f9882878962002b1c565b35670de0b6b3a76400009081810291818304149015171562002016578c90823b15620002f157895163079cc67960e41b815233818e01908152602081019290925292839182908490829060400103925af180156200200c579162002005918c9493620002a4575062002b43565b9162001e60565b88513d8e823e3d90fd5b634e487b7160e01b8d5260118b5260248dfd5b86811062001f67578062001e66565b8451637b21608560e01b81528790fd5b634e487b7160e01b8a526021885260248afd5b84516334b2073960e11b81528790fd5b84516303cb96db60e21b81528790fd5b505034620002f15781600319360112620002f15760035490516001600160a01b039091168152602090f35b50346200034b5760803660031901126200034b57620020c462002444565b50620020cf6200245b565b92606435906001600160401b0382116200087a575092620020fa6200210592602095369101620024f1565b906044359062002693565b90516001600160e01b03199091168152f35b5090346200034b576200212a36620023f3565b6002959295906001968288541462002352578288558015801562002347575b62002337578897969587805b62002161578a89805580f35b1562002328575b89620021768a848462002b1c565b35620021848b868962002b1c565b359060ff60035460a01c1687811015620023155762002305578c60018060a01b0380895416918c51916331a9108f60e11b8352858d8401526020928381602481885afa928315620005525792620022c6575b5030911603620022b6578e91620022138d9262000455845194620021fa8662002489565b8d86523383870152888187015251948592830162002b8e565b803b156200034b5762002245918391858f8f85915196879586948593635c46a7ef60e11b855230903390860162002c03565b03925af18015620022ac57918d9e93916200229095939e9d9e6200229a575b507f77f92a1b6a1a11de8ca49515ad4c1fad45632dd3442167d74b90b304a3c7a758339180a462002b43565b9798979962002155565b620022a590620024bb565b3862002264565b8c513d84823e3d90fd5b8b5163074752d160e21b81528b90fd5b9091508281813d8311620022fd575b620022e18183620024cf565b810103126200054557620022f59062002634565b9038620021d6565b503d620022d5565b8951637b21608560e01b81528990fd5b634e487b7160e01b8e5260218a5260248efd5b81891062002168578062000393565b865163586be56960e01b81528590fd5b508181141562002149565b86516303cb96db60e21b81528590fd5b925050346200034b5760203660031901126200034b573563ffffffff60e01b81168091036200034b5760209250630271189760e51b8114908115620023a9575b5015158152f35b630a85bd0160e11b14905038620023a2565b9181601f84011215620023ee578235916001600160401b038311620023ee576020808501948460051b010111620023ee57565b600080fd5b6040600319820112620023ee576001600160401b0391600435838111620023ee57826200242391600401620023bb565b93909392602435918211620023ee576200244091600401620023bb565b9091565b600435906001600160a01b0382168203620023ee57565b602435906001600160a01b0382168203620023ee57565b604435906001600160a01b0382168203620023ee57565b606081019081106001600160401b03821117620024a557604052565b634e487b7160e01b600052604160045260246000fd5b6001600160401b038111620024a557604052565b90601f801991011681019081106001600160401b03821117620024a557604052565b81601f82011215620023ee578035906001600160401b038211620024a5576040519262002529601f8401601f191660200185620024cf565b82845260208383010111620023ee57816000926020809301838601378301015290565b6060600319820112620023ee576001600160401b0391600435838111620023ee57826200257c91600401620023bb565b93909392602435918211620023ee576200259991600401620023bb565b90916044356001600160a01b0381168103620023ee5790565b6040600319820112620023ee57600435906001600160401b038211620023ee57620025e091600401620023bb565b90916024356001600160a01b0381168103620023ee5790565b90816020910312620023ee57518015158103620023ee5790565b60405190620026228262002489565b60006040838281528260208201520152565b51906001600160a01b0382168203620023ee57565b90816060910312620023ee5760405190620026648262002489565b8051906003821015620023ee576040918352620026846020820162002634565b60208401520151604082015290565b6002805492936001600160a01b03938416929033841480159062002aa5575b15620026ca5760405163c1b95c4760e01b8152600490fd5b846003541685831690811462002a6957506000620026e762002613565b5081511562002a4157506200270791506020808251830101910162002649565b915b602083019284845116801590811562002a36575b5062002a2457805160038110156200294f576001036200296557505060ff60035460a01c16818110156200294f576200279857506200275f8282511662002c39565b51167f90890809c654f11d6e72a28fa60149770a0d11ec6c92319d6ceb2bb0a4ea1a15602060405160018152a35b630a85bd0160e11b90565b8282511690600091670de0b6b3a7640000908684526004602052856040938185872054169081156200283d575b501690813b1562000e135783516340c10f1960e01b81526001600160a01b03919091166004820152602481019290925290919083908390604490829084905af19081156200283457506200281c575b50506200275f565b620028288291620024bb565b6200087a578062002814565b513d84823e3d90fd5b929350505054825160208101916001600160601b03199060601b168252876034820152603481526200286f8162002489565b5190208251610afb808201908282106001600160401b038311176200293b5790829162003b0a8339039085f58015620007b6578516908684526004602052828420826001600160601b0360a01b825416179055813b15620007c257825163fe4b84df60e01b815260048101889052848160248183875af1801562002931576200291b575b5085670e043da61725000092888160008051602062005bfb8339815191528880a338620027c5565b6200292990949194620024bb565b9238620028f3565b84513d87823e3d90fd5b634e487b7160e01b87526041600452602487fd5b634e487b7160e01b600052602160045260246000fd5b8094929195505160038110156200294f57810362002a125760ff60035460a01c16908110156200294f5762002a00576040915116910151823b15620023ee576064600092836040519586948593632142170760e11b8552306004860152602485015260448401525af18015620029f457620029e2575b506200278d565b620029ed90620024bb565b38620029db565b6040513d6000823e3d90fd5b604051633437e5f360e21b8152600490fd5b60405163211bf9ef60e21b8152600490fd5b60405163c33b691760e01b8152600490fd5b90503014386200271d565b9050846040519262002a538462002489565b6001845216602083015260408201529162002709565b9450505050507f90890809c654f11d6e72a28fa60149770a0d11ec6c92319d6ceb2bb0a4ea1a15602060405160018152a3630a85bd0160e11b90565b5060ff60035460a01c16838110156200294f571515620026b2565b9092916001600160401b038411620024a5578360051b604051926020809462002aec82850182620024cf565b8097815201918101928311620023ee57905b82821062002b0c5750505050565b8135815290830190830162002afe565b919081101562002b2d5760051b0190565b634e487b7160e01b600052603260045260246000fd5b600019811462002b535760010190565b634e487b7160e01b600052601160045260246000fd5b81835290916001600160fb1b038311620023ee5760209260051b809284830137010190565b81516060820193929060038110156200294f5782526020808201516001600160a01b031690830152604090810151910152565b919082519283825260005b84811062002bee575050826000602080949584010152601f8019910116010190565b60208183018101518483018201520162002bcc565b6001600160a01b03918216815291166020820152604081019190915260806060820181905262002c369291019062002bc1565b90565b6000808052600460208190527f17ef568e3e12ab5b9c7254a8d58478811de00f9e6eb34345acd53bf8fd09d3ec549192604092670de0b6b3a76400009291906001600160a01b03908116801562002cf4575b1691823b156200157c5784516340c10f1960e01b81526001600160a01b0390921690820190815260208101939093529291849184918290849082906040015b03925af190811562002834575062002ce0575050565b62002cec8291620024bb565b6200087a5750565b509250600254845160208101916001600160601b03199060601b1682528660348201526034815262002d268162002489565b5190208451610afb808201908282106001600160401b0383111762002e0857908291620046058339039087f58015620029315783169285805282602052848620846001600160601b0360a01b825416179055833b156200157c57845163fe4b84df60e01b8152838101879052868160248183895af1801562002dfe5762002de8575b508562002dd557670e043da6172500009360008160008051602062005bfb8339815191528280a362002c8b565b634e487b7160e01b865260118352602486fd5b62002df690969196620024bb565b943862002da8565b86513d89823e3d90fd5b634e487b7160e01b895260418652602489fd5b9091600092801562002fe757670de0b6b3a76400008082029182040362002fd35780918385526004918260205260018060a01b039060409582878920541691821562002ea8575b50501691823b156200157c5784516340c10f1960e01b81526001600160a01b03909216908201908152602081019390935292918491849182908490829060400162002cca565b91509450600254865160208101916001600160601b03199060601b1682528660348201526034815262002edb8162002489565b5190208651610afb808201908282106001600160401b0383111762002fc057908291620051008339039089f5801562002dfe5782169085885284602052868820826001600160601b0360a01b825416179055813b156200157857865163fe4b84df60e01b8152858101879052888160248183875af1801562002fb65762002fa0575b50662386f26fc10000810180911162002f8d57948160008051602062005bfb8339815191528980a3388062002e62565b634e487b7160e01b885260118552602488fd5b62002fae90989198620024bb565b963862002f5d565b88513d8b823e3d90fd5b634e487b7160e01b8b526041885260248bfd5b634e487b7160e01b84526011600452602484fd5b6040516334b2073960e11b8152600490fd5b805182101562002b2d5760209160051b01019056fe60a080604052346100535733608052610aa29081610059823960805181818160fd015281816101cd015281816102aa015281816103c601528181610489015281816105080152818161057a01526107b70152f35b600080fdfe608060408181526004908136101561001657600080fd5b60009283803560e01c91826306fdde031461078a5750508063095ea7b31461071957806318160ddd146106fc578063186f0354146106d357806323b872dd14610653578063313ce567146106375780633d26bb671461061957806340c10f191461054f57806342966c68146104f45780636f307dc31461045957806370a082311461042157806379cc6790146103a157806395d89b411461027a578063a9059cbb14610249578063dd62ed3e14610200578063fbfa77cf146101b85763fe4b84df146100e157600080fd5b346101b45760203660031901126101b4576001600160a01b03917f0000000000000000000000000000000000000000000000000000000000000000831690338290036101a65780358155825163061bc0d560e21b8152916020918391829088905af191821561019d5750839161016f575b50166bffffffffffffffffffffffff60a01b600354161760035580f35b610190915060203d8111610196575b61018881836108d6565b81019061090e565b38610152565b503d61017e565b513d85823e3d90fd5b8251638d1af8bd60e01b8152fd5b8280fd5b8382346101fc57816003193601126101fc57517f00000000000000000000000000000000000000000000000000000000000000006001600160a01b03168152602090f35b5080fd5b8382346101fc57806003193601126101fc578060209261021e6108a5565b6102266108c0565b6001600160a01b0391821683526002865283832091168252845220549051908152f35b8382346101fc57806003193601126101fc576020906102736102696108a5565b6024359033610a27565b5160018152f35b50346101b457826003193601126101b4578051633ef0f29b60e11b81526001600160a01b039284919060208282817f000000000000000000000000000000000000000000000000000000000000000089165afa918215610397578392610377575b5083516395d89b4160e01b81529485928391165afa91821561036d57836103449493610348575b505061033a602182518094605f60f81b602083015261032a8151809260208686019101610856565b81010360018101855201836108d6565b5191829182610879565b0390f35b6103659293503d8091833e61035d81836108d6565b81019061092d565b903880610302565b81513d85823e3d90fd5b61039091925060203d81116101965761018881836108d6565b90386102db565b84513d85823e3d90fd5b5090346101b457816003193601126101b4576103bb6108a5565b9160018060a01b03807f0000000000000000000000000000000000000000000000000000000000000000163314159081610412575b506104055783610402602435856109c9565b80f35b51633c61e6ff60e11b8152fd5b905060035416331415386103f0565b8382346101fc5760203660031901126101fc5760209181906001600160a01b036104496108a5565b1681526001845220549051908152f35b509190346101fc57816003193601126101fc578251633ef0f29b60e11b81526001600160a01b03919060208183817f000000000000000000000000000000000000000000000000000000000000000087165afa9384156104e957936104c9575b5054908351921682526020820152f35b6104e291935060203d81116101965761018881836108d6565b91386104b9565b8551903d90823e3d90fd5b50346101b45760203660031901126101b4577f00000000000000000000000000000000000000000000000000000000000000006001600160a01b0316330361054257506104029035336109c9565b51638d1af8bd60e01b8152fd5b5090346101b457816003193601126101b4576105696108a5565b602435916001600160a01b039190337f0000000000000000000000000000000000000000000000000000000000000000841614158061060b575b6105fd5750827fddf252ad1be2c89b69c2b068fc378daa952ba7f163c4a11628f55a4df523b3ef926020926105da88968754610999565b86551694858552600183528085206105f3838254610999565b905551908152a380f35b8451633c61e6ff60e11b8152fd5b5082600354163314156105a3565b5090346101b457826003193601126101b45760209250549051908152f35b8382346101fc57816003193601126101fc576020905160128152f35b8382346101fc5760603660031901126101fc576102736020926106746108a5565b61067c6108c0565b90846044359360018060a01b03831680825260028952828220338352895260001983832054036106af575b505050610a27565b8152600288528181203382528852206106c98482546109bc565b90558487806106a7565b8382346101fc57816003193601126101fc5760035490516001600160a01b039091168152602090f35b8382346101fc57816003193601126101fc57602091549051908152f35b8382346101fc57806003193601126101fc57602091816107376108a5565b91602435918291338152600287528181209460018060a01b0316948582528752205582519081527f8c5be1e5ebec7d5bd14f71427d1e84f3dd0314c0f7b2291e5b200ac8c7c3b925843392a35160018152f35b909150346101fc57816003193601126101fc57633ef0f29b60e11b81526001600160a01b039360208282817f000000000000000000000000000000000000000000000000000000000000000089165afa918215610397578392610836575b5083516306fdde0360e01b81529485928391165afa91821561036d5783610344949361034857505061033a602182518094605f60f81b602083015261032a8151809260208686019101610856565b61084f91925060203d81116101965761018881836108d6565b90386107e8565b60005b8381106108695750506000910152565b8181015183820152602001610859565b604091602082526108998151809281602086015260208686019101610856565b601f01601f1916010190565b600435906001600160a01b03821682036108bb57565b600080fd5b602435906001600160a01b03821682036108bb57565b90601f8019910116810190811067ffffffffffffffff8211176108f857604052565b634e487b7160e01b600052604160045260246000fd5b908160209103126108bb57516001600160a01b03811681036108bb5790565b6020818303126108bb57805167ffffffffffffffff918282116108bb57019082601f830112156108bb5781519081116108f85760405192610978601f8301601f1916602001856108d6565b818452602082840101116108bb576109969160208085019101610856565b90565b919082018092116109a657565b634e487b7160e01b600052601160045260246000fd5b919082039182116109a657565b907fddf252ad1be2c89b69c2b068fc378daa952ba7f163c4a11628f55a4df523b3ef602060009360018060a01b0316928385526001825260408520610a0f8282546109bc565b9055610a1c8186546109bc565b8555604051908152a3565b60207fddf252ad1be2c89b69c2b068fc378daa952ba7f163c4a11628f55a4df523b3ef9160018060a01b038091169384600052600183526040600020610a6e8782546109bc565b9055169384600052600182526040600020610a8a828254610999565b9055604051908152a356fea164736f6c6343000812000a60a080604052346100535733608052610aa29081610059823960805181818160fd015281816101cd015281816102aa015281816103c601528181610489015281816105080152818161057a01526107b70152f35b600080fdfe608060408181526004908136101561001657600080fd5b60009283803560e01c91826306fdde031461078a5750508063095ea7b31461071957806318160ddd146106fc578063186f0354146106d357806323b872dd14610653578063313ce567146106375780633d26bb671461061957806340c10f191461054f57806342966c68146104f45780636f307dc31461045957806370a082311461042157806379cc6790146103a157806395d89b411461027a578063a9059cbb14610249578063dd62ed3e14610200578063fbfa77cf146101b85763fe4b84df146100e157600080fd5b346101b45760203660031901126101b4576001600160a01b03917f0000000000000000000000000000000000000000000000000000000000000000831690338290036101a65780358155825163061bc0d560e21b8152916020918391829088905af191821561019d5750839161016f575b50166bffffffffffffffffffffffff60a01b600354161760035580f35b610190915060203d8111610196575b61018881836108d6565b81019061090e565b38610152565b503d61017e565b513d85823e3d90fd5b8251638d1af8bd60e01b8152fd5b8280fd5b8382346101fc57816003193601126101fc57517f00000000000000000000000000000000000000000000000000000000000000006001600160a01b03168152602090f35b5080fd5b8382346101fc57806003193601126101fc578060209261021e6108a5565b6102266108c0565b6001600160a01b0391821683526002865283832091168252845220549051908152f35b8382346101fc57806003193601126101fc576020906102736102696108a5565b6024359033610a27565b5160018152f35b50346101b457826003193601126101b4578051633ef0f29b60e11b81526001600160a01b039284919060208282817f000000000000000000000000000000000000000000000000000000000000000089165afa918215610397578392610377575b5083516395d89b4160e01b81529485928391165afa91821561036d57836103449493610348575b505061033a602182518094605f60f81b602083015261032a8151809260208686019101610856565b81010360018101855201836108d6565b5191829182610879565b0390f35b6103659293503d8091833e61035d81836108d6565b81019061092d565b903880610302565b81513d85823e3d90fd5b61039091925060203d81116101965761018881836108d6565b90386102db565b84513d85823e3d90fd5b5090346101b457816003193601126101b4576103bb6108a5565b9160018060a01b03807f0000000000000000000000000000000000000000000000000000000000000000163314159081610412575b506104055783610402602435856109c9565b80f35b51633c61e6ff60e11b8152fd5b905060035416331415386103f0565b8382346101fc5760203660031901126101fc5760209181906001600160a01b036104496108a5565b1681526001845220549051908152f35b509190346101fc57816003193601126101fc578251633ef0f29b60e11b81526001600160a01b03919060208183817f000000000000000000000000000000000000000000000000000000000000000087165afa9384156104e957936104c9575b5054908351921682526020820152f35b6104e291935060203d81116101965761018881836108d6565b91386104b9565b8551903d90823e3d90fd5b50346101b45760203660031901126101b4577f00000000000000000000000000000000000000000000000000000000000000006001600160a01b0316330361054257506104029035336109c9565b51638d1af8bd60e01b8152fd5b5090346101b457816003193601126101b4576105696108a5565b602435916001600160a01b039190337f0000000000000000000000000000000000000000000000000000000000000000841614158061060b575b6105fd5750827fddf252ad1be2c89b69c2b068fc378daa952ba7f163c4a11628f55a4df523b3ef926020926105da88968754610999565b86551694858552600183528085206105f3838254610999565b905551908152a380f35b8451633c61e6ff60e11b8152fd5b5082600354163314156105a3565b5090346101b457826003193601126101b45760209250549051908152f35b8382346101fc57816003193601126101fc576020905160128152f35b8382346101fc5760603660031901126101fc576102736020926106746108a5565b61067c6108c0565b90846044359360018060a01b03831680825260028952828220338352895260001983832054036106af575b505050610a27565b8152600288528181203382528852206106c98482546109bc565b90558487806106a7565b8382346101fc57816003193601126101fc5760035490516001600160a01b039091168152602090f35b8382346101fc57816003193601126101fc57602091549051908152f35b8382346101fc57806003193601126101fc57602091816107376108a5565b91602435918291338152600287528181209460018060a01b0316948582528752205582519081527f8c5be1e5ebec7d5bd14f71427d1e84f3dd0314c0f7b2291e5b200ac8c7c3b925843392a35160018152f35b909150346101fc57816003193601126101fc57633ef0f29b60e11b81526001600160a01b039360208282817f000000000000000000000000000000000000000000000000000000000000000089165afa918215610397578392610836575b5083516306fdde0360e01b81529485928391165afa91821561036d5783610344949361034857505061033a602182518094605f60f81b602083015261032a8151809260208686019101610856565b61084f91925060203d81116101965761018881836108d6565b90386107e8565b60005b8381106108695750506000910152565b8181015183820152602001610859565b604091602082526108998151809281602086015260208686019101610856565b601f01601f1916010190565b600435906001600160a01b03821682036108bb57565b600080fd5b602435906001600160a01b03821682036108bb57565b90601f8019910116810190811067ffffffffffffffff8211176108f857604052565b634e487b7160e01b600052604160045260246000fd5b908160209103126108bb57516001600160a01b03811681036108bb5790565b6020818303126108bb57805167ffffffffffffffff918282116108bb57019082601f830112156108bb5781519081116108f85760405192610978601f8301601f1916602001856108d6565b818452602082840101116108bb576109969160208085019101610856565b90565b919082018092116109a657565b634e487b7160e01b600052601160045260246000fd5b919082039182116109a657565b907fddf252ad1be2c89b69c2b068fc378daa952ba7f163c4a11628f55a4df523b3ef602060009360018060a01b0316928385526001825260408520610a0f8282546109bc565b9055610a1c8186546109bc565b8555604051908152a3565b60207fddf252ad1be2c89b69c2b068fc378daa952ba7f163c4a11628f55a4df523b3ef9160018060a01b038091169384600052600183526040600020610a6e8782546109bc565b9055169384600052600182526040600020610a8a828254610999565b9055604051908152a356fea164736f6c6343000812000a60a080604052346100535733608052610aa29081610059823960805181818160fd015281816101cd015281816102aa015281816103c601528181610489015281816105080152818161057a01526107b70152f35b600080fdfe608060408181526004908136101561001657600080fd5b60009283803560e01c91826306fdde031461078a5750508063095ea7b31461071957806318160ddd146106fc578063186f0354146106d357806323b872dd14610653578063313ce567146106375780633d26bb671461061957806340c10f191461054f57806342966c68146104f45780636f307dc31461045957806370a082311461042157806379cc6790146103a157806395d89b411461027a578063a9059cbb14610249578063dd62ed3e14610200578063fbfa77cf146101b85763fe4b84df146100e157600080fd5b346101b45760203660031901126101b4576001600160a01b03917f0000000000000000000000000000000000000000000000000000000000000000831690338290036101a65780358155825163061bc0d560e21b8152916020918391829088905af191821561019d5750839161016f575b50166bffffffffffffffffffffffff60a01b600354161760035580f35b610190915060203d8111610196575b61018881836108d6565b81019061090e565b38610152565b503d61017e565b513d85823e3d90fd5b8251638d1af8bd60e01b8152fd5b8280fd5b8382346101fc57816003193601126101fc57517f00000000000000000000000000000000000000000000000000000000000000006001600160a01b03168152602090f35b5080fd5b8382346101fc57806003193601126101fc578060209261021e6108a5565b6102266108c0565b6001600160a01b0391821683526002865283832091168252845220549051908152f35b8382346101fc57806003193601126101fc576020906102736102696108a5565b6024359033610a27565b5160018152f35b50346101b457826003193601126101b4578051633ef0f29b60e11b81526001600160a01b039284919060208282817f000000000000000000000000000000000000000000000000000000000000000089165afa918215610397578392610377575b5083516395d89b4160e01b81529485928391165afa91821561036d57836103449493610348575b505061033a602182518094605f60f81b602083015261032a8151809260208686019101610856565b81010360018101855201836108d6565b5191829182610879565b0390f35b6103659293503d8091833e61035d81836108d6565b81019061092d565b903880610302565b81513d85823e3d90fd5b61039091925060203d81116101965761018881836108d6565b90386102db565b84513d85823e3d90fd5b5090346101b457816003193601126101b4576103bb6108a5565b9160018060a01b03807f0000000000000000000000000000000000000000000000000000000000000000163314159081610412575b506104055783610402602435856109c9565b80f35b51633c61e6ff60e11b8152fd5b905060035416331415386103f0565b8382346101fc5760203660031901126101fc5760209181906001600160a01b036104496108a5565b1681526001845220549051908152f35b509190346101fc57816003193601126101fc578251633ef0f29b60e11b81526001600160a01b03919060208183817f000000000000000000000000000000000000000000000000000000000000000087165afa9384156104e957936104c9575b5054908351921682526020820152f35b6104e291935060203d81116101965761018881836108d6565b91386104b9565b8551903d90823e3d90fd5b50346101b45760203660031901126101b4577f00000000000000000000000000000000000000000000000000000000000000006001600160a01b0316330361054257506104029035336109c9565b51638d1af8bd60e01b8152fd5b5090346101b457816003193601126101b4576105696108a5565b602435916001600160a01b039190337f0000000000000000000000000000000000000000000000000000000000000000841614158061060b575b6105fd5750827fddf252ad1be2c89b69c2b068fc378daa952ba7f163c4a11628f55a4df523b3ef926020926105da88968754610999565b86551694858552600183528085206105f3838254610999565b905551908152a380f35b8451633c61e6ff60e11b8152fd5b5082600354163314156105a3565b5090346101b457826003193601126101b45760209250549051908152f35b8382346101fc57816003193601126101fc576020905160128152f35b8382346101fc5760603660031901126101fc576102736020926106746108a5565b61067c6108c0565b90846044359360018060a01b03831680825260028952828220338352895260001983832054036106af575b505050610a27565b8152600288528181203382528852206106c98482546109bc565b90558487806106a7565b8382346101fc57816003193601126101fc5760035490516001600160a01b039091168152602090f35b8382346101fc57816003193601126101fc57602091549051908152f35b8382346101fc57806003193601126101fc57602091816107376108a5565b91602435918291338152600287528181209460018060a01b0316948582528752205582519081527f8c5be1e5ebec7d5bd14f71427d1e84f3dd0314c0f7b2291e5b200ac8c7c3b925843392a35160018152f35b909150346101fc57816003193601126101fc57633ef0f29b60e11b81526001600160a01b039360208282817f000000000000000000000000000000000000000000000000000000000000000089165afa918215610397578392610836575b5083516306fdde0360e01b81529485928391165afa91821561036d5783610344949361034857505061033a602182518094605f60f81b602083015261032a8151809260208686019101610856565b61084f91925060203d81116101965761018881836108d6565b90386107e8565b60005b8381106108695750506000910152565b8181015183820152602001610859565b604091602082526108998151809281602086015260208686019101610856565b601f01601f1916010190565b600435906001600160a01b03821682036108bb57565b600080fd5b602435906001600160a01b03821682036108bb57565b90601f8019910116810190811067ffffffffffffffff8211176108f857604052565b634e487b7160e01b600052604160045260246000fd5b908160209103126108bb57516001600160a01b03811681036108bb5790565b6020818303126108bb57805167ffffffffffffffff918282116108bb57019082601f830112156108bb5781519081116108f85760405192610978601f8301601f1916602001856108d6565b818452602082840101116108bb576109969160208085019101610856565b90565b919082018092116109a657565b634e487b7160e01b600052601160045260246000fd5b919082039182116109a657565b907fddf252ad1be2c89b69c2b068fc378daa952ba7f163c4a11628f55a4df523b3ef602060009360018060a01b0316928385526001825260408520610a0f8282546109bc565b9055610a1c8186546109bc565b8555604051908152a3565b60207fddf252ad1be2c89b69c2b068fc378daa952ba7f163c4a11628f55a4df523b3ef9160018060a01b038091169384600052600183526040600020610a6e8782546109bc565b9055169384600052600182526040600020610a8a828254610999565b9055604051908152a356fea164736f6c6343000812000a60a080604052346100535733608052610aa29081610059823960805181818160fd015281816101cd015281816102aa015281816103c601528181610489015281816105080152818161057a01526107b70152f35b600080fdfe608060408181526004908136101561001657600080fd5b60009283803560e01c91826306fdde031461078a5750508063095ea7b31461071957806318160ddd146106fc578063186f0354146106d357806323b872dd14610653578063313ce567146106375780633d26bb671461061957806340c10f191461054f57806342966c68146104f45780636f307dc31461045957806370a082311461042157806379cc6790146103a157806395d89b411461027a578063a9059cbb14610249578063dd62ed3e14610200578063fbfa77cf146101b85763fe4b84df146100e157600080fd5b346101b45760203660031901126101b4576001600160a01b03917f0000000000000000000000000000000000000000000000000000000000000000831690338290036101a65780358155825163061bc0d560e21b8152916020918391829088905af191821561019d5750839161016f575b50166bffffffffffffffffffffffff60a01b600354161760035580f35b610190915060203d8111610196575b61018881836108d6565b81019061090e565b38610152565b503d61017e565b513d85823e3d90fd5b8251638d1af8bd60e01b8152fd5b8280fd5b8382346101fc57816003193601126101fc57517f00000000000000000000000000000000000000000000000000000000000000006001600160a01b03168152602090f35b5080fd5b8382346101fc57806003193601126101fc578060209261021e6108a5565b6102266108c0565b6001600160a01b0391821683526002865283832091168252845220549051908152f35b8382346101fc57806003193601126101fc576020906102736102696108a5565b6024359033610a27565b5160018152f35b50346101b457826003193601126101b4578051633ef0f29b60e11b81526001600160a01b039284919060208282817f000000000000000000000000000000000000000000000000000000000000000089165afa918215610397578392610377575b5083516395d89b4160e01b81529485928391165afa91821561036d57836103449493610348575b505061033a602182518094605f60f81b602083015261032a8151809260208686019101610856565b81010360018101855201836108d6565b5191829182610879565b0390f35b6103659293503d8091833e61035d81836108d6565b81019061092d565b903880610302565b81513d85823e3d90fd5b61039091925060203d81116101965761018881836108d6565b90386102db565b84513d85823e3d90fd5b5090346101b457816003193601126101b4576103bb6108a5565b9160018060a01b03807f0000000000000000000000000000000000000000000000000000000000000000163314159081610412575b506104055783610402602435856109c9565b80f35b51633c61e6ff60e11b8152fd5b905060035416331415386103f0565b8382346101fc5760203660031901126101fc5760209181906001600160a01b036104496108a5565b1681526001845220549051908152f35b509190346101fc57816003193601126101fc578251633ef0f29b60e11b81526001600160a01b03919060208183817f000000000000000000000000000000000000000000000000000000000000000087165afa9384156104e957936104c9575b5054908351921682526020820152f35b6104e291935060203d81116101965761018881836108d6565b91386104b9565b8551903d90823e3d90fd5b50346101b45760203660031901126101b4577f00000000000000000000000000000000000000000000000000000000000000006001600160a01b0316330361054257506104029035336109c9565b51638d1af8bd60e01b8152fd5b5090346101b457816003193601126101b4576105696108a5565b602435916001600160a01b039190337f0000000000000000000000000000000000000000000000000000000000000000841614158061060b575b6105fd5750827fddf252ad1be2c89b69c2b068fc378daa952ba7f163c4a11628f55a4df523b3ef926020926105da88968754610999565b86551694858552600183528085206105f3838254610999565b905551908152a380f35b8451633c61e6ff60e11b8152fd5b5082600354163314156105a3565b5090346101b457826003193601126101b45760209250549051908152f35b8382346101fc57816003193601126101fc576020905160128152f35b8382346101fc5760603660031901126101fc576102736020926106746108a5565b61067c6108c0565b90846044359360018060a01b03831680825260028952828220338352895260001983832054036106af575b505050610a27565b8152600288528181203382528852206106c98482546109bc565b90558487806106a7565b8382346101fc57816003193601126101fc5760035490516001600160a01b039091168152602090f35b8382346101fc57816003193601126101fc57602091549051908152f35b8382346101fc57806003193601126101fc57602091816107376108a5565b91602435918291338152600287528181209460018060a01b0316948582528752205582519081527f8c5be1e5ebec7d5bd14f71427d1e84f3dd0314c0f7b2291e5b200ac8c7c3b925843392a35160018152f35b909150346101fc57816003193601126101fc57633ef0f29b60e11b81526001600160a01b039360208282817f000000000000000000000000000000000000000000000000000000000000000089165afa918215610397578392610836575b5083516306fdde0360e01b81529485928391165afa91821561036d5783610344949361034857505061033a602182518094605f60f81b602083015261032a8151809260208686019101610856565b61084f91925060203d81116101965761018881836108d6565b90386107e8565b60005b8381106108695750506000910152565b8181015183820152602001610859565b604091602082526108998151809281602086015260208686019101610856565b601f01601f1916010190565b600435906001600160a01b03821682036108bb57565b600080fd5b602435906001600160a01b03821682036108bb57565b90601f8019910116810190811067ffffffffffffffff8211176108f857604052565b634e487b7160e01b600052604160045260246000fd5b908160209103126108bb57516001600160a01b03811681036108bb5790565b6020818303126108bb57805167ffffffffffffffff918282116108bb57019082601f830112156108bb5781519081116108f85760405192610978601f8301601f1916602001856108d6565b818452602082840101116108bb576109969160208085019101610856565b90565b919082018092116109a657565b634e487b7160e01b600052601160045260246000fd5b919082039182116109a657565b907fddf252ad1be2c89b69c2b068fc378daa952ba7f163c4a11628f55a4df523b3ef602060009360018060a01b0316928385526001825260408520610a0f8282546109bc565b9055610a1c8186546109bc565b8555604051908152a3565b60207fddf252ad1be2c89b69c2b068fc378daa952ba7f163c4a11628f55a4df523b3ef9160018060a01b038091169384600052600183526040600020610a6e8782546109bc565b9055169384600052600182526040600020610a8a828254610999565b9055604051908152a356fea164736f6c6343000812000a1cef2b4ec7f129e441c961eb4fae22fd3131868db6be990c6f065f35b6b53cf3f279e6a1f5e320cca91135676d9cb6e44ca8a08c0b88342bcdb1144f6511b568a164736f6c6343000812000a",
  "linkReferences": {},
  "deployedLinkReferences": {}
}